:100000000C9464050C941E090C94F3080C94C80815
:100010000C949D080C9472080C9447080C941C08CE
:100020000C94F1070C9495050C9495050C9495058A
:100030000C9495050C9495050C9495050C949505D8
:100040000C9495050C9495050C9495050C949505C8
:100050000C9495050C9495050C9495050C949D1C99
:100060000C9495050C94CC0A0C94A20A0C9495055A
:100070000C9495050C9495050C9495050C94950598
:100080000C9495050C9495050C9495050C94950588
:100090000C94780A0C944E0A0C9495050C944F0B12
:1000A0000C9495050C9495050C9495050C94950568
:1000B0000C9495050C9495050C9495050C94950558
:1000C0000C9495050C9495050C9495050C94240AB4
:1000D0000C94FA090C9495050C9495050C949505CF
:1000E0000C949505EF1BF21BE11BE51BE91B291C7A
:1000F000F61BFA1B001C041C081C0E1C121C161CF0
:10010000291C1C1C201C241C0C9471070C940E1C14
:100110000C9403070C9446070C9498050C94062C39
:100120000C9443070C94121C0C94C2050C94081CEC
:100130000C94041C0C943F060C94F3050C94EF1BD8
:100140000C94201C0C9444070C94E5050C949E0719
:100150000C941C1C0C94F61B0C9469070C94E91B62
:100160000C94DF060C94FA1B0C94161C0C94F706E6
:100170000C94E51B0C94241C0C94E11B0C94291C7E
:100180000C9455070C94EB060C94D1050C940F07B6
:100190000C9497050C94CE070C948C060C94450790
:1001A0000C94F21B0C94001C4E414E494E4954597C
:1001B000494E46CDCCCC3D0AD7233C17B7D1387732
:1001C000CC2B329595E6241FB14F0A000020410048
:1001D00000C84200401C4620BCBE4CCA1B0E5AAE92
:1001E000C59D7400407A10F35A00A0724E180900A1
:1001F00010A5D4E80000E87648170000E40B54028C
:100200000000CA9A3B000000E1F5050000809698C6
:1002100000000040420F000000A086010000001016
:100220002700000000E80300000000640000000058
:10023000000A00000000000100000000002C76D839
:1002400088DC674F0823DFC1DFAE59E1B1B796E51F
:10025000E3E453C63AE651997696E8E6C28426EB83
:10026000898C9B62ED407C6FFCEFBC9C9F40F2BA96
:10027000A56FA5F490055A2AF75C936B6CF9676D2E
:10028000C11BFCE0E40D47FEF520E6B500D0ED9083
:100290002E0300943577050080841E080000204E50
:1002A0000A000000C80C333333330F986E128311E9
:1002B00041EF8D2114893BE65516CFFEE6DB18D1C0
:1002C000844B381BF77C1D901DA4BBE42420328492
:1002D000725E228100C9F124ECA1E53D274750530D
:1002E00020626567696E65640043616E27742062F1
:1002F0006567696E204750530053494D38303820A8
:10030000737461727465640041542B43504D533DC6
:1003100022534D222C22534D222C22534D22005386
:10032000494D3830304800093C2D2D2D2000092D35
:100330002D2D3E200053494D434F4D5F53494D35C0
:10034000333230450053494D434F4D5F53494D358E
:10035000333230410053494D383030205231330070
:1003600053494D383038205231330053494D3830DD
:10037000382052313400093C2D2D2D2000092D2D1F
:100380002D3E200041542B435648553D30004154EA
:10039000453000415445300041540041540041541F
:1003A0000054696D656F75743A204E6F20726573E5
:1003B000706F6E736520746F2041542E2E2E206C4A
:1003C00061737420646974636820617474656D700E
:1003D000742E00415400415400415400417474652E
:1003E0006D7074696E6720746F206F70656E206326
:1003F0006F6D6D2077697468204154730053494DC7
:1004000038303820646F206E6F742073746172749A
:1004100065640077656267707273323030320077DE
:1004200065626770727300696E7465726E65742EB2
:100430006974656C63656C2E636F6D006D0064009C
:100440007300416464696E672064656661756C74ED
:10045000206C6F636174696F6E004572726F7220F9
:100460007570646174696E672047505320737461BE
:1004700074757300706F74320070686F32006E694B
:10048000743200706F74310070686F31006E69747F
:1004900031004150320048320054320061707031F6
:1004A0000061686831006174310070483200704842
:1004B00031004C5432004C4832004C5431004C480E
:1004C000310073745F320073683200736563320009
:1004D00073745F3100736831007365633100457276
:1004E000726F7220656E206C612072657370756525
:1004F00073746100424144204352432000457272AC
:100500006F722C2073656E736F723A2000457869A4
:10051000746F2C2073656E736F723A2000424154E1
:1005200054002B48545450414354494F4E3A002BE9
:1005300048545450414354494F4E3A0041542B487B
:10054000545450414354494F4E3D002B485454504D
:10055000524541443A0041542B485454505245416D
:1005600044004C656E3A20005374617475733A20F0
:1005700000444F574E4C4F41440041542B48545473
:1005800050444154413D0041542B4854545044413F
:1005900054413D00092D2D2D3E200041542B48543F
:1005A000545053534C3D0052454449520041542B42
:1005B00048545450494E49540041542B48545450C7
:1005C0005445524D0055524C00554100434944009A
:1005D000434F4E54454E54002B43474154543A2008
:1005E0000041542B43474154543F0041542B43494D
:1005F0004943520041542B53415042523D312C311A
:100600000041542B53415042523D332C312C225047
:100610005744222C0041542B53415042523D332C1D
:10062000312C2255534552222C0041542B43535414
:10063000543D2200092D2D2D3E200041542B4353C3
:1006400054543D220041542B53415042523D332CCF
:10065000312C2241504E222C0041542B5341504208
:10066000523D332C312C22434F4E54595045222CAD
:100670002247505253220041542B43474154543D8A
:10068000310053485554204F4B0041542B4349509F
:1006900053485554002900202020205354415455DC
:1006A000533A20556E6B6F776E2073746174757357
:1006B00020636F646520280020202020535441547B
:1006C00055533A20484F5354204552524F52002020
:1006D0002020205354415455533A204E4554574FEF
:1006E000524B204552524F5200202020205354415B
:1006F0005455533A204E4F5420464F554E442034C3
:10070000303400202020205354415455533A204285
:100710004144205245515545535400202020205338
:1007200054415455533A204F4B2C204E4F20434FA9
:100730004E54454E540020202020535441545553CC
:100740003A204F4B00202020205354415455533A17
:100750002043414E27542053454E44205245515585
:1007600045535400202020202020504F53543A203D
:100770004552524F52006170706C69636174696FC9
:100780006E2F6A736F6E0020202020202047505269
:10079000533A2000202020202020424F44593A2064
:1007A00000202020202020484F53543A20002D2D97
:1007B0002D2D2D2D204854545020504F5354202D72
:1007C0002D2D2D2D2D000000696E7465726E6574DF
:1007D0002E656D742E65652000506F7374205375FF
:1007E00063636573732100506F7374204572726F79
:1007F0007200093C2D2D2D2000092D2D2D3E2000AD
:10080000222C2200222C0041542B48545450504199
:1008100052413D220041542B4854545050415241C2
:100820003D2200092D2D2D3E2000093C2D2D2D208F
:1008300000535354415455533A204C6F63617469CB
:100840006F6E200041542B4347505353544154552D
:10085000533F002B43475053494E464F3A004154B3
:100860002B43475053494E464F002B43474E534965
:100870004E463A200041542B43474E53494E4600C2
:1008800053494E460041542B43474E53494E460070
:1008900041542B43475053494E463D0041542B434E
:1008A000475053494E464F00093C2D2D2D2000093D
:1008B0002D2D2D3E20006700740000002200250031
:1008C00028002B002E003100340002010000050139
:1008D00008010B0100002100240027002A002D0040
:1008E0003000330001010000040107010A01050581
:1008F0000505070508080808020202020A0A080896
:1009000004040404010101010101010103030303C3
:1009100003030303040707070C0C0C0C0C0C0C0C52
:100920000202020206060606060606060B0B0B0B63
:100930000B0B0B0B01021020200808102040102088
:100940004080020102010804020101020408102093
:100950004080804020100804020180040201804091
:1009600020100804020108040201010204081020FA
:100970004080010204081020408041542B4347501E
:10098000535057523D310041542B43474E5350571B
:10099000523D31002B434750535057523A200041AB
:1009A000542B434750535057523F002B43474E530D
:1009B0005057523A200041542B43474E5350575200
:1009C0003F0041542B43434944002B435245473A8F
:1009D000200041542B435245473F00466F6E612033
:1009E00053494D20434349443A2000526567697397
:1009F000746572656420726F616D696E6700556E13
:100A00006B6E6F776E0044656E696564004E6F743F
:100A10002072656769737465726564202873656107
:100A2000726368696E6729005265676973746572DD
:100A300065642028686F6D6529004E6F74207265AB
:100A400067697374657265643A2000466F6E612051
:100A50006E6574776F726B207374617475733A206E
:100A600000093C2D2D2D2000092D2D2D3E20004F5D
:100A70004B00464F4E4100464F4E416E657400009C
:100A8000000A0B02090C0D0E080703040100000008
:100A90000000000000000000000000000000000056
:100AA0000000000000000000000000121110000013
:100AB0000000000000000000000000000000000036
:100AC000000000000000062C11241FBECFEFD1E271
:100AD000DEBFCDBF00E00CBF23E1A0E5B3E001C065
:100AE0001D92A435B207E1F713E0A0E0B2E0E6E41E
:100AF000F1E700E00BBF02C007900D92A035B107EF
:100B0000D9F715E0C4E6D5E000E006C02197010959
:100B1000802FFE010E94DF32C336D10780E0080734
:100B2000A9F70E94E71C0C94A1380C9400000895CA
:100B3000CF92DF92EF92FF920F931F93CF93DF93A9
:100B40006C017A018B01C0E0D0E0CE15DF0581F0A9
:100B5000D8016D918D01D601ED91FC910190F0814C
:100B6000E02DC6011995892B11F02196EECF7E015B
:100B7000C701DF91CF911F910F91FF90EF90DF9010
:100B8000CF900895FC01538D448D252F30E0842FA4
:100B900090E0821B930B541710F0CF9608950197A5
:100BA0000895FC01918D828D981761F0828DDF018F
:100BB000A80FB11D5D968C91928D9F5F9F73928F50
:100BC00090E008958FEF9FEF0895FC01918D828D45
:100BD000981731F0828DE80FF11D858D90E0089512
:100BE0008FEF9FEF0895FC01918D228D892F90E06A
:100BF000805C9F4F821B91098F739927089583E230
:100C00009AE00E94F30521E0892B09F420E0822F6D
:100C1000089580EC9AE00E94F30521E0892B09F405
:100C200020E0822F08958DE59BE00E94F30521E0EE
:100C3000892B09F420E0822F0895FC01848DDF01C7
:100C4000A80FB11DA35ABF4F2C91848D90E001963F
:100C50008F739927848FA689B7892C93A089B1892E
:100C60008C91837080648C93938D848D981306C0CF
:100C70000288F389E02D80818F7D80830895EF9233
:100C8000FF920F931F93CF93DF93EC0181E0888F46
:100C90009B8D8C8D981305C0E889F989808185FD2D
:100CA00026C0F62E0B8D10E00F5F1F4F0F7311271C
:100CB000E02E8C8DE8120CC00FB607FCFACFE88945
:100CC000F989808185FFF5CFCE010E941D06F1CF05
:100CD0008B8DFE01E80FF11DE35AFF4FF0829FB7A5
:100CE000F8940B8FEA89FB89808180620AC09FB7E4
:100CF000F894EE89FF896083E889F989808183709F
:100D0000806480839FBF81E090E0DF91CF911F914D
:100D10000F91FF90EF900895CF93DF93EC01888DB2
:100D20008823C9F0EA89FB89808185FD05C0A889EF
:100D3000B9898C9186FD0FC00FB607FCF5CF808175
:100D400085FFF2CFA889B9898C9185FFEDCFCE01BF
:100D50000E941D06E7CFDF91CF91089580E090E0DB
:100D6000892B21F00E94130681111DC080E090E0C4
:100D7000892B21F00E940906811118C080E090E0C3
:100D8000892B21F00E94FF05811113C080E090E0C3
:100D9000892BA1F080E090E0892B81F00E94000077
:100DA00081110AC008950E940000E0CF0E94000057
:100DB000E5CF0E940000EACF0C9400000895885E01
:100DC0009E4FDC018D919C91DC01ED91FC910680A0
:100DD000F781E02D1994885E9E4FDC018D919C91E6
:100DE000DC01ED91FC910484F585E02D1994885E79
:100DF0009E4FDC018D919C91DC01ED91FC91028470
:100E0000F385E02D1994885E9E4FDC018D919C91B5
:100E1000DC01ED91FC910190F081E02D1994885E48
:100E20009E4FDC018D919C91DC01ED91FC91008441
:100E3000F185E02D19944091AB09262F30E0240F65
:100E4000311D21323105DCF420911D0A2430C9F412
:100E5000FC0180E090E0861758F43091AB092191B5
:100E6000DC01A757B64FA30FB11D2C930196F3CF0A
:100E70008091AB09680F6093AB0980E0089581E031
:100E8000089582E00895089508950895E091D209A3
:100E90008091D109E81730F4F0E0E350F64F8081FB
:100EA00090E008958FEF9FEF08959091D20980917F
:100EB000D109981750F4E92FF0E0E350F64F208164
:100EC00030E09F5F9093D20902C02FEF3FEFC9013E
:100ED00008958091D10990E02091D209821B910957
:100EE0000895CF92DF92EF92FF920F931F93CF93CB
:100EF000DF937C01CB018A012091D609222389F05E
:100F0000EB016B01C40ED51ECC15DD0569F06991AE
:100F1000D701ED91FC910190F081E02DC701199569
:100F2000F3CF642F0E941B07C801DF91CF911F915F
:100F30000F91FF90EF90DF90CF900895CF93DF93C4
:100F40001F92CDB7DEB769832091D6092223D1F055
:100F50002091D309203240F021E030E0FC013383BE
:100F6000228380E090E015C08091D409E82FF0E062
:100F7000E859F64F998190838F5F8093D4098093CD
:100F8000D30905C061E0CE0101960E941B0781E0F4
:100F900090E00F90DF91CF910895089580E090E068
:100FA00008950E94873510921D0A81E08093FC0904
:100FB0001092F70961E084E10E94C01B61E085E1C5
:100FC0000E94C01BE9EBF0E080818E7F80838081EE
:100FD0008D7F808388E48093B80085E48093BC0093
:100FE00008951F920F920FB60F9211240BB60F9215
:100FF0002F933F934F935F936F937F938F939F9321
:10100000AF93BF93EF93FF93E0910E02F0910F0225
:101010001995FF91EF91BF91AF919F918F917F9122
:101020006F915F914F913F912F910F900BBE0F9059
:101030000FBE0F901F9018951F920F920FB60F9230
:1010400011240BB60F922F933F934F935F936F939F
:101050007F938F939F93AF93BF93EF93FF93E09111
:101060000C02F0910D021995FF91EF91BF91AF9194
:101070009F918F917F916F915F914F913F912F91B0
:101080000F900BBE0F900FBE0F901F9018951F92E0
:101090000F920FB60F9211240BB60F922F933F931E
:1010A0004F935F936F937F938F939F93AF93BF9370
:1010B000EF93FF93E0910202F09103021995FF91E3
:1010C000EF91BF91AF919F918F917F916F915F91C0
:1010D0004F913F912F910F900BBE0F900FBE0F902D
:1010E0001F9018951F920F920FB60F9211240BB6F6
:1010F0000F922F933F934F935F936F937F938F93B1
:101100009F93AF93BF93EF93FF93E0910002F09111
:1011100001021995FF91EF91BF91AF919F918F912E
:101120007F916F915F914F913F912F910F900BBEE7
:101130000F900FBE0F901F9018951F920F920FB631
:101140000F9211240BB60F922F933F934F935F93FF
:101150006F937F938F939F93AF93BF93EF93FF937F
:10116000E0910A02F0910B021995FF91EF91BF9166
:10117000AF919F918F917F916F915F914F913F912F
:101180002F910F900BBE0F900FBE0F901F901895D0
:101190001F920F920FB60F9211240BB60F922F933E
:1011A0003F934F935F936F937F938F939F93AF93EF
:1011B000BF93EF93FF93E0910802F0910902199514
:1011C000FF91EF91BF91AF919F918F917F916F911F
:1011D0005F914F913F912F910F900BBE0F900FBEDB
:1011E0000F901F9018951F920F920FB60F92112417
:1011F0000BB60F922F933F934F935F936F937F9311
:101200008F939F93AF93BF93EF93FF93E091060269
:10121000F09107021995FF91EF91BF91AF919F91C6
:101220008F917F916F915F914F913F912F910F908F
:101230000BBE0F900FBE0F901F9018951F920F922C
:101240000FB60F9211240BB60F922F933F934F932B
:101250005F936F937F938F939F93AF93BF93EF931E
:10126000FF93E0910402F09105021995FF91EF912F
:10127000BF91AF919F918F917F916F915F914F91AE
:101280003F912F910F900BBE0F900FBE0F901F90AC
:101290001895DC01ED91FC910190F081E02D1994FD
:1012A000EF92FF920F931F93CF93DF938C017B01FB
:1012B000C0E0D0E0F701EC0FFD1F6491662361F000
:1012C000D801ED91FC910190F081E02DC8011995B4
:1012D000892B11F02196EECFCE01DF91CF911F9196
:1012E0000F91FF90EF9008956115710579F0FB0162
:1012F00001900020E9F73197AF01461B570BDC0145
:10130000ED91FC910280F381E02D199480E090E052
:1013100008958F929F92AF92BF92EF92FF920F9398
:101320001F93CF93DF93CDB7DEB7A1970FB6F89495
:10133000DEBF0FBECDBF7C01FA01CB0119A2223066
:1013400008F42AE08E010F5D1F4F822E912CA12CF4
:10135000B12CBF01A50194010E94BD32F901CA015F
:10136000015011096A3014F4605D01C0695CD80154
:101370006C93232B242B252B61F7B801C7010E9406
:101380007409A1960FB6F894DEBF0FBECDBFDF91F2
:10139000CF911F910F91FF90EF90BF90AF909F90D2
:1013A0008F9008956AE273E00C9474090F931F9371
:1013B000CF93DF93EC010E9474098C01CE010E944F
:1013C000D209800F911FDF91CF911F910F91089546
:1013D0000F931F93CF93DF93EC010E9450098C0170
:1013E000CE010E94D209800F911FDF91CF911F91F2
:1013F0000F9108951F920F920FB60F9211240BB602
:101400000F922F933F934F935F936F937F938F939D
:101410009F93AF93BF93EF93FF9383E29AE00E9471
:101420001D06FF91EF91BF91AF919F918F917F9199
:101430006F915F914F913F912F910F900BBE0F9045
:101440000FBE0F901F9018951F920F920FB60F921C
:1014500011240BB60F922F933F934F935F936F938B
:101460007F938F939F93AF93BF93EF93FF9383E209
:101470009AE00E94ED12FF91EF91BF91AF919F9181
:101480008F917F916F915F914F913F912F910F902D
:101490000BBE0F900FBE0F901F9018951F920F92CA
:1014A0000FB60F9211240BB60F922F933F934F93C9
:1014B0005F936F937F938F939F93AF93BF93EF93BC
:1014C000FF9380EC9AE00E941D06FF91EF91BF917F
:1014D000AF919F918F917F916F915F914F913F91CC
:1014E0002F910F900BBE0F900FBE0F901F9018956D
:1014F0001F920F920FB60F9211240BB60F922F93DB
:101500003F934F935F936F937F938F939F93AF938B
:10151000BF93EF93FF9380EC9AE00E94ED12FF914E
:10152000EF91BF91AF919F918F917F916F915F915B
:101530004F913F912F910F900BBE0F900FBE0F90C8
:101540001F9018951F920F920FB60F9211240BB691
:101550000F922F933F934F935F936F937F938F934C
:101560009F93AF93BF93EF93FF938DE59BE00E9412
:101570001D06FF91EF91BF91AF919F918F917F9148
:101580006F915F914F913F912F910F900BBE0F90F4
:101590000FBE0F901F9018951F920F920FB60F92CB
:1015A00011240BB60F922F933F934F935F936F933A
:1015B0007F938F939F93AF93BF93EF93FF938DE5AB
:1015C0009BE00E94ED12FF91EF91BF91AF919F912F
:1015D0008F917F916F915F914F913F912F910F90DC
:1015E0000BBE0F900FBE0F901F901895CF93DF93F7
:1015F00091E0909388098823B9F0C091B800D09108
:10160000BA008091BC008A7B8093BC0060E084E1DA
:101610000E94C01B60E085E10E94C01B0E94D307AE
:10162000D093BA00C093B800DF91CF91089585EDB3
:101630008093BC0080911F0A9091200AA091210AFA
:10164000B091220A0796A11DB11D23E0B695A7957A
:10165000979587952A95D1F72091BC0024FF1CC04F
:1016600040911F0A5091200A6091210A7091220A2C
:10167000452B462B472B81F30097A105B10541F07F
:1016800025E32A95F1F700000197A109B109E4CFFC
:1016900080911E0A0C94F60A10921D0A08951F925A
:1016A0000F920FB60F9211240BB60F922F933F9308
:1016B0004F935F936F937F938F939F93AF93BF935A
:1016C000EF93FF938091B900887F803609F49CC026
:1016D00068F5883209F45BC090F4803109F454C095
:1016E00038F4882309F4F6C0883009F44DC0F6C0F8
:1016F000883109F44CC0803209F45DC0EFC08034F9
:1017000009F468C048F4803309F455C0883309F0FF
:10171000E5C08093FB09D8C0803509F44FC08835F7
:1017200009F45DC0883409F0D9C0D6C0883909F4FD
:10173000C7C0A8F4883709F467C038F4883609F4BC
:1017400063C0803709F460C0C9C0883809F4B8C0E4
:10175000803909F45FC0803809F0C0C05BC0803BAD
:1017600009F486C038F4803A09F466C0883A09F46E
:101770007FC0B4C0803C09F4A7C0883C09F4A4C071
:10178000883B09F48AC0AAC08091F80910C09091E2
:10179000FA098091F909981770F5E091FA0981E04A
:1017A0008E0F8093FA09F0E0E952F64F8081809322
:1017B000BB0085EC86C08093FB098EC0E091FA09DE
:1017C00081E08E0F8093FA098091BB00F0E0E9522E
:1017D000F64F80839091FA098091F9096EC0E091EB
:1017E000FA0981E08E0F8093FA098091BB00F0E046
:1017F000E952F64F80838091FC0981116DC081E030
:101800008093F70984EA61C083E080931D0A1092F7
:10181000CF09CFCF8091CF09803208F051C0E0913D
:10182000CF0981E08E0F8093CF098091BB00F0E05B
:10183000E155F64F8083BDCF85EC8093BC001092BC
:101840001D0A8091CF09803230F4E091CF09F0E099
:10185000E155F64F10826091CF0970E0E091AD093B
:10186000F091AE098FEA99E019951092CF0936C030
:1018700084E080931D0A1092AC091092AB09E091AC
:10188000A909F091AA0919958091AB09811105C0A8
:1018900081E08093AB0910928909E091AC0981E065
:1018A0008E0F8093AC09F0E0E757F64F808180936C
:1018B000BB009091AC098091AB09981708F479CFDF
:1018C00085E88093BC000AC085EC8093BC00109230
:1018D0001D0A04C01092FB090E94170BFF91EF91A3
:1018E000BF91AF919F918F917F916F915F914F9138
:1018F0003F912F910F900BBE0F900FBE0F901F9036
:1019000018958F929F92AF92BF92CF92DF92EF92F3
:10191000FF920F931F93CF93DF931091D30911324E
:1019200008F0C2C0062FD091D5090E943E1C6B0161
:101930007C01C0911D0ACC2311F180911F0A909166
:10194000200AA091210AB091220A892B8A2B8B2B85
:1019500081F30E943E1C80901F0A9090200AA09064
:10196000210AB090220ADC01CB018C199D09AE0935
:10197000BF0988169906AA06BB06D8F681C082E080
:1019800080931D0A0093FC098FEF8093FB0910924E
:10199000FA091093F909A8E6B9E0E7EDF9E080E06B
:1019A000181721F09D9191938F5FFACF1092F8094B
:1019B0009091F8098D2F880F892B8093F8098091D9
:1019C000F709813089F51092F7090E943E1C6B01DE
:1019D0007C018091F8098093BB0080911F0A90914F
:1019E000200AA091210AB091220A892B8A2B8B2BE5
:1019F000A9F00E943E1C00911F0A1091200A20911C
:101A0000210A3091220ADC01CB018C199D09AE0913
:101A1000BF09081719072A073B0790F18091BC00FE
:101A200083FDD7CF85EC01C085EE8093BC000E947A
:101A30003E1C6B017C0180911D0A823039F580913A
:101A40001F0A9091200AA091210AB091220A892BA5
:101A50008A2B8B2B81F30E943E1C00911F0A109150
:101A6000200A2091210A3091220ADC01CB018C1935
:101A70009D09AE09BF09081719072A073B07D8F6C1
:101A800080911E0A0E94F60AC5E013C08091FB09EE
:101A90008F3F79F08091FB09803241F08091FB0902
:101AA000803331F0C4E005C0C1E003C0C2E001C032
:101AB000C3E01092D4091092D3091092D6098C2F4A
:101AC000DF91CF911F910F91FF90EF90DF90CF901A
:101AD000BF90AF909F908F9008951092D20910926E
:101AE000D1091092D4091092D3090E94D30783E43C
:101AF00097E09093AA098093A90984E497E09093D2
:101B0000AE098093AD090895CF93DF93EC018B81EB
:101B100081110CC089819A810E946D0D81E08B83B7
:101B2000CE010E94840D982F882391F0888191E046
:101B30009093D6098093D5091092D4091092D309B5
:101B400061E089819A810E94810C91E0811190E08D
:101B5000892FDF91CF9108950F931F93CF93DF9338
:101B6000EC018B012097A9F08E819F81009721F4D1
:101B70000115110549F40DC00115110529F0B80131
:101B80000E94312D892B29F0CE010E94A118EC0171
:101B9000E9CFCE01DF91CF911F910F910895CF92A0
:101BA000DF92EF92FF920F931F93CF93DF93611514
:101BB000710589F16A01EB017C01FC010081118151
:101BC00001151105A9F0F80166817781C617D707BD
:101BD00069F06115710529F0CE010E94A035892BAD
:101BE00029F0C8010E94A1188C01EACFC80115C0D4
:101BF000B601C7010E942718FC01892B39F08481A6
:101C00008F778483D783C683CF0107C060E070E0FD
:101C1000C7010E94AE1880E090E0DF91CF911F9144
:101C20000F91FF90EF90DF90CF900895AF92BF9209
:101C3000CF92DF92EF92FF920F931F93CF93DF9398
:101C40001F921F92CDB7DEB77C015B016A01BA011A
:101C50000E9427188C01892B91F0BA82A982B601C3
:101C6000CE0101960E945A189C01892B41F0F8017F
:101C700094819068948337832683C80106C0B80195
:101C8000C7010E94AE1880E090E00F900F90DF91A6
:101C9000CF911F910F91FF90EF90DF90CF90BF9069
:101CA000AF900895CF92DF92EF92FF920F931F9320
:101CB000CF93DF938C016A017B0177FF12C06DE245
:101CC0000E944909EC0144275527BA014C195D09C6
:101CD0006E097F092AE0C8010E948909C80FD91F2F
:101CE00004C02AE00E948909EC01C8010E94D209BF
:101CF0008C0F9D1FDF91CF911F910F91FF90EF905F
:101D0000DF90CF9008950F931F93CF93DF93EC0153
:101D10008B010E94D71668E67AE08DE59BE00E9471
:101D20005009BE018DE59BE00E94E809BE0180914B
:101D30004113909142130E94E80960E0C8010E949B
:101D40006816C82F61E67AE08DE59BE00E94500995
:101D500067E372E18DE59BE00E94D6098C2FDF914D
:101D6000CF911F910F910895DF92EF92FF920F9301
:101D70001F93CF93DF938C017B01D42EBC0187E3AB
:101D800092E10E94432DEC01892BC1F0C8010E9411
:101D90003A2D8C0F9D1FC0E0CD1549F06CE270E02C
:101DA0000E949535009751F00196CF5FF5CF0E94C4
:101DB0000A2DF7019183808381E001C080E0DF91EB
:101DC000CF911F910F91FF90EF90DF900895FF92B8
:101DD0000F931F93CF93DF93EB018A01F22E64EFF1
:101DE00071E00E94830E4F2DB801CE010E94B40E07
:101DF000C82F882329F060E084EF91E00E946816E4
:101E00008C2FDF91CF911F910F91FF9008951F9319
:101E1000CF93DF93CDB7DEB766970FB6F894DEBFEA
:101E20000FBECDBF21E0AE014F5F5F4F6AEC79E09E
:101E300082ED99E00E94E70E882311F0198101C01C
:101E400010E06BE47AE08DE59BE00E94E809111157
:101E500003C06AE37AE018C0113019F468E27AE04E
:101E600013C0123019F46DE07AE00EC0133019F48B
:101E700066E07AE009C0143019F46EEF79E004C02E
:101E8000153031F46BEE79E08DE59BE00E94E809B6
:101E900064EF71E082EC99E00E94830E809137122A
:101EA00044E150E08B3219F46FE372E102C067E362
:101EB00072E1CE0101960E94A9351D8A60E084EF8F
:101EC00091E00E9468166BED79E08DE59BE00E9441
:101ED0005009BE016F5F7F4F8DE59BE00E94740942
:101EE00066960FB6F894DEBF0FBECDBFDF91CF91DF
:101EF0001F910895CF93DF93EB01BA010E94830EE7
:101F0000882341F0BE0187E392E10E94312D21E058
:101F1000892B09F020E0822FDF91CF910895CF9394
:101F2000DF931F921F92CDB7DEB78091361220E06B
:101F3000AE014F5F5F4F833081F46BEA79E086EB4F
:101F400099E00E94E70E882331F089819A81892BDC
:101F500049F081E018C080E016C064E979E08FE9BB
:101F600099E0EFCF8091361260913F13709140134A
:101F700044EF51E0833019F487E899E002C08AE722
:101F800099E00E947A0F0F900F90DF91CF91089502
:101F900090E0FC01EC5CF64F2491FC01E251F74F1C
:101FA0008491882399F090E0880F991FFC01EC52EE
:101FB000F74FA591B491FC01E654F74F85919491A8
:101FC0008FB7F894EC91E22BEC938FBF08958F922A
:101FD0009F92AF92BF92CF92DF92EF92FF920F93B8
:101FE0001F93CF93DF93CDB7DEB7AA970FB6F894C0
:101FF000DEBF0FBECDBFEF8EF8A209A31AA32BA39D
:102000003CA34DA35EA36FA378A789A79AA78F8C43
:1020100098A0A9A0BAA08E01005F1F4F24E043E062
:10202000C501B4010E94E62CCBA0DCA0EDA0FEA06F
:102030000F50110924E043E0C701B6010E94E62CCD
:102040004CE15CE068EB78E084E29CE00E94F717EA
:10205000FC01892B41F0948190789C60948380826C
:102060009182A282B3824CE15CE066EB78E084E28C
:102070009CE00E94F717FC01892B41F09481907835
:102080009C609483C082D182E282F382AA960FB6CA
:10209000F894DEBF0FBECDBFDF91CF911F910F919E
:1020A000FF90EF90DF90CF90BF90AF909F908F9078
:1020B0000895CF92DF92EF92FF920F931F93CF93E9
:1020C000DF938C016A017B010E94D7166FEA78E0EA
:1020D0008DE59BE00E945009B8018DE59BE00E94D0
:1020E0005009B701A6018DE59BE00E94520EC1E4A4
:1020F000D3E1B801888199810E945009B701A601F6
:10210000888199810E94520E60E084EF91E00E94E4
:102110006816C82F68EA78E08DE59BE00E945009B8
:1021200067E372E18DE59BE00E94D6098C2FDF9179
:10213000CF911F910F91FF90EF90DF90CF90089576
:10214000EF92FF920F931F93CF938B0190913612D2
:102150002CEF290F223028F464EF71E08CE998E02D
:102160000FC0923049F4482F50E060E070E080E901
:1021700098E00E94591006C064EF71E085E898E08D
:102180000E94830E60E878E087E392E10E94432D8D
:10219000009721F4F801108280E020C0BC016A5F42
:1021A0007F4FFB0101900020E9F73197E61BF70B09
:1021B000E737F10514F0CE2F01C0C7E7EC2EF12C64
:1021C000A701C8010E94A935F801EE0DFF1D10827C
:1021D00060E084EF91E00E9468168C2FCF911F91F0
:1021E0000F91FF90EF900895CF93DF938091361277
:1021F0008330F1F464EF71E085E798E00E94830E8C
:102200006AE678E087E392E10E94432DEC01892B96
:1022100011F48FEF43C060E084EF91E00E946816F4
:102220008A85803399F18C858133F1F483E036C05F
:10223000845064EF71E08230C8F084E498E00E943A
:10224000830E61E378E087E392E10E94432DEC0185
:10225000892BF9F260E084EF91E00E9468168A8988
:102260008535A1F08E34A1F481E018C08EE598E0A8
:102270000E94830E63E578E087E392E10E94432D9C
:10228000009739F2FC0182858C3281F680E006C02D
:10229000823319F08333D1F7C9CF82E0DF91CF9138
:1022A0000895CF93DF93EC0160E080E197E20E9414
:1022B00068166AE278E08DE59BE00E94500967E3CA
:1022C00072E18DE59BE00E94D609BE0187E392E1B1
:1022D0000E94312D21E0892B09F020E0822FDF912F
:1022E000CF9108950F931F93CF93DF93EC0162E298
:1022F0000E9449098C01CE010E94D209800F911FD2
:10230000DF91CF911F910F9108951F93CF93DF938A
:10231000EC01162F0E94D71663E278E08DE59BE072
:102320000E94500965E178E08DE59BE00E9450092C
:10233000BE018DE59BE00E9450098DE59BE00E9467
:10234000721167E078E080914113909142130E94EE
:102350005009BE0180914113909142130E9450098F
:102360008091411390914213112319F060E078E0BD
:1023700002C064E078E0DF91CF911F910C94500986
:102380000F931F93CF93DF938B0161E00E94851120
:10239000C1E4D3E1B801888199810E945009888104
:1023A00099810E94721180913F1390914013DF91A7
:1023B000CF911F910F910C945111CF93DF9360E057
:1023C0000E948511C1E4D3E12AE041E050E060E0E1
:1023D00070E0888199810E948909888199810E9491
:1023E000D20980913F1390914013DF91CF910C94CB
:1023F0005111EF92FF920F931F93CF93DF937C01C4
:102400008B010E94D71669EF77E08DE59BE00E9473
:102410005009B7018DE59BE00E94500962E28DE50D
:102420009BE00E944909B8018DE59BE00E9450099C
:102430008DE59BE00E947211C1E4D3E1B701888170
:1024400099810E94500962E2888199810E9449091C
:10245000B801888199810E945009888199810E94E0
:10246000721160E080E197E20E946816C82F62EF67
:1024700077E08DE59BE00E94500967E372E18DE50E
:102480009BE00E94D6098C2FDF91CF911F910F9175
:10249000FF90EF9008958F929F92AF92BF92CF924C
:1024A000DF92EF92FF920F931F93CF93DF931F92D0
:1024B0001F92CDB7DEB75C016B0160911A0C709171
:1024C0001B0C0091180C1091190C0115110521F02D
:1024D000C8010E9427188C01E0901A0CF0901B0C88
:1024E0000115110549F0F8018481807880628483A8
:1024F0001182108213821282F50180809180A28065
:10250000B3800115110589F0A7016DE273E0C801E0
:102510000E94CF0DFC01892B41F0948190789C6042
:10252000948380829182A282B38201151105F1F019
:10253000A7016FE273E0C8010E94CF0D8C01892BC7
:10254000A9F0DA82C982B701CE0101960E945A1819
:102550009C01F801948190782115310529F095604E
:1025600094833183208302C0F801948381E00F902B
:102570000F90DF91CF911F910F91FF90EF90DF901F
:10258000CF90BF90AF909F908F900895FC012081D5
:102590003181322723273227318320830895AC01EC
:1025A000FC018FEF9FEF70E09F01241B350B261776
:1025B000370790F42191822728E0DC01B695A79592
:1025C00080FF06C0CD0131E0832730EA932701C0A8
:1025D000CD01215091F7E8CF0895FC01A089B18980
:1025E0008C91A689B78982FD0FC09C91818D8F5FE8
:1025F0008F73228D821749F0218DDF01A20FB11D4B
:102600005D969C93818F08958C910895682F8AEF31
:102610009BE00C949E070F931F93CF93DF93EC01E5
:102620008A0189819A81DC01ED91FC910280F3811C
:10263000E02D19950817190739F461E089819A810D
:102640000E94810C91E0811190E0892FDF91CF9160
:102650001F910F9108958F929F92AF92BF92CF9248
:10266000DF92EF92FF920F931F93CF93DF93F82E99
:10267000D62FE42E613208F0BBC00E943E1C4B01F5
:102680005C01C0911D0ACC2331F180911F0A909109
:10269000200AA091210AB091220A892B8A2B8B2B28
:1026A00081F30E943E1C00911F0A1091200A209184
:1026B000210A3091220ADC01CB0188199909AA0963
:1026C000BB09081719072A073B07D8F680911E0A8D
:1026D0000E94F60A8DC081E080931D0AE092FC09F9
:1026E0009FEF9093FB091092FA099D0F9093F909BF
:1026F0008093F8099091F8098F2D880F892B80938A
:10270000F8098091F709813089F51092F7090E9444
:102710003E1C6B017C018091F8098093BB00809185
:102720001F0A9091200AA091210AB091220A892BB8
:102730008A2B8B2BA9F00E943E1C80901F0A909040
:10274000200AA090210AB090220ADC01CB018C194A
:102750009D09AE09BF0988169906AA06BB0690F125
:102760008091BC0083FDD7CF85EC01C085EE8093BE
:10277000BC000E943E1C6B017C0180911D0A8130CF
:1027800031F580911F0A9091200AA091210AB09101
:10279000220A892B8A2B8B2B81F30E943E1C80906E
:1027A0001F0A9090200AA090210AB090220ADC0112
:1027B000CB018C199D09AE09BF0988169906AA0696
:1027C000BB06D8F680911E0A0E94F60A12C08091BC
:1027D000FA098D1710F4D091FA09E7EDF9E0ADEFA1
:1027E000B9E0C0E0CD1729F081918D93CF5FFACF8A
:1027F000C0E08C2FDF91CF911F910F91FF90EF9050
:10280000DF90CF90BF90AF909F908F900895CF931F
:10281000DF9380930D0C8091060C9091070CDC01E6
:1028200014962D913C911597232B81F02C9131E03A
:102830003093D6092093D5091092D4091092D30968
:1028400041E050E06DE07CE00E940B13C091060C6B
:10285000D091070C8C819D81029708F141E062E0E4
:1028600088810E942B131092D2098093D109823063
:10287000B1F489819A81DC01ED91FC910284F385A8
:10288000E02D199580930D0C89819A81DC01ED91E1
:10289000FC910284F385E02D199580930E0C8091B4
:1028A0000D0C90910E0C982789279827DF91CF91D6
:1028B0000895EF92FF920F931F93CF93DF931F9290
:1028C000CDB7DEB77C01162FBE016F5F7F4F8EE064
:1028D0000E949D1B811102C080E088C0812F8370FF
:1028E000833009F41E7F81E08093D60988E68093C7
:1028F000D5091092D4091092D30910FF18C087E0AF
:1029000090E00E940613F70180816AE00E949D32E8
:10291000292FF0E18F9FC0011124822B912F9078F5
:10292000892B90E00E9406138981856006C08BE0A8
:1029300090E00E940613898186608983110FF70158
:1029400081810AE0602F0E949D32292FF0E18F9F44
:10295000C0011124822B912F9078892B90E00E9446
:102960000613110FF7018281602F0E949D32292FDB
:10297000F0E18F9FC0011124822B912F9078892B39
:1029800090E00E940613110F412F4078F70116FFC7
:102990000CC08381602F0E949D32F0E18F9F9001D7
:1029A0001124892F822B80640AC08481602F0E94A9
:1029B0009D32292FF0E18F9FC0011124822B842B9F
:1029C00090E00E94061361E08AEF9BE00E94810C78
:1029D000811182CF69818EE00E946D1B81117CCFB5
:1029E000110F110F812F8295869587700F90DF91BF
:1029F000CF911F910F91FF90EF900895CF93DF93A8
:102A00001F921F92CDB7DEB71A821982BE016F5F87
:102A10007F4F8FE00E949D1B6981862F837021F07C
:102A20006C7F8FE00E946D1B8A81882369F0BE0154
:102A30006E5F7F4F8EE00E949D1B882329F06A8184
:102A40006F778EE00E946D1B898183700F900F90CD
:102A5000DF91CF910895BF92CF92DF92EF92FF92D4
:102A60000F931F93CF93DF93CDB7DEB727970FB6A2
:102A7000F894DEBF0FBECDBF80E00E94891B41E00D
:102A800067E088E60E942B131092D2098093D10947
:102A9000873009F046C08AEF9BE00E9455070E94EC
:102AA000B41BB82E8AEF9BE00E9455070E94B41B0E
:102AB000C82E8AEF9BE00E945507082F86FF0BC0A7
:102AC0008F710E94B41B05FD02C09CE001C090E024
:102AD000182F190F04C08F730E94B41B182F8AEF90
:102AE0009BE00E9455070E94B41BD82E8AEF9BE002
:102AF0000E9455070E94B41BE82E8AEF9BE00E94BB
:102B0000550787FD02C000E001C004E68F770E94F0
:102B1000B41BF82E8AEF9BE00E9455070E94B41B5D
:102B2000080F2B2D3C2D412F5D2DB701802F90E0FC
:102B300027960FB6F894DEBF0FBECDBFDF91CF91C1
:102B40001F910F91FF90EF90DF90CF90BF9008956D
:102B5000CF93DF93CDB7DEB727970FB6F894DEBFDC
:102B60000FBECDBF0E942B1529833A834B835C8314
:102B70008F838FE18D8382E08E8362E0CE010196A8
:102B80000E94591461E0CE0101960E9459140E94DE
:102B9000FE1481E027960FB6F894DEBF0FBECDBFBE
:102BA000DF91CF910895CF92DF92EF92FF92CF9372
:102BB000DF93EC016A017B01E889F98982E0808377
:102BC0004115514E61057105B1F060E079E08DE38A
:102BD00090E0A70196010E94BD32DA01C901019778
:102BE000A109B109B695A795979587959C012115DF
:102BF00080E13807A8F0E889F989108260E874E874
:102C00008EE190E0A70196010E94BD32DA01C90170
:102C10000197A109B109B695A795979587959C014C
:102C2000EC85FD853083EE85FF852083188EEC8949
:102C3000FD8986E08083EA89FB89808180618083C9
:102C4000EA89FB89808188608083EA89FB898081A9
:102C500080688083EA89FB8980818F7D8083DF9112
:102C6000CF91FF90EF90DF90CF90089560E08EE1DC
:102C70000E94C01B60ED77E080E090E00E94631C42
:102C800061E08EE10E94C01B6CED75E080E090E099
:102C90000E94631C60E08EE10E94C01B68E873E143
:102CA00080E090E00E94631C61E08EE10E94C01B06
:102CB0006CED75E080E090E00E94631C60E08EE1C6
:102CC0000E94C01B60EC74ED81E090E00C94631CEA
:102CD000FF920F931F93CF93DF93EC01F62E209773
:102CE00091F404EF11E0C0E0D0E030C080914113D6
:102CF00090914213DC01ED91FC910284F385E02D6B
:102D000019958A3071F38091411390914213DC013F
:102D1000ED91FC910084F185E02D1995892B31F717
:102D20002197F9F261E070E080E090E00E94631C7E
:102D3000D6CF8091411390914213DC01ED91FC912B
:102D40000284F385E02D19958D3071F48091411343
:102D500090914213DC01ED91FC910084F185E02D0E
:102D60001995892B31F70CC08A3021F4209771F323
:102D7000FF2091F0FE01E75DFD4E86872196E6CFAC
:102D80000150110949F061E070E080E090E00E949C
:102D9000631CCE3FD105D0F2FE01E75DFD4E1686E5
:102DA0008C2FDF91CF911F910F91FF900895CF93BA
:102DB000DF9380E090E0EC0121968897A8F489E207
:102DC00092E10E940F07892B39F089E292E10E947B
:102DD000F706C0E0D0E0F3CF61E070E080E090E083
:102DE0000E94631CCE01E7CFDF91CF910895FC01D3
:102DF000A281B38180819181A817B90758F4CD01D0
:102E00000196938382836C93A281B3811C9281E0AB
:102E100090E002C080E090E024813581820F931F12
:102E2000958384830895EF92FF920F931F93CF931E
:102E3000DF93EC017B0162E20E94F7168701F80143
:102E400061918F01662379F0E1E3F3E0F280FF20E6
:102E5000A1F0329681816813F9CF6CE5CE010E9412
:102E6000F7166F2D0AC062E2CE01DF91CF911F915C
:102E70000F91FF90EF900C94F716CE010E94F71679
:102E8000DECFCF93DF93DC0112962D913C91139707
:102E9000FB01460F571F1296CD91DC9113978D9130
:102EA0009C911197C817D90760F4E417F50749F00A
:102EB000CE01019613969C938E93129781918883ED
:102EC000EACF188212968D919C911397821B930BD7
:102ED000DF91CF910895EF92FF920F931F93CF93BD
:102EE000DF93CDB7DEB766970FB6F894DEBF0FBE9F
:102EF000CDBF8C01CB01FE0177969F014AE0E42E05
:102F0000F12CB7010E94A932805D8293CB0100971A
:102F1000C1F7A9014E1B5F0BBF01C8010E944117F9
:102F2000F80124813581820F931F958384836696EF
:102F30000FB6F894DEBF0FBECDBFDF91CF911F91CA
:102F40000F91FF90EF9008958F929F92AF92BF9252
:102F5000CF92DF92EF92FF920F931F93CF93DF9365
:102F6000CDB7DEB766970FB6F894DEBF0FBECDBF04
:102F70007C018E01095E1F4F68018AE0882E912C2A
:102F8000A12CB12CCB01BA01A50194010E94BD3244
:102F9000942F852F605DF80162938F01A901692F3D
:102FA000782F411551056105710561F7A6014E1B8A
:102FB0005F0BBF01C7010E944117F70124813581D2
:102FC000820F931F9583848366960FB6F894DEBFB5
:102FD0000FBECDBFDF91CF911F910F91FF90EF906A
:102FE000DF90CF90BF90AF909F908F900895EF9219
:102FF000FF920F931F93CF93DF93FC018481982F4F
:103000009F7739F4807880628483118210821382E2
:103010001282848185FF12C06115710579F07A01F1
:103020008B01EF01808191810E94AC0D009741F4EA
:10303000A701B801CE010E94160E02C080E090E008
:10304000DF91CF911F910F91FF90EF900895CF9353
:10305000DF93DC01EB01EC81FD818A819B81089685
:10306000E817F90718F480E090E021C03897FD8355
:10307000EC833097C1F31296CD91DC911397209792
:1030800051F0CF018C1B9D0B23E0959587952A95D8
:10309000E1F78D8303C01196FC93EE931396FC9396
:1030A000EE9312971582148217821682CF01DF9158
:1030B000CF910895EF92FF920F931F93CF93DF93D9
:1030C000FC01E080F180E114F104D9F08B01C7012B
:1030D0000E943A2DAC014F5F5F4FF801C281D3814E
:1030E000CE01840F951F248135812817390748F0B8
:1030F00093838283209739F0B701CE010E94282D57
:1031000002C0C0E0D0E0CE01DF91CF911F910F91BE
:10311000FF90EF900895CF93DF93EC01FB010190B6
:103120000020E9F73197AF01461B570B0E9441176A
:103130002C813D81820F931F9D838C83DF91CF91E2
:103140000895FC012581222331F0F8E02F02800D43
:10315000911D1124089580E090E00895EF92FF9270
:103160000F931F93CF93DF936115710561F17B017D
:103170008C01FC01C081D181209741F0CE010E94D9
:10318000A118E816F90621F0EC01F6CFC0E0D0E076
:10319000C7010E94A118209771F0009749F09C0187
:1031A0002C1B3D0B43E0359527954A95E1F701C06F
:1031B00020E02D8303C0F80191838083892B19F4CB
:1031C000F801D383C283DF91CF911F910F91FF90BC
:1031D000EF9008952F923F924F925F926F927F925D
:1031E0008F929F92AF92BF92CF92DF92EF92FF9217
:1031F0000F931F93CF93DF93CDB7DEB766970FB6CC
:10320000F894DEBF0FBECDBF7C018B01DC011496AC
:103210008C918F77863009F4AFC068F4823008F45F
:10322000BAC0843008F48BC0D7016D917C91C8017D
:103230000E94131739C28C3009F190F4883009F4D8
:1032400092C08A3009F0A7C0F701C080D180E28027
:10325000F3806DE2C8010E94F716B701A60188C08D
:10326000803209F444C0803409F095C06BE5C80190
:103270000E94F716F701E080F18034C0F70140802A
:10328000518062807380A3019201C301B2010E9448
:103290005C31811180C020E030E0A901C301B2019E
:1032A0000E945C31882309F47CC0A3019201C30110
:1032B000B2010E94FC329B01AC01C301B2010E9429
:1032C0005C3181116EC067C0B801C7010E94EA1865
:1032D000C7010E94A1187C01892B39F06CE2C8015A
:1032E0000E94F716E114F10479F76DE524C06BE74D
:1032F000C8010E94F716D701ED90FC90E114F1048B
:10330000C9F0F70166817781C8010E9413176AE34B
:10331000C8010E94F716B801C7010E94EA18C70148
:103320000E94A1187C01892B29F06CE2C8010E943F
:10333000F716E4CF6DE7C8010E94F716B5C1F70193
:103340004281538160817181C8010E944117D80177
:1033500014962D913C911597820F931F15969C936F
:103360008E931497A1C1D7014D915D916D917C9180
:10337000C8010E94A41798C1F70180819181A281A0
:10338000B381892B8A2B8B2B19F065E473E005C080
:103390006AE473E002C061E073E0C8010E948B1828
:1033A00083C120E030E0A901C301B2010E945C3179
:1033B00087FF08C06DE2C8010E94F71677FA709483
:1033C00077F8709420E836E948E15BE4C301B20184
:1033D0000E94613487FD33C068E9C62E62E0D62EB4
:1033E00078E6A72E72E0B72EE0E2EE2EF12C212C2B
:1033F000312CA3019201D6019E918E917E916E9106
:103400006D010E945C3118166CF0F5012489358934
:1034100046895789C301B2010E94C2312B013C0188
:103420002E0C3F1CF594E794F4E0AF1AB10880E845
:10343000C81682E0D806E9F6BB24BA9407C030E289
:10344000E32EF12C45E0B42E212C312C20E030E08D
:10345000A901C301B2010E946134181694F52CEA47
:1034600035EC47E257E3C301B2010E945C31181604
:1034700044F19FEFB91629F1AB2DB4E0AB02600126
:103480001124F601E05BFD4FA3019201608171817F
:10349000828193810E94613418167CF4F601E05811
:1034A000FD4F2081318142815381C301B2010E94CD
:1034B000C2312B013C012E183F08F594E794BA94D1
:1034C000D8CFC301B2010E94DA334B015C016B011A
:1034D0007C01E6E0EE8B80E492E4AFE0B0E08A8B22
:1034E0009B8BAC8BBD8B9E89998BA92FA150AE8BEA
:1034F000BAE0CB16D104E104F104C8F06A897B89F3
:103500008C899D892AE030E040E050E00E94BD3285
:103510002A8B3B8B4C8B5D8BC701B6012AE030E0D8
:1035200040E050E00E94BD3269017A01DCCFC50164
:10353000B4010E9461319B01AC01C301B2010E9440
:10354000FB326B017C016A897B898C899D890E9491
:1035500061319B01AC01C701B6010E94C2312B0150
:103560003C010E94DA336B017C010E9461319B01B6
:10357000AC01C301B2010E94FB329B01AC010E946D
:10358000FC320E94DA33C60ED71EE81EF91E8A8965
:103590009B89AC89BD89C816D906EA06FB06E0F00E
:1035A0009FEF891A990AA90AB90A2114310489F0EE
:1035B000AAE08A169104A104B10458F0BFEF2B1AB7
:1035C0003B0AC12CD12C7601812C912C540183947F
:1035D00003C0C12CD12C76018AE0482E512C612CDD
:1035E000712CC701B601A30192010E94BD32672B65
:1035F000682B692B41F4E9891E162CF469017A01C4
:10360000E150E98BEECFB501A401C8010E94A417D7
:10361000F989FF2391F15F2E3E0181E1680E711C53
:1036200053015A949FEF591679F0C701B6012AE069
:1036300030E040E050E00E94BD32605DD3016E9307
:103640003D0169017A01EDCFB501B9896B1B7109A3
:103650008EE2FB018293BF01A5014E1B5F0BC801E7
:103660000E944117D80114962D913C911597820F15
:10367000931F15969C938E93149737FE0AC062E4AD
:1036800073E0C8010E948B186627772762197309B7
:1036900008C02114310441F065E6C8010E94F71604
:1036A000B101C8010E946B1766960FB6F894DEBF91
:1036B0000FBECDBFDF91CF911F910F91FF90EF9083
:1036C000DF90CF90BF90AF909F908F907F906F9042
:1036D0005F904F903F902F900895CF93C62F91E029
:1036E0009093D60998E69093D5091092D409109238
:1036F000D309682F8AEF9BE00E949E076C2F8AEF08
:103700009BE00E949E0761E08AEF9BE0CF910C94C2
:10371000810C91E09093D60998E69093D509109288
:10372000D4091092D309682F8AEF9BE00E949E076C
:1037300061E08AEF9BE00C94810CCF93DF93EB0167
:103740000E94891B41E061E088E60E942B131092E1
:10375000D2098093D1098AEF9BE00E9455078883A4
:1037600081E0DF91CF910895982F96959695969543
:103770009E71292F220F220F920F8F70890F0895AB
:10378000362F90E0FC01E158F54F4491FC01EC5CD0
:10379000F64F2491FC01E251F74F9491992309F4DB
:1037A0006CC0442309F455C050E0FA013197E2316E
:1037B000F10508F04EC08827EE58FF4F8F4F0C944C
:1037C000DF32809180008F7707C0809180008F7DED
:1037D00003C080918000877F809380003AC084B5C9
:1037E0008F7702C084B58F7D84BD33C08091B000D7
:1037F0008F7703C08091B0008F7D8093B00029C087
:10380000809190008F7707C0809190008F7D03C0DA
:1038100080919000877F809390001BC08091A000D2
:103820008F7707C08091A0008F7D03C08091A0009A
:10383000877F8093A0000DC0809120018F7707C003
:10384000809120018F7D03C080912001877F80932C
:103850002001E92FF0E0EE0FFF1FE654F74FA5918E
:10386000B4919FB7F894311104C08C91209528230E
:1038700002C0EC912E2B2C939FBF08953FB7F89474
:103880008091481390914913A0914A13B0914B1322
:1038900026B5A89B05C02F3F19F00196A11DB11DAB
:1038A0003FBFBA2FA92F982F8827820F911DA11DE6
:1038B000B11DBC01CD0142E0660F771F881F991F23
:1038C0004A95D1F708958F929F92AF92BF92CF926F
:1038D000DF92EF92FF926B017C010E943E1C4B0134
:1038E0005C01C114D104E104F104F1F00E943E1C1A
:1038F000DC01CB0188199909AA09BB09883E9340CC
:10390000A105B10570F321E0C21AD108E108F10860
:1039100088EE880E83E0981EA11CB11CC114D1044E
:10392000E104F10419F7DDCFFF90EF90DF90CF9025
:10393000BF90AF909F908F9008951F920F920FB6F7
:103940000F9211242F933F938F939F93AF93BF9325
:103950008091431390914413A0914513B091461365
:103960003091471323E0230F2D3720F40196A11D3A
:10397000B11D05C026E8230F0296A11DB11D20939D
:1039800047138093431390934413A0934513B0932C
:1039900046138091481390914913A0914A13B09116
:1039A0004B130196A11DB11D8093481390934913A9
:1039B000A0934A13B0934B13BF91AF919F918F91F6
:1039C0003F912F910F900FBE0F901F901895CF939E
:1039D000DF93CDB7DEB7CD5BD1090FB6F894DEBF6C
:1039E0000FBECDBF789484B5826084BD84B58160FC
:1039F00084BD85B5826085BD85B5816085BD8091BA
:103A00006E00816080936E00109281008091810031
:103A10008260809381008091810081608093810029
:103A2000809180008160809380008091B1008460EB
:103A30008093B1008091B00081608093B00080914C
:103A400091008260809391008091910081608093C9
:103A50009100809190008160809390008091A100FE
:103A600082608093A1008091A10081608093A10079
:103A70008091A00081608093A000809121018260EC
:103A800080932101809121018160809321018091A7
:103A9000200181608093200180917A00846080936E
:103AA0007A0080917A00826080937A0080917A0017
:103AB000816080937A0080917A00806880937A0098
:103AC0001092C10040E052EC61E070E08DE59BE0B7
:103AD0000E94D31540E855E260E070E083E29AE08E
:103AE0000E94D3158EE10E94C80F60E08EE10E9413
:103AF000C01B8DE00E94C80F8AEF9BE00E946D0DF5
:103B000060E08EE00E946D1B0E94A8150E94A8151F
:103B10000E942B1529833A834B835C836D837E83BC
:103B20008F8362E7CE0101960E94591410920A0C0D
:103B30001092090C86E090E00E9466348C0188E4C3
:103B4000D8018C938AEF9BE012969C938E931197E9
:103B500013961C92139780E290E015969C938E9397
:103B600014971093070C0093060C8AEF9BE00E94B9
:103B70006D0D81E0F8018383C8010E94840D77E216
:103B8000E72E74E0F72EEFE1CE2EE4E0DE2EF3E137
:103B9000AF2EF4E0BF2EA6E09A2EB5E08B2E14E0F7
:103BA000712E02E0602E83E0582E0E943616F092AD
:103BB0003713E0923613D0923913C0923813B09273
:103BC0003B13A0923A1340E05BE460E070E080ECCD
:103BD0009AE00E94D31580EC9AE090934213809370
:103BE0004113809135120E94C80F61E08091351217
:103BF0000E94C01B6AE070E080E090E00E94631CBD
:103C000060E0809135120E94C01B64E670E080E0A5
:103C100090E00E94631C61E0809135120E94C01BFD
:103C20006CED73E08DE59BE00E94E8090EE010E08A
:103C30008091411390914213DC01ED91FC9100843D
:103C4000F185E02D1995892B61F0809141139091B8
:103C50004213DC01ED91FC910284F385E02D19956E
:103C6000E7CF60913F137091401344EF51E089ED2D
:103C700093E00E947A0F811163C08091411390916B
:103C80004213DC01ED91FC910084F185E02D199542
:103C9000892B61F08091411390914213DC01ED91E9
:103CA000FC910284F385E02D1995E7CF44EF51E0B4
:103CB00063ED73E086ED93E00E947A0F811140C0BE
:103CC00064EF71E080E090E00E94631C01501109F4
:103CD00009F0AECF61EA73E08DE59BE00E94E80950
:103CE00060913F137091401344EF51E08EE993E0EF
:103CF0000E947A0F64E670E080E090E00E94631C0E
:103D000060913F137091401344EF51E08BE993E0D1
:103D10000E947A0F64E670E080E090E00E94631CED
:103D200060913F137091401344EF51E088E993E0B4
:103D30000E947A0F64E670E080E090E00E94631CCD
:103D400060913F137091401344EF51E083E993E099
:103D50000E947A0F64E670E080E090E00E94631CAD
:103D600060913F137091401344EF51E08EE893E06F
:103D70000E947A0F882311F40C941F2B60913F133B
:103D80007091401344EF51E084E893E00E947A0F71
:103D900064E670E080E090E00E94631C0E94D71609
:103DA0006DE773E08DE59BE00E94500968E972E0E1
:103DB0008DE59BE00E94D60968E972E0809141138D
:103DC000909142130E94D60961E084EF91E00E9435
:103DD000681666E773E08DE59BE00E94500967E393
:103DE00072E18DE59BE00E94D6096BE673E087E304
:103DF00092E10E94432D892B19F0509236122CC06B
:103E000060E673E087E392E10E94432D892B19F06D
:103E10006092361221C065E573E087E392E10E946B
:103E2000432D892B21F081E08093361215C065E483
:103E300073E087E392E10E94432D892B19F0709281
:103E400036120AC065E373E087E392E10E94432DD6
:103E5000892B11F08092361280913612813079F5DB
:103E60006EE273E08DE59BE00E9450096CE972E020
:103E70008DE59BE00E94D6096CE972E080914113C8
:103E8000909142130E94D60961E084EF91E00E9474
:103E9000681667E273E08DE59BE00E94500967E3D6
:103EA00072E18DE59BE00E94D6096FE173E087E344
:103EB00092E10E94432D892B11F09092361260916D
:103EC0003F137091401344EF51E088E093E00E946B
:103ED0007A0F69EF72E08DE59BE00E94E8090E948D
:103EE000070F0E948F0FCA54DF4F8883C65BD040F4
:103EF000811104C069EE72E00C94212B6DED72E02B
:103F00008DE59BE00E94E809E5EAF0E0EC0FFD1F7B
:103F10003296CC54DF4FF983E883C45BD04021E96B
:103F200030E02C0F3D1F285F3F4FC754DF4F3983D0
:103F30002883C95BD04085E890E08C0F9D1F0496D4
:103F4000C554DF4F99838883CB5BD0400E94FE1419
:103F500081FD02C00C941B2B0E942B15209361093C
:103F60003093620940936309509364096093650933
:103F70007093660980936709832F65E00E949D32E4
:103F800091110C941B2B80911C0C90911D0C909303
:103F90001F0C80931E0C8091220C9091230C909307
:103FA000210C8093200C8091280C80788093280C21
:103FB0004CE15CE06EE374E084E29CE00E94F71761
:103FC000009781F0DC0114962C91149720782064DE
:103FD00014962C93149711961C921E9213961C9271
:103FE0001E9212979093150C8093140C2CE13CE0D8
:103FF0003093170C2093160C009719F0B9010E940A
:1040000027184091160C5091170C009749F0FC01AD
:1040100024812078206224831182108213821282EC
:104020009093110C8093100C5093130C4093120C2E
:10403000009779F063EA72E00E94CF0DFC01892BB2
:1040400041F0948190789460948385EA92E0918322
:104050008083E090120CF090130C0091100C1091E2
:10406000110C0115110581F06CE374E0D8018D91FC
:104070009C910E94AC0D009731F4A7016CE374E0B1
:10408000C8010E94160E8C012091120C3091130C65
:104090000115110549F0F8018481807880648483DA
:1040A00011821082138212821093190C0093180C43
:1040B00030931B0C20931A0C909162098E010F5FB4
:1040C0001F4F8091630940916509309166092091E5
:1040D00067099A30F0F48A30E0F41F929F931F92A0
:1040E0008F931F924F931F923F931F922F938BEAB0
:1040F00092E09F938F931F930F930E94B8352DB733
:104100003EB7225F3F4F0FB6F8943EBF0FBE2DBFA4
:1041100054C08A30D8F41F929F931F928F931F929E
:104120004F931F923F931F922F9381EC92E09F93A6
:104130008F931F930F930E94B8358DB79EB70E963D
:104140000FB6F8949EBF0FBE8DBF37C09A30D8F41B
:104150001F929F931F928F931F924F931F923F9393
:104160001F922F9386ED92E09F938F931F930F934F
:104170000E94B835ADB7BEB71E960FB6F894BEBF55
:104180000FBEADBF1AC01F929F931F928F931F92B5
:104190004F931F923F931F922F938BEE92E09F932A
:1041A0008F931F930F930E94B835EDB7FEB73E96DD
:1041B0000FB6F894FEBF0FBEEDBF4CE15CE060E4CB
:1041C00074E084E29CE00E94F7177C01892B79F16E
:1041D000F80101900020E9F7AF01401B510BC0909E
:1041E0001E0CD0901F0CC601840F951F2091200C2F
:1041F0003091210C2817390710F40C94292B909337
:104200001F0C80931E0CC114D10411F40C94292BA3
:10421000B801C6010E948C35D70114968C91149771
:104220008078856014968C931497CD92DC920E94CE
:104230008F0F0E94F41082300CF041C06AE574E0E8
:104240008DE59BE00E94500962E474E08DE59BE0FF
:104250000E94500987E89AECAEECB2EC80935003D0
:1042600090935103A0935203B093530385E294E9D2
:10427000A4EAB1E48093540390935503A0935603AA
:10428000B093570380E090EAADEBB4E48093580319
:1042900090935903A0935A03B0935B0367E8E62E0B
:1042A000F0905103009152031091530325E2309195
:1042B0005503409156035091570360E067C2B8011F
:1042C00080E20E94A010882309F4B8CF80913612B2
:1042D0009CEF980F6FEF72E0923008F0CEC0C801EB
:1042E0000E945D2D6C01892B09F4A8CF6FEF72E05D
:1042F00080E090E00E945D2DC055DF4F9983888358
:10430000C05BD040892B09F499CF6FEF72E080E059
:1043100090E00E945D2D7C01892B09F48FCF6FEF17
:1043200072E080E090E00E945D2DCE54DF4F9983D3
:104330008883C25BD040892B09F480CF6FEF72E095
:1043400080E090E00E945D2D6FEF72E080E090E0F1
:104350000E945D2D6FEF72E080E090E00E945D2D85
:10436000009709F46BCF0E94062D162F772E082F89
:10437000692E6FEF72E080E090E00E945D2D009763
:1043800009F45CCF0E94062D6FEF72E080E090E0B0
:104390000E945D2D009709F451CF0E94062DC601A1
:1043A0000E94062D4B015C01C7010E94062D1B01D6
:1043B0002C0120E030E048EC52E4C501B4010E9439
:1043C00068330E9409346B017C0120E030E048EC46
:1043D00052E40E94C2319B01AC01C501B4010E94AC
:1043E000FB3220E030E040E752E40E946833A7014E
:1043F00096010E94FC326B017C01C055DF4FE881C1
:10440000F981C05BD0408081833521F4F7FAF094C4
:10441000F7F8F09420E030E048EC52E4C201B1013A
:104420000E9468330E9409344B015C0120E030E0B7
:1044300048EC52E40E94C2319B01AC01C201B101BF
:104440000E94FB3220E030E040E752E40E946833F3
:10445000A50194010E94FC324B015C01CE54DF4F58
:10446000A881B981C25BD0408C91873509F05BC1CE
:10447000B7FAB094B7F8B09456C1833009F05CC075
:10448000C8010E945D2D892B09F4D8CE6FEF72E030
:1044900080E090E00E945D2D892B09F4CFCE6FEF74
:1044A00072E080E090E00E945D2D892B09F4C6CE79
:1044B0006FEF72E080E090E00E945D2D7C01892B1F
:1044C00009F4BCCE6FEF72E080E090E00E945D2DB9
:1044D0008C01892B09F4B2CEC7010E94062D6B0115
:1044E0007C01C8010E94062D4B015C016FEF72E058
:1044F00080E090E00E945D2D009709F49FCE0E941D
:10450000062D162F772E082F692E6FEF72E080E0B0
:1045100090E00E945D2D009709F490CE0E94062D38
:104520006FEF72E080E090E00E945D2D009709F44B
:1045300085CE0E94062DF7C0C8010E945D2D892BF3
:1045400009F47CCE6FEF72E080E090E00E945D2D78
:10455000892B09F473CE6FEF72E080E090E00E9447
:104560005D2D892B09F46ACE6FEF72E080E090E058
:104570000E945D2D6C01892B09F460CE6FEF72E013
:1045800080E090E00E945D2D1C01892B09F456CE3D
:104590006FEF72E080E090E00E945D2D7C01892B3E
:1045A00009F44CCE6FEF72E080E090E00E945D2D48
:1045B000C055DF4F99838883C05BD040892B09F4B5
:1045C0003DCEC6010E94062D2B013C01C7010E9471
:1045D000062D4B015C0120E030E048EC52E4C301C1
:1045E000B2010E9468330E9409346B017C0120E013
:1045F00030E048EC52E40E94C2319B01AC01C3019F
:10460000B2010E94FB3220E030E040E752E40E9419
:104610006833A70196010E94FC326B017C01F10115
:104620008081833521F4F7FAF094F7F8F09420E0D4
:1046300030E048EC52E4C501B4010E9468330E94A6
:1046400009342B013C0120E030E048EC52E40E94A8
:10465000C2319B01AC01C501B4010E94FB3220E0D4
:1046600030E040E752E40E946833A30192010E94C7
:10467000FC324B015C01C055DF4FA881B981C05BA2
:10468000D0408C91873521F4B7FAB094B7F8B09444
:104690006FEF72E080E090E00E945D2D009709F4DA
:1046A000CDCD0E94062D6FEF72E080E090E00E9479
:1046B0005D2D009709F4C2CD0E94062D0E94F410D2
:1046C00083300CF4BBCDB80180E00E94A010882399
:1046D00009F4B4CD6FEF72E0C8010E945D2D892B03
:1046E00009F4ACCD6FEF72E080E090E00E945D2DA8
:1046F000892B09F4A3CD6FEF72E080E090E00E9477
:104700005D2D892B09F49ACD6FEF72E080E090E087
:104710000E945D2D009709F491CD0E94062D162F61
:10472000772E082F692ECA54DF4FB881C65BD04060
:10473000BB2309F483CD8092500390925103A09241
:104740005203B09253032C2DC0925403D0925503C0
:10475000E0925603F0925703612F812F972DA02FDF
:10476000B62D8093580390935903A0935A03B093A6
:104770005B03E82CF0905103009152031091530316
:10478000309155034091560350915703709159034E
:1047900080915A0390915B030E94E70FE6E1F2E0FB
:1047A000C055DF4FF983E883C05BD04029E730E094
:1047B0002C0F3D1F2C5F3F4FC954DF4F3983288397
:1047C000C75BD0405DE9652E712C6C0E7D1E34E018
:1047D000630E711CC055DF4FA881B981C05BD0400A
:1047E0008D91C055DF4FB983A883C05BD04090EF57
:1047F000980F9031D8F090EE980F9032E8F090EC4E
:10480000980F903130F190EB980F9031E0F090EAF2
:10481000980F9035F0F090E5980F9031D0F4F1E0DA
:10482000C155DF4FF883CF5AD04013C0C155DF4F79
:104830001882CF5AD0400DC0B3E0C155DF4FB883C6
:10484000CF5AD04006C0E4E0C155DF4FE883CF5ACD
:10485000D0409E012F5F3F4F190198E0D9011D9272
:104860009A95E9F7898383E08A83C155DF4FB88140
:10487000CF5AD040B23001F118F4B13081F009C004
:10488000C155DF4FE881CF5AD040E33011F1E43019
:1048900031F1809160038F5F8093600329C0809124
:1048A0005F038F5F80935F0380E092E09C838B8344
:1048B0009E838D8314E021C080915E038F5F80937F
:1048C0005E0380E091E09C838B839E838D8312E066
:1048D00014C080915D038F5F80935D0309C0809158
:1048E0005C038F5F80935C0380E09EE19C838B83FD
:1048F00080E093E09E838D8316E066E0C1010E9414
:10490000CF1298878F83F5E0CE54DF4FF883C25BD8
:10491000D040E12EF12C25E0E20EF11C85E0810F64
:10492000C82ED12C1D5FC354DF4F1883CD5BD04000
:104930004DB65EB68DB79EB78E199F090FB6F89427
:104940009EBF0FBE8DBF0DB71EB70F5F1F4F48E054
:1049500050E0B10183E29AE00E94980588EE93E06E
:10496000A0E0B0E08093270A9093280AA093290A38
:10497000B0932A0A5801812C912C2FB7F89480917A
:10498000431390914413A0914513B09146132FBF48
:1049900080932B0A90932C0AA0932D0AB0932E0A91
:1049A00083E29AE00E94D10597FF5CC62FB7F89486
:1049B0008091431390914413A0914513B0914613F5
:1049C0002FBF40912B0A50912C0A60912D0A7091B3
:1049D0002E0A841B950BA60BB70B4091270A50910A
:1049E000280A6091290A70912A0A84179507A60758
:1049F000B707B0F28E149F0409F09EC2C354DF4F74
:104A00006881CD5BD040C8010E94CF12A8014C0D37
:104A10005D1DFA013197208130E0322F2227319736
:104A20004081242B2817390709F083C2C155DF4F75
:104A30009881CF5AD040923009F418C120F49130B7
:104A400009F4A4C00BC0C155DF4FA881CF5AD04094
:104A5000A33009F443C1A43009F4E1C186E0F801B0
:104A60003396DE01AB55BF4F01900D928A95E1F769
:104A7000CC54DF4F88819981C45BD0400E94C6121C
:104A8000CE018B559F4F0E94C61285EA90E08C0F95
:104A90009D1F04960E94C612C955DF4F6881798117
:104AA000C75AD04080E090E00E94613120E030E0C1
:104AB00048EC52E40E9468334B015C01CB55DF4F58
:104AC00068817981C55AD04080E090E00E946131D0
:104AD00020E030E048EC52E40E9468336B017C0136
:104AE000C755DF4F68817981C95AD04080E090E096
:104AF0000E94613120916003CF56DF4F88829982F6
:104B0000AA82BB82C159D040CB56DF4FC882D9821E
:104B1000EA82FB82C559D040C756DF4F688379834C
:104B20008A839B83C959D0402130B9F0223009F0E3
:104B30001CC26BEC74E0C754DF4F88819981C95B5C
:104B4000D0400E944B1267EC74E0CE018F569F4F0D
:104B50000E944B1262EC74E013C069ED74E0C7541C
:104B6000DF4F88819981C95BD0400E944B1265ED6F
:104B700074E0CE018F569F4F0E944B1260ED74E09F
:104B800081E990E08C0F9D1F04966DC0F801838130
:104B90009481A581B681CB55DF4F88839983AA8301
:104BA000BB83C55AD040CE018B559F4F0E94C61281
:104BB000CC54DF4F88819981C45BD0400E94C612DB
:104BC000CB55DF4F68817981C55AD04080E090E0B5
:104BD0000E94613120E030E040E251E40E946833FD
:104BE0006B017C01C955DF4F68817981C75AD0407C
:104BF00080E090E00E94613120E030E048EC52E437
:104C00000E94683320E030E040EA51E40E94FB3229
:104C100020915F03C356DF4FC882D982EA82FB82AC
:104C2000CD59D040CF55DF4F688379838A839B83EA
:104C3000C15AD040213069F0223009F096C166EBAC
:104C400074E0CE0183569F4F0E944B1262EB74E0DA
:104C500009C06EEB74E0CE0183569F4F0E944B1249
:104C60006AEB74E0C3010E944B127FC1D801139616
:104C70008D919C911497CB55DF4F99838883C55AAA
:104C8000D040CE018B559F4F0E94C612CB55DF4FAF
:104C900068817981C55AD04080E090E00E946131FE
:104CA00020E030E048EC52E40E94683320915E033B
:104CB000C555DF4F688379838A839B83CB5AD04065
:104CC000213031F0223009F050C16AEA74E002C0AC
:104CD0006EEA74E0CE0185559F4FC5CF86E0F8019E
:104CE0003396DE01AB55BF4F01900D928A95E1F7E7
:104CF000CE018B559F4F0E94C612CC54DF4F888146
:104D00009981C45BD0400E94C61285EA90E08C0F66
:104D10009D1F04960E94C612CB55DF4F6881798192
:104D2000C55AD04080E090E00E94613120E030E040
:104D300048EC52E40E94683320E030E040E252E464
:104D40000E94FB324B015C01C955DF4F68817981BC
:104D5000C75AD04080E090E00E94613120E030E00E
:104D600048EC52E40E9468336B017C01C755DF4F69
:104D700068817981C95AD04080E090E00E94613119
:104D800020E030E040E251E40E94683320915D036E
:104D9000CB57DF4F88829982AA82BB82C558D04008
:104DA000C757DF4FC882D982EA82FB82C958D040F8
:104DB000C357DF4F688379838A839B83CD58D04064
:104DC0002130B9F0223009F0D0C069E974E0CE0199
:104DD0008B579F4F0E944B1266E974E0C554DF4F1A
:104DE00088819981CB5BD0400E944B1262E974E0CC
:104DF00013C066EA74E0CE018B579F4F0E944B129E
:104E000061EA74E0C554DF4F88819981CB5BD04063
:104E10000E944B126CE974E085E890E086C086E061
:104E2000F8013396DE01AB55BF4F01900D928A9584
:104E3000E1F7CE018B559F4F0E94C612CC54DF4F35
:104E400088819981C45BD0400E94C61285EA90E0B7
:104E50008C0F9D1F04960E94C612CB55DF4F6881B0
:104E60007981C55AD04080E090E00E9461314B01C9
:104E70005C01C955DF4F68817981C75AD04080E015
:104E800090E00E9461316B017C01C755DF4F688162
:104E90007981C95AD04080E090E00E946131209130
:104EA0005C03ED968CAE9DAEAEAEBFAEED97C35833
:104EB000DF4FC882D982EA82FB82CD57D040CF57DC
:104EC000DF4F688379838A839B83C158D040213028
:104ED000B9F0223009F049C06EE774E0CE0187587E
:104EE0009F4F0E944B1269E774E0C954DF4F8881DD
:104EF0009981C75BD0400E944B1264E774E013C0F5
:104F00006DE874E0CE0187589F4F0E944B1268E80D
:104F100074E0C954DF4F88819981C75BD0400E94FB
:104F20004B1263E874E089E790E08C0F9D1F0896B0
:104F30009ACE64EF74E002C06EED74E08DE59BE004
:104F40000E94E8090FB6F8945EBE0FBE4DBECE5467
:104F5000DF4FB881C25BD040B150CE54DF4FB88331
:104F6000C25BD040B111E4CC0FC00FB6F8945EBE66
:104F70000FBE4DBECA54DF4FE881C65BD040EE2362
:104F800019F06DE075E002C06DEF74E08DE59BE017
:104F90000E94E809C055DF4F28813981C05BD040AD
:104FA0002A51324009F016CC1092600310925F0330
:104FB00010925E0310925D0310925C032091090C25
:104FC00030910A0C80910B0C90910C0C822B932B3E
:104FD0008360916D21E020930D0C90930E0C8093D3
:104FE0000F0C8091060C9091070CDC0114964D91EA
:104FF0005C9115974330510578F03C912093D60988
:105000003093D5091092D4091092D30943E050E0AF
:105010006DE07CE00E940B1381E00E94071497FF73
:10502000FBCF80E00E9407142091080C022E02C0E2
:10503000969587950A94E2F7222329F08115B8E026
:105040009B0708F0906FBC01990F880B990B0E9489
:1050500063312DEC3CEC4CEE50E40E94C23120E078
:1050600030E04AE754E40E94683369837A838B8393
:105070009C836DE175E0C1010E944B1283E0B82E64
:1050800091E6C92E93E0D92E24E2822E2CE0922EB6
:10509000CB55DF4F19821882C55AD040E8ECF7E0B3
:1050A000F0933713E093361327EC37E0309339133E
:1050B0002093381386EC97E090933B1380933A1338
:1050C00010926103A0E6B9E0BA83A983DC82CB82A7
:1050D0001E821D828114910431F0B10184E29CE0B2
:1050E0000E94EA1805C061E073E0C1010E948B18BC
:1050F0000E94070F40E25EE462E876E08AE896E00C
:105100000E947A0F60913F137091401340E157E283
:1051100087E796E00E947A0F882309F401C1609125
:105120003F137091401340E157E289E596E00E94F9
:105130007A0F882309F4F4C0609136137091371305
:1051400061157105C1F460913F137091401340E304
:1051500055E784EF95E00E947A0F882309F4E0C0B8
:1051600060913F137091401340E157E28BEE95E060
:105170000E947A0FD5C000913F131091401385E42F
:1051800096E00E94F911B80187E392E10E94312D67
:10519000892B09F0C5C00E94D7166BE376E0809199
:1051A0004113909142130E945009609136137091FF
:1051B000371380914113909142130E9450098091BE
:1051C000381390913913892B91F066E073E0809148
:1051D0004113909142130E947409609138137091A9
:1051E000391380914113909142130E94500980918C
:1051F0003A1390913B13892B91F066E073E0809114
:105200004113909142130E94740960913A13709176
:105210003B1380914113909142130E94500968E022
:1052200073E080914113909142130E94D60964E388
:1052300076E08DE59BE00E9450096AE276E08DE51C
:105240009BE00E94500960913613709137138DE5F1
:105250009BE00E9450098091381390913913892B5B
:1052600071F066E073E08DE59BE00E947409609147
:105270003813709139138DE59BE00E94500980919D
:105280003A1390913B13892B71F066E073E08DE542
:105290009BE00E94740960913A1370913B138DE575
:1052A0009BE00E94500968E073E08DE59BE00E945E
:1052B000D60980913F13909140130E945111882389
:1052C00079F160913813709139136115710541F4CA
:1052D00060913A1370913B136115710589F433CFD6
:1052E00000913F131091401385E196E00E94F9115F
:1052F000B80187E392E10E94312D892B49F310C058
:1053000000913F131091401381E096E00E94F91143
:10531000B80187E392E10E94312D892B09F413CF64
:1053200020E0A10168ED75E081EE95E00E94E70EB6
:10533000882311F0198101C01FEF6EEA77E08DE537
:105340009BE00E94E80961EA77E08DE59BE00E941E
:10535000E8096AE073E08DE59BE00E94D60964E904
:1053600077E08DE59BE00E94E80961E673E08DE55A
:105370009BE00E94D60967E877E08DE59BE00E94FC
:10538000E809412F50E060E070E02AE08DE59BE005
:105390000E9489098DE59BE00E94D209F6010190E7
:1053A0000020E9F731978F010156134060913F13B8
:1053B0007091401344EF51E089EB95E00E947A0F21
:1053C00060913F137091401344EF51E08DEA95E0F6
:1053D0000E947A0F882309F4AEC08CEC95E00E94FD
:1053E000DD11882309F4A7C060913D1370913E132D
:1053F00089EC95E00E94C011882309F49CC061E00B
:1054000085EC95E00E9485116AE073E0809141137C
:10541000909142130E94740980914113909142131C
:105420000E94721180913F13909140130E9451117C
:10543000882309F480C080913C138823D9F087EA3F
:1054400095E00E94DD11882309F475C0E0903F13B8
:10545000F090401341E050E060E070E08BE995E0AF
:105460000E945910B70187E392E10E94312D892BE8
:1054700009F061C066E777E080ED95E00E94C01119
:10548000882309F458C02801612C712C0E94D7167A
:1054900064E975E08DE59BE00E94500967E875E0DE
:1054A0008DE59BE00E9450092AE0B301A2018DE541
:1054B0009BE00E9489096CE28DE59BE00E9449090E
:1054C0002AE040E157E260E070E08DE59BE00E9459
:1054D00089098DE59BE00E94D2096AE775E0809119
:1054E0004113909142130E9450092AE0B301A20196
:1054F00080914113909142130E9489096FEF72E0ED
:1055000080914113909142130E947409E0904113DD
:10551000F09042132AE040E157E260E070E0C701FA
:105520000E948909C7010E94D20981E795E00E9483
:1055300051118111EDC010E060913F137091401343
:1055400044EF51E089EB95E00E947A0F111106C0FB
:1055500064E677E08DE59BE00E94E80989819A8105
:105560008039B1E09B0709F49CC008F086C0883CF4
:10557000910509F490C08C3C910509F48FC0892BEA
:1055800009F098C065E477E08DE59BE00E94E809AA
:10559000112309F4ABC069ED77E08DE59BE00E9433
:1055A000E80961E08DE00E94C01B6CE271E080E0E0
:1055B00090E00E94631C60E08DE00E94C01B6CE2E2
:1055C00071E080E090E00E94631C61E08DE00E9449
:1055D000C01B6CE271E080E090E00E94631C60E020
:1055E0008DE00E94C01B6CE271E080E090E00E94C0
:1055F000631C61E08DE00E94C01B6CE271E080E002
:1056000090E00E94631C60E08DE00E94C01B68E592
:1056100072E080E090E00E94631C61E08DE00E94F7
:10562000C01B68E572E080E090E00E94631C60E0CF
:105630008DE00E94C01B0E94AE060C94A61F6DEF69
:1056400073E08DE59BE00E94E8090E9436160C94F9
:10565000D51DD70114968C911497807814968C934D
:105660000C941721F50181935F01FFEF8F1A9F0AB8
:105670008E149F0408F481C9BDC98935F2E09F07E3
:1056800099F08B3522E0920791F08439914091F4A2
:1056900069EE76E079CF66E377E076CF6BE177E08D
:1056A00073CF63E077E070CF6FEC76E014C068EB07
:1056B00076E06ACF67E976E08DE59BE00E945009CD
:1056C00049815A8160E070E02AE08DE59BE00E940C
:1056D000890965E976E08DE59BE00E94E80960E1D3
:1056E00077E280E090E00E94631C52CF89819A812A
:1056F000883C910509F44FCFBA94B110C9CC67EE3C
:1057000077E08DE59BE00E94E8090E94361693CF72
:105710008091411390914213DC01ED91FC91028044
:10572000F381E02DA80161E673E0199580913F13A4
:10573000909140130E945111882309F4FCCE0091EE
:105740003F131091401341E050E060E070E08CE3C3
:1057500095E00E945910B80187E392E10E94312D33
:10576000892B09F0E8CE60E080E197E20E9468169C
:1057700041E0B1018FE295E00E94B40E882309F464
:10578000DACE42E0BE016B557F4F82E295E00E9487
:10579000B40E882309F4CFCE68E675E08DE59BE072
:1057A0000E94500949815A8160E070E02AE08DE54D
:1057B0009BE00E9489098DE59BE00E94D20962E688
:1057C00075E08DE59BE00E945009CB55DF4F488185
:1057D0005981C55AD04060E070E02AE08DE59BE039
:1057E0000E9489098DE59BE00E94D20964EF71E077
:1057F00086E595E00E94830E40E0BE016B557F4F29
:105800008BE495E00E94B40E182F96CEE3E2FAE006
:105810001382128288EE93E0A0E0B0E08483958347
:10582000A683B7832EE132E03183208345ED50E03B
:105830005587448744ED50E05787468740ED50E058
:10584000518B408B41ED50E0538B428B42ED50E049
:10585000558B448B46ED50E0578B468B118E128E44
:10586000138E148EE0ECFAE0138212828483958307
:10587000A683B783318320834DEC50E0558744875E
:105880004CEC50E05787468748EC50E0518B408BFA
:1058900049EC50E0538B428B4AEC50E0558B448BE3
:1058A0004EEC50E0578B468B118E128E138E148E59
:1058B000EDE5FBE01382128284839583A683B78390
:1058C0003183208325EC30E03587248724EC30E0D9
:1058D0003787268720EC30E0318B208B21EC30E0BD
:1058E000338B228B22EC30E0358B248B26EC30E09E
:1058F000378B268B118E128E138E148EEAEFFBE0FF
:105900001382128284839583A683B78320E332E0D7
:1059100031832083E6E0FCE024E0228314821382BA
:1059200020E830E036832583ECE1FCE029E23CE02E
:10593000318320833383228329E232E13583248338
:1059400037832683248520782487E8E1FCE01182D0
:10595000108213821282E4E1FCE011821082138231
:105960001282E0E1FCE01182108213821282E9E2ED
:10597000F2E11382128284839583A683B78382E443
:1059800092E0918380838EE1848787E79AE0909309
:1059900037138093361310923913109238131092E4
:1059A0003B1310923A13109242131092411310922B
:1059B0003C1382E79AE090933E1380933D138FE669
:1059C0009AE09093401380933F130895EF920F93C2
:1059D0001F93CF93DF93E80147FD02C034E001C07D
:1059E00034E1042E000C550B57FF03C0519541952F
:1059F0005109E32E022F242FAE010E94902DCE01DB
:105A0000DF91CF911F910F91EF900895662777272F
:105A10000C94072FFC0188279927E89421912032C4
:105A2000E9F3293010F02E30C8F32B3241F02D323B
:105A300039F4689404C00E94882D820F911D219131
:105A400020532A30C0F31EF4909581959F4F0895FE
:105A5000FB01DC0102C005900D9241505040D8F787
:105A60000895FB01DC018D91059080190110D9F397
:105A7000990B0895FC0105900020E9F78095909519
:105A80008E0F9F1F0895FB0155915523A9F0BF016B
:105A9000DC014D9145174111E1F759F4CD01059015
:105AA000002049F04D9140154111C9F3FB0141110E
:105AB000EFCF81E090E0019708954CE453E10C941E
:105AC000612DFA01A191B081009719F41097E1F0CE
:105AD000CD01DC01CD010D90002011F4C00113C0F7
