:100000000C94BF030C94A4080C9479080C944E082B
:100010000C9423080C94F8070C94CD070C94A207B9
:100020000C9477070C94F0030C94F0030C94F003F9
:100030000C94F0030C94F0030C94F0030C94F00374
:100040000C94F0030C94F0030C94F0030C94F00364
:100050000C94F0030C94F0030C94F0030C946519C9
:100060000C94F0030C94CC090C94A2090C94F003AA
:100070000C94F0030C94F0030C94F0030C94F00334
:100080000C94F0030C94F0030C94F0030C94F00324
:100090000C9478090C944E090C94F0030C946D0A9E
:1000A0000C94F0030C94F0030C94F0030C94F00304
:1000B0000C94F0030C94F0030C94F0030C94F003F4
:1000C0000C94F0030C94F0030C94F0030C942409AA
:1000D0000C94FA080C94F0030C94F0030C94F003C5
:1000E0000C94F0034D1450143F1443144714871418
:1000F000541458145E14621466146C14701474143E
:1001000087147A147E1482140C9470140C943F1487
:100110000C9443140C949A040C9452050C944D14B2
:100120000C9450140C94A0050C94F3030C944E04FE
:100130000C94F2030C9446050C943A050C945E144E
:100140000C94E7040C9458140C946C140C949E05B5
:100150000C94B0050C9454140C949F050C945E05FB
:100160000C947A140C9478260C94F9050C941D04C4
:100170000C9447140C9429060C94A1050C9440048B
:100180000C94C4050C94CC050C942C040C946614AB
:100190000C9482140C947E140C9462140C946A05D2
:1001A0000C9474140C9487144E414E494E49545982
:1001B000494E46CDCCCC3D0AD7233C17B7D1387732
:1001C000CC2B329595E6241FB14F0A000020410048
:1001D00000C84200401C4620BCBE4CCA1B0E5AAE92
:1001E000C59D7400407A10F35A00A0724E180900A1
:1001F00010A5D4E80000E87648170000E40B54028C
:100200000000CA9A3B000000E1F5050000809698C6
:1002100000000040420F000000A086010000001016
:100220002700000000E80300000000640000000058
:10023000000A00000000000100000000002C76D839
:1002400088DC674F0823DFC1DFAE59E1B1B796E51F
:10025000E3E453C63AE651997696E8E6C28426EB83
:10026000898C9B62ED407C6FFCEFBC9C9F40F2BA96
:10027000A56FA5F490055A2AF75C936B6CF9676D2E
:10028000C11BFCE0E40D47FEF520E6B500D0ED9083
:100290002E0300943577050080841E080000204E50
:1002A0000A000000C80C333333330F986E128311E9
:1002B00041EF8D2114893BE65516CFFEE6DB18D1C0
:1002C000844B381BF77C1D901DA4BBE42420328492
:1002D000725E228100C9F124ECA1E53D2741542B37
:1002E00043504D533D22534D222C22534D222C225C
:1002F000534D220053494D383030480053494D4347
:100300004F4D5F53494D35333230450053494D43CE
:100310004F4D5F53494D35333230410053494D38CD
:100320003030205231330053494D3830382052316B
:10033000330053494D383038205231340041542B6A
:10034000435648553D3000415445300041544530F6
:1003500000415400415400415400415400415400B4
:1003600041540077656267707273323030320077C3
:1003700065626770727300696E7465726E65742E63
:100380006974656C63656C2E636F6D002B48545403
:1003900050414354494F4E3A002B48545450414326
:1003A00054494F4E3A0041542B4854545041435401
:1003B000494F4E3D002B48545450524541443A0059
:1003C00041542B485454505245414400444F574ED9
:1003D0004C4F41440041542B4854545044415441E3
:1003E0003D0041542B4854545053534C3D0052450A
:1003F0004449520041542B48545450494E495400EA
:1004000041542B485454505445524D0055524C00C1
:1004100055410043494400434F4E54454E54002B30
:1004200043474154543A200041542B4347415454CC
:100430003F0041542B43494943520041542B5341FF
:100440005042523D312C310041542B5341504252C5
:100450003D332C312C22505744222C0041542B5335
:10046000415042523D332C312C2255534552222CBF
:100470000041542B435354543D220041542B5341CB
:100480005042523D332C312C2241504E222C0041FF
:10049000542B53415042523D332C312C22434F4E6A
:1004A00054595045222C2247505253220041542B7C
:1004B00043474154543D310053485554204F4B005D
:1004C00041542B43495053485554006170706C6936
:1004D000636174696F6E2F6A736F6E007765626710
:1004E00070727332303032007765626770727300F9
:1004F000696E7465726E65742E6974656C63656C83
:100500002E636F6D00706F74320070686F32006E12
:1005100069743200706F74310070686F31006E69F9
:100520007431004150320048320054320061707022
:1005300031006168683100617431007048320070C8
:100540004831004C5432004C4832004C5431004C7D
:1005500048310073745F3200736832007365633230
:100560000073745F31007368310073656331007329
:10057000006D00640000000A0B02090C0D0E080754
:100580000304010000000000000000000000000063
:10059000000000000000000000000000000000005B
:1005A0000012111000000000000000000000000018
:1005B0000000000000000000000000222C220022A9
:1005C0002C0041542B48545450504152413D22007C
:1005D000535354415455533A204C6F636174696FBF
:1005E0006E200041542B43475053535441545553AC
:1005F0003F002B43475053494E464F3A0041542B3E
:1006000043475053494E464F002B43474E53494EA4
:10061000463A200041542B43474E53494E4600531F
:10062000494E460041542B43474E53494E460041E4
:10063000542B43475053494E463D0041542B4347AA
:100640005053494E464F00670074000000220025B9
:100650000028002B002E00310034000201000005AC
:100660000108010B0100002100240027002A002DB1
:10067000003000330001010000040107010A0105F8
:10068000050505070508080808020202020A0A080B
:100690000804040404010101010101010103030331
:1006A0000303030303040707070C0C0C0C0C0C0CCE
:1006B0000C0202020206060606060606060B0B0BD5
:1006C0000B0B0B0B0B010210202008081020401010
:1006D0002040800201020108040201010204081006
:1006E0002040808040201008040201800402018024
:1006F000402010080402010804020101020408104D
:10070000204080010204081020408041542B4347C0
:1007100050535057523D310041542B43474E535094
:1007200057523D31002B434750535057523A200007
:1007300041542B434750535057523F002B43474E91
:10074000535057523A200041542B43474E53505771
:10075000523F002B435245473A200041542B43520D
:1007600045473F0041542B43434944004F4B00460B
:100770004F4E4100464F4E416E657400782611245D
:100780001FBECFEFD1E2DEBFCDBF00E00CBF23E143
:10079000AAE4B3E001C01D92A034B207E1F713E070
:1007A000A0E0B2E0E4EDF3E600E00BBF02C007908A
:1007B0000D92AA34B107D9F713E0CFEBD3E000E0F4
:1007C00006C021970109802FFE010E94472DCE3BD4
:1007D000D10780E00807A9F70E94AF190C94E8310F
:1007E0000C9400000895CF92DF92EF92FF920F9346
:1007F0001F93CF93DF936C017A018B01C0E0D0E0AF
:10080000CE15DF0581F0D8016D918D01D601ED91F6
:10081000FC910190F081E02DC6011995892B11F012
:100820002196EECF7E01C701DF91CF911F910F91ED
:10083000FF90EF90DF90CF900895FC01538D448D91
:10084000252F30E0842F90E0821B930B541710F07B
:10085000CF96089501970895FC01918D828D981788
:1008600061F0828DDF01A80FB11D5D968C91928D94
:100870009F5F9F73928F90E008958FEF9FEF089591
:10088000FC01918D828D981731F0828DE80FF11D5A
:10089000858D90E008958FEF9FEF0895FC01918D75
:1008A000228D892F90E0805C9F4F821B91098F736E
:1008B000992708958DE19AE00E944E0421E0892B4A
:1008C00009F420E0822F08958AEB9AE00E944E04FA
:1008D00021E0892B09F420E0822F089587E59BE031
:1008E0000E944E0421E0892B09F420E0822F089514
:1008F000FC01848DDF01A80FB11DA35ABF4F2C91BD
:10090000848D90E001968F739927848FA689B7898B
:100910002C93A089B1898C91837080648C93938D82
:10092000848D981306C00288F389E02D80818F7D25
:1009300080830895EF92FF920F931F93CF93DF93DD
:10094000EC0181E0888F9B8D8C8D981305C0E88920
:10095000F989808185FD26C0F62E0B8D10E00F5F92
:100960001F4F0F731127E02E8C8DE8120CC00FB6AD
:1009700007FCFACFE889F989808185FFF5CFCE01A0
:100980000E947804F1CF8B8DFE01E80FF11DE35A30
:10099000FF4FF0829FB7F8940B8FEA89FB89808123
:1009A00080620AC09FB7F894EE89FF896083E88966
:1009B000F98980818370806480839FBF81E090E0AB
:1009C000DF91CF911F910F91FF90EF900895CF93FA
:1009D000DF93EC01888D8823C9F0EA89FB89808147
:1009E00085FD05C0A889B9898C9186FD0FC00FB619
:1009F00007FCF5CF808185FFF2CFA889B9898C915A
:100A000085FFEDCFCE010E947804E7CFDF91CF9133
:100A1000089580E090E0892B21F00E946E048111FE
:100A20001DC080E090E0892B21F00E9464048111B8
:100A300018C080E090E0892B21F00E945A048111B7
:100A400013C080E090E0892BA1F080E090E0892B3A
:100A500081F00E94000081110AC008950E940000E8
:100A6000E0CF0E940000E5CF0E940000EACF0C9486
:100A700000000895885E9E4FDC018D919C91DC0101
:100A8000ED91FC910680F781E02D1994885E9E4FD0
:100A9000DC018D919C91DC01ED91FC910484F58544
:100AA000E02D1994885E9E4FDC018D919C91DC01B4
:100AB000ED91FC910284F385E02D1994885E9E4FA0
:100AC000DC018D919C91DC01ED91FC910190F08114
:100AD000E02D1994885E9E4FDC018D919C91DC0184
:100AE000ED91FC910084F185E02D199440918709E6
:100AF000262F30E0240F311D21323105DCF4209106
:100B0000F3092430C9F4FC0180E090E0861758F422
:100B1000309187092191DC01A959B64FA30FB11D6E
:100B20002C930196F3CF80918709680F6093870912
:100B300080E0089581E0089582E008950895089581
:100B40000895E091AC098091AB09E81730F4F0E02A
:100B5000E355F64F808190E008958FEF9FEF089561
:100B60009091AC098091AB09981750F4E92FF0E00F
:100B7000E355F64F208130E09F5F9093AC0902C0AF
:100B80002FEF3FEFC90108958091AB0990E02091CC
:100B9000AC09821B91090895CF92DF92EF92FF92E8
:100BA0000F931F93CF93DF937C01CB018A01209198
:100BB000F909222389F0EB016B01C40ED51ECC1577
:100BC000DD0569F06991D701ED91FC910190F0810B
:100BD000E02DC7011995F3CF642F0E947605C80157
:100BE000DF91CF911F910F91FF90EF90DF90CF9009
:100BF0000895CF93DF931F92CDB7DEB7698320911D
:100C0000F9092223D1F020911C0A203240F021E082
:100C100030E0FC013383228380E090E015C08091B6
:100C2000FA09E82FF0E0E550F64F998190838F5F45
:100C30008093FA0980931C0A05C061E0CE010196F9
:100C40000E94760581E090E00F90DF91CF910895AA
:100C5000089580E090E00895FC01A281B381808135
:100C60009181A817B90758F4CD0101969383828327
:100C70006C93A281B3811C9281E090E002C080E07D
:100C800090E024813581820F931F9583848308959A
:100C9000EF92FF920F931F93CF93DF93EC017B01B1
:100CA00062E20E942C068701F80161918F016623A0
:100CB00079F0E7E2F3E0F280FF20A1F03296818143
:100CC0006813F9CF6CE5CE010E942C066F2D0AC087
:100CD00062E2CE01DF91CF911F910F91FF90EF90D3
:100CE0000C942C06CE010E942C06DECFCF93DF930E
:100CF000DC0112962D913C911397FB01460F571F73
:100D00001296CD91DC9113978D919C911197C817F4
:100D1000D90760F4E417F50749F0CE010196139660
:100D20009C938E93129781918883EACF18821296B2
:100D30008D919C911397821B930BDF91CF91089516
:100D4000EF92FF920F931F93CF93DF93CDB7DEB750
:100D500066970FB6F894DEBF0FBECDBF8C01CB01F6
:100D6000FE0177969F014AE0E42EF12CB7010E9424
:100D7000112D805D8293CB010097C1F7A9014E1B15
:100D80005F0BBF01C8010E947606F80124813581FE
:100D9000820F931F9583848366960FB6F894DEBF07
:100DA0000FBECDBFDF91CF911F910F91FF90EF90BC
:100DB00008958F929F92AF92BF92CF92DF92EF925F
:100DC000FF920F931F93CF93DF93CDB7DEB7669754
:100DD0000FB6F894DEBF0FBECDBF7C018E01095E59
:100DE0001F4F68018AE0882E912CA12CB12CCB01D9
:100DF000BA01A50194010E94252D942F852F605DD5
:100E0000F80162938F01A901692F782F41155105CF
:100E10006105710561F7A6014E1B5F0BBF01C7019C
:100E20000E947606F70124813581820F931F9583F6
:100E3000848366960FB6F894DEBF0FBECDBFDF91F8
:100E4000CF911F910F91FF90EF90DF90CF90BF90C7
:100E5000AF909F908F900895FC012581222331F05F
:100E6000F8E02F02800D911D1124089580E090E09C
:100E70000895EF92FF920F931F93CF93DF93611525
:100E8000710561F17B018C01FC01C081D18120974A
:100E900041F0CE010E942C07E816F90621F0EC0182
:100EA000F6CFC0E0D0E0C7010E942C07209771F078
:100EB000009749F09C012C1B3D0B43E0359527958D
:100EC0004A95E1F701C020E02D8303C0F80191832A
:100ED0008083892B19F4F801D383C283DF91CF91EA
:100EE0001F910F91FF90EF9008950E94CE2E1F92B8
:100EF0000F920FB60F9211240BB60F922F933F93C0
:100F00004F935F936F937F938F939F93AF93BF9311
:100F1000EF93FF93E0910E02F0910F021995FF916C
:100F2000EF91BF91AF919F918F917F916F915F9161
:100F30004F913F912F910F900BBE0F900FBE0F90CE
:100F40001F9018951F920F920FB60F9211240BB697
:100F50000F922F933F934F935F936F937F938F9352
:100F60009F93AF93BF93EF93FF93E0910C02F091A7
:100F70000D021995FF91EF91BF91AF919F918F91C4
:100F80007F916F915F914F913F912F910F900BBE89
:100F90000F900FBE0F901F9018951F920F920FB6D3
:100FA0000F9211240BB60F922F933F934F935F93A1
:100FB0006F937F938F939F93AF93BF93EF93FF9321
:100FC000E0910202F09103021995FF91EF91BF9118
:100FD000AF919F918F917F916F915F914F913F91D1
:100FE0002F910F900BBE0F900FBE0F901F90189572
:100FF0001F920F920FB60F9211240BB60F922F93E0
:101000003F934F935F936F937F938F939F93AF9390
:10101000BF93EF93FF93E0910002F09101021995C5
:10102000FF91EF91BF91AF919F918F917F916F91C0
:101030005F914F913F912F910F900BBE0F900FBE7C
:101040000F901F9018951F920F920FB60F921124B8
:101050000BB60F922F933F934F935F936F937F93B2
:101060008F939F93AF93BF93EF93FF93E0910A0207
:10107000F0910B021995FF91EF91BF91AF919F9164
:101080008F917F916F915F914F913F912F910F9031
:101090000BBE0F900FBE0F901F9018951F920F92CE
:1010A0000FB60F9211240BB60F922F933F934F93CD
:1010B0005F936F937F938F939F93AF93BF93EF93C0
:1010C000FF93E0910802F09109021995FF91EF91C9
:1010D000BF91AF919F918F917F916F915F914F9150
:1010E0003F912F910F900BBE0F900FBE0F901F904E
:1010F00018951F920F920FB60F9211240BB60F92F4
:101100002F933F934F935F936F937F938F939F930F
:10111000AF93BF93EF93FF93E0910602F091070224
:101120001995FF91EF91BF91AF919F918F917F9111
:101130006F915F914F913F912F910F900BBE0F9048
:101140000FBE0F901F9018951F920F920FB60F921F
:1011500011240BB60F922F933F934F935F936F938E
:101160007F938F939F93AF93BF93EF93FF93E09100
:101170000402F09105021995FF91EF91BF91AF9193
:101180009F918F917F916F915F914F913F912F919F
:101190000F900BBE0F900FBE0F901F901895DC01A3
:1011A000ED91FC910190F081E02D1994EF92FF9266
:1011B0000F931F93CF93DF938C017B01C0E0D0E0AE
:1011C000F701EC0FFD1F6491662361F0D801ED91EA
:1011D000FC910190F081E02DC8011995892B11F047
:1011E0002196EECFCE01DF91CF911F910F91FF900D
:1011F000EF9008951F920F920FB60F9211240BB625
:101200000F922F933F934F935F936F937F938F939F
:101210009F93AF93BF93EF93FF938DE19AE00E946A
:101220007804FF91EF91BF91AF919F918F917F9142
:101230006F915F914F913F912F910F900BBE0F9047
:101240000FBE0F901F9018951F920F920FB60F921E
:1012500011240BB60F922F933F934F935F936F938D
:101260007F938F939F93AF93BF93EF93FF938DE102
:101270009AE00E940514FF91EF91BF91AF919F9169
:101280008F917F916F915F914F913F912F910F902F
:101290000BBE0F900FBE0F901F9018951F920F92CC
:1012A0000FB60F9211240BB60F922F933F934F93CB
:1012B0005F936F937F938F939F93AF93BF93EF93BE
:1012C000FF938AEB9AE00E947804FF91EF91BF911F
:1012D000AF919F918F917F916F915F914F913F91CE
:1012E0002F910F900BBE0F900FBE0F901F9018956F
:1012F0001F920F920FB60F9211240BB60F922F93DD
:101300003F934F935F936F937F938F939F93AF938D
:10131000BF93EF93FF938AEB9AE00E940514FF912D
:10132000EF91BF91AF919F918F917F916F915F915D
:101330004F913F912F910F900BBE0F900FBE0F90CA
:101340001F9018951F920F920FB60F9211240BB693
:101350000F922F933F934F935F936F937F938F934E
:101360009F93AF93BF93EF93FF9387E59BE00E941A
:101370007804FF91EF91BF91AF919F918F917F91F1
:101380006F915F914F913F912F910F900BBE0F90F6
:101390000FBE0F901F9018951F920F920FB60F92CD
:1013A00011240BB60F922F933F934F935F936F933C
:1013B0007F938F939F93AF93BF93EF93FF9387E5B3
:1013C0009BE00E940514FF91EF91BF91AF919F9117
:1013D0008F917F916F915F914F913F912F910F90DE
:1013E0000BBE0F900FBE0F901F9018951092F3092F
:1013F00081E08093F2091092CD0961E084E10E94BE
:101400001E1461E085E10E941E14E9EBF0E080818A
:101410008E7F808380818D7F808388E48093B80075
:1014200085E48093BC000895CF93DF9391E090937F
:1014300066098823B9F0C091B800D091BA008091B4
:10144000BC008A7B8093BC0060E084E10E941E1493
:1014500060E085E10E941E140E94F609D093BA0054
:10146000C093B800DF91CF91089585ED8093BC00C3
:101470008091F5099091F609A091F709B091F809CA
:101480000796A11DB11D23E0B695A7959795879561
:101490002A95D1F72091BC0024FF1CC04091F5098A
:1014A0005091F6096091F7097091F809452B462B88
:1014B000472B81F30097A105B10541F025E32A955B
:1014C000F1F700000197A109B109E4CF8091F40977
:1014D0000C94140A1092F30908951F920F920FB6FC
:1014E0000F9211240BB60F922F933F934F935F935C
:1014F0006F937F938F939F93AF93BF93EF93FF93DC
:101500008091B900887F803609F49CC068F58832E4
:1015100009F45BC090F4803109F454C038F4882396
:1015200009F4F6C0883009F44DC0F6C0883109F4DA
:101530004CC0803209F45DC0EFC0803409F468C04B
:1015400048F4803309F455C0883309F0E5C080932E
:10155000F109D8C0803509F44FC0883509F45DC061
:10156000883409F0D9C0D6C0883909F4C7C0A8F4B6
:10157000883709F467C038F4883609F463C08037C7
:1015800009F460C0C9C0883809F4B8C0803909F4CA
:101590005FC0803809F0C0C05BC0803B09F486C0E2
:1015A00038F4803A09F466C0883A09F47FC0B4C0C0
:1015B000803C09F4A7C0883C09F4A4C0883B09F426
:1015C0008AC0AAC08091CE0910C09091F009809184
:1015D000EF09981770F5E091F00981E08E0F809384
:1015E000F009F0E0E153F64F80818093BB0085EC79
:1015F00086C08093F1098EC0E091F00981E08E0FE2
:101600008093F0098091BB00F0E0E153F64F8083B6
:101610009091F0098091EF096EC0E091F00981E0AE
:101620008E0F8093F0098091BB00F0E0E153F64FFC
:1016300080838091F20981116DC081E08093CD0992
:1016400084EA61C083E08093F3091092A909CFCFA7
:101650008091A909803208F051C0E091A90981E088
:101660008E0F8093A9098091BB00F0E0E757F64FF9
:101670008083BDCF85EC8093BC001092F3098091EC
:10168000A909803230F4E091A909F0E0E757F64F5C
:1016900010826091A90970E0E0914A03F0914B0338
:1016A00089E899E019951092A90936C084E08093E1
:1016B000F3091092880910928709E0914C03F09188
:1016C0004D03199580918709811105C081E08093B0
:1016D000870910926709E091880981E08E0F809355
:1016E0008809F0E0E959F64F80818093BB00909122
:1016F000880980918709981708F479CF85E8809345
:10170000BC000AC085EC8093BC001092F30904C0B1
:101710001092F1090E94350AFF91EF91BF91AF91AC
:101720009F918F917F916F915F914F913F912F91F9
:101730000F900BBE0F900FBE0F901F9018950F9338
:101740001F93CF93DF93EC018B012097A9F08E813B
:101750009F81009721F40115110549F40DC0011571
:10176000110529F0B8010E949927892B29F0CE0193
:101770000E942C07EC01E9CFCE01DF91CF911F91A0
:101780000F910895CF93DF93DC01EB01EC81FD8194
:101790008A819B810896E817F90718F480E090E0A9
:1017A00021C03897FD83EC833097C1F31296CD9119
:1017B000DC911397209751F0CF018C1B9D0B23E0F8
:1017C000959587952A95E1F78D8303C01196FC9333
:1017D000EE931396FC93EE93129715821482178260
:1017E0001682CF01DF91CF910895CF92DF92EF92D1
:1017F000FF920F931F93CF93DF936115710589F1CA
:101800006A01EB017C01FC010081118101151105C8
:10181000A9F0F80166817781C617D70769F06115CD
:10182000710529F0CE010E94E72E892B29F0C8010D
:101830000E942C078C01EACFC80115C0B601C70170
:101840000E94C20BFC01892B39F084818F7784833D
:10185000D783C683CF0107C060E070E0C7010E9454
:10186000390780E090E0DF91CF911F910F91FF90B9
:10187000EF90DF90CF900895EF92FF920F931F9318
:10188000CF93DF93FC01E080F180E114F104D9F003
:101890008B01C7010E94A227AC014F5F5F4FF80187
:1018A000C281D381CE01840F951F248135812817F1
:1018B000390748F093838283209739F0B701CE012E
:1018C0000E94902702C0C0E0D0E0CE01DF91CF910E
:1018D0001F910F91FF90EF900895AF92BF92CF921A
:1018E000DF92EF92FF920F931F93CF93DF931F929C
:1018F0001F92CDB7DEB77C015B016A01BA010E947D
:10190000C20B8C01892B91F0BA82A982B601CE015B
:1019100001960E943C0C9C01892B41F0F8019481B6
:101920009068948337832683C80106C0B801C70135
:101930000E94390780E090E00F900F90DF91CF91E7
:101940001F910F91FF90EF90DF90CF90BF90AF90DD
:101950000895EF92FF920F931F93CF93DF93FC01B3
:101960008481982F9F7739F48078806284831182F4
:10197000108213821282848185FF12C06115710565
:1019800079F07A018B01EF01808191810E949F0B98
:10199000009741F4A701B801CE010E946D0C02C06E
:1019A00080E090E0DF91CF911F910F91FF90EF9039
:1019B0000895CF93DF93EC01FB0101900020E9F73C
:1019C0003197AF01461B570B0E9476062C813D8153
:1019D000820F931F9D838C83DF91CF9108952F9267
:1019E0003F924F925F926F927F928F929F92AF92AF
:1019F000BF92CF92DF92EF92FF920F931F93CF93FC
:101A0000DF93CDB7DEB766970FB6F894DEBF0FBE93
:101A1000CDBF7C018B01DC0114968C918F778630D1
:101A200009F4AFC068F4823008F4BAC0843008F416
:101A30008BC0D7016D917C91C8010E94480639C2C4
:101A40008C3009F190F4883009F492C08A3009F0A2
:101A5000A7C0F701C080D180E280F3806DE2C801A9
:101A60000E942C06B701A60188C0803209F444C048
:101A7000803409F095C06BE5C8010E942C06F7017F
:101A8000E080F18034C0F701408051806280738033
:101A9000A3019201C301B2010E94C42B811180C035
:101AA00020E030E0A901C301B2010E94C42B8823C9
:101AB00009F47CC0A3019201C301B2010E94642D0C
:101AC0009B01AC01C301B2010E94C42B81116EC005
:101AD00067C0B801C7010E94EF0CC7010E942C0724
:101AE0007C01892B39F06CE2C8010E942C06E114BC
:101AF000F10479F76DE524C06BE7C8010E942C065C
:101B0000D701ED90FC90E114F104C9F0F701668172
:101B10007781C8010E9448066AE3C8010E942C062A
:101B2000B801C7010E94EF0CC7010E942C077C017D
:101B3000892B29F06CE2C8010E942C06E4CF6DE7E6
:101B4000C8010E942C06B5C1F70142815381608112
:101B50007181C8010E947606D80114962D913C919E
:101B60001597820F931F15969C938E931497A1C17E
:101B7000D7014D915D916D917C91C8010E94D9066C
:101B800098C1F70180819181A281B381892B8A2B31
:101B90008B2B19F06BE373E005C060E473E002C0C7
:101BA0006BEF72E0C8010E94D90C83C120E030E0E5
:101BB000A901C301B2010E94C42B87FF08C06DE2D6
:101BC000C8010E942C0677FA709477F8709420E888
:101BD00036E948E15BE4C301B2010E94C92E87FDEA
:101BE00033C06CE5C62E62E0D62E7CE2A72E72E0F2
:101BF000B72EE0E2EE2EF12C212C312CA301920124
:101C0000D6019E918E917E916E916D010E94C42BA2
:101C100018166CF0F5012489358946895789C30166
:101C2000B2010E942A2C2B013C012E0C3F1CF59482
:101C3000E794F4E0AF1AB10884E4C81682E0D8064D
:101C4000E9F6BB24BA9407C030E2E32EF12C45E05C
:101C5000B42E212C312C20E030E0A901C301B201C7
:101C60000E94C92E181694F52CEA35EC47E257E38A
:101C7000C301B2010E94C42B181644F19FEFB9169C
:101C800029F1AB2DB4E0AB0260011124F601EC5E4A
:101C9000FD4FA301920160817181828193810E9435
:101CA000C92E18167CF4F601EC5BFD4F20813181C2
:101CB00042815381C301B2010E942A2C2B013C01B5
:101CC0002E183F08F594E794BA94D8CFC301B20117
:101CD0000E94422E4B015C016B017C01E6E0EE8B21
:101CE00080E492E4AFE0B0E08A8B9B8BAC8BBD8B41
:101CF0009E89998BA92FA150AE8BBAE0CB16D10447
:101D0000E104F104C8F06A897B898C899D892AE005
:101D100030E040E050E00E94252D2A8B3B8B4C8B1D
:101D20005D8BC701B6012AE030E040E050E00E9440
:101D3000252D69017A01DCCFC501B4010E94C92BB0
:101D40009B01AC01C301B2010E94632D6B017C01B8
:101D50006A897B898C899D890E94C92B9B01AC0172
:101D6000C701B6010E942A2C2B013C010E94422E81
:101D70006B017C010E94C92B9B01AC01C301B20124
:101D80000E94632D9B01AC010E94642D0E94422E93
:101D9000C60ED71EE81EF91E8A899B89AC89BD89AB
:101DA000C816D906EA06FB06E0F09FEF891A990AE1
:101DB000A90AB90A2114310489F0AAE08A1691040B
:101DC000A104B10458F0BFEF2B1A3B0AC12CD12C4F
:101DD0007601812C912C5401839403C0C12CD12C09
:101DE00076018AE0482E512C612C712CC701B60176
:101DF000A30192010E94252D672B682B692B41F4CA
:101E0000E9891E162CF469017A01E150E98BEECFC5
:101E1000B501A401C8010E94D906F989FF2391F1F7
:101E20005F2E3E0181E1680E711C53015A949FEFB1
:101E3000591679F0C701B6012AE030E040E050E0E1
:101E40000E94252D605DD3016E933D0169017A01E9
:101E5000EDCFB501B9896B1B71098EE2FB0182934D
:101E6000BF01A5014E1B5F0BC8010E947606D80179
:101E700014962D913C911597820F931F15969C9364
:101E80008E93149737FE0AC068E373E0C8010E947E
:101E9000D90C662777276219730908C02114310409
:101EA00041F065E6C8010E942C06B101C8010E94FC
:101EB000A00666960FB6F894DEBF0FBECDBFDF91C9
:101EC000CF911F910F91FF90EF90DF90CF90BF9037
:101ED000AF909F908F907F906F905F904F903F90CA
:101EE0002F900895CF93C62F91E09093F90998E62B
:101EF00090931B0A1092FA0910921C0A682F84EF23
:101F00009BE00E94F9056C2F84EF9BE00E94F9058D
:101F100081E0CF910C94A11491E09093F90998E697
:101F200090931B0A1092FA0910921C0A682F84EFF2
:101F30009BE00E94F90581E00C94A114CF93DF93FC
:101F4000EB010E948C0F81E00E948D151092AC096C
:101F50008093AB0984EF9BE00E94B005888381E009
:101F6000DF91CF910895982F9695969596959E71AD
:101F7000292F220F220F920F8F70890F0895EF9251
:101F8000FF920F931F93CF93DF937C018B010E94ED
:101F9000E618C0913113D0913213B701CE010E94DF
:101FA000D60864E273E0CE010E94D11860E0C80157
:101FB000DF91CF911F910F91FF90EF900C946218D9
:101FC000CF93DF93EC0164EF71E084E697E00E9429
:101FD000BF0F8091271244E150E08B3219F46FE279
:101FE00072E102C067E272E1CE010E94F02E1C8A0B
:101FF00060E084EF91E00E946218FE0101900020F1
:10200000E9F7CF0101978C1BDF91CF910895DF9203
:10201000EF92FF920F931F93CF93DF938C017B017D
:10202000D42EBC0187E292E10E94AB27EC01892B00
:10203000C1F0C8010E94A2278C0F9D1FC0E0CD15E2
:1020400049F06CE270E00E94DC2E009751F001969E
:10205000CF5FF5CF0E947227F7019183808381E0E3
:1020600001C080E0DF91CF911F910F91FF90EF9021
:10207000DF900895FF920F931F93CF93DF93EB01AF
:102080008A01F22E64EF71E00E94BF0F4F2DB8015C
:10209000CE010E940710C82F882329F060E084EF4A
:1020A00091E00E9462188C2FDF91CF911F910F91C8
:1020B000FF900895CF93DF931F921F92CDB7DEB7A5
:1020C00021E0AE014F5F5F4F63E577E08BE597E07E
:1020D0000E943A10882311F0898101C080E00F909E
:1020E0000F90DF91CF910895CF93DF93EB01BA0169
:1020F0000E94BF0F882341F0BE0187E292E10E9457
:10210000992721E0892B09F020E0822FDF91CF91E0
:102110000895CF93DF931F921F92CDB7DEB78091C2
:10212000261220E0AE014F5F5F4F833081F46CE3F5
:1021300077E087E497E00E943A10882331F08981A4
:102140009A81892B49F081E018C080E016C065E2D1
:1021500077E080E397E0EFCF8091261260912F1314
:102160007091301344EF51E0833019F488E197E027
:1021700002C08BE097E00E9474100F900F90DF91E7
:10218000CF9108950F931F93CF93DF93EC010E949B
:10219000D1188C0164E273E0CE010E94D118800F47
:1021A000911FDF91CF911F910F91089590E0FC0155
:1021B000EB53F94F2491FC01E158F94F84918823A6
:1021C00099F090E0880F991FFC01EB59F94FA59108
:1021D000B491FC01E55BF94F859194918FB7F89428
:1021E000EC91E22BEC938FBF08958F929F92AF9268
:1021F000BF92CF92DF92EF92FF920F931F93CF93F4
:10220000DF93CDB7DEB7AA970FB6F894DEBF0FBE47
:10221000CDBFEF8EF8A209A31AA32BA33CA34DA315
:102220005EA36FA378A789A79AA78F8C98A0A9A06F
:10223000BAA08E01005F1F4F24E043E0C501B40146
:102240000E944E27CBA0DCA0EDA0FEA00F501109EC
:1022500024E043E0C701B6010E944E274CE05CE059
:1022600069E476E084E19CE00E94A90CFC01892BE2
:1022700041F0948190789C60948380829182A282C4
:10228000B3824CE05CE067E476E084E19CE00E948D
:10229000A90CFC01892B41F0948190789C60948377
:1022A000C082D182E282F382AA960FB6F894DEBF92
:1022B0000FBECDBFDF91CF911F910F91FF90EF9097
:1022C000DF90CF90BF90AF909F908F9008958F92A6
:1022D0009F92AF92BF92EF92FF920F931F93CF9373
:1022E000DF93CDB7DEB7A1970FB6F894DEBF0FBE70
:1022F000CDBF7C01FA01CB0119A2223008F42AE0FB
:102300008E010F5D1F4F822E912CA12CB12CBF018D
:10231000A50194010E94252DF901CA01015011095E
:102320006A3014F4605D01C0695CD8016C93232BA2
:10233000242B252B61F7B801C7010E94D118A19663
:102340000FB6F894DEBF0FBECDBFDF91CF911F91C6
:102350000F91FF90EF90BF90AF909F908F90089556
:10236000CF92DF92EF92FF92CF93DF93EC016A015D
:102370007B010E94E618BE018091311390913213C7
:102380000E94D608C0913113D0913213F7FE0DC0D0
:102390006DE2CE010E94CF0844275527BA014C199F
:1023A0005D096E097F092AE003C02AE0B701A60192
:1023B000CE010E94671164E273E0CE010E94D11841
:1023C00060E084EF91E0DF91CF91FF90EF90DF909C
:1023D000CF900C946218EF92FF920F931F93CF93BC
:1023E0008B01909126122CEF290F223028F464EFF4
:1023F00071E08BE396E00FC0923049F4482F50E033
:1024000060E070E08FE296E00E94B01106C064EFD9
:1024100071E084E296E00E94BF0F6FE176E087E210
:1024200092E10E94AB27009721F4F801108280E02E
:1024300020C0BC016A5F7F4FFB0101900020E9F7DB
:102440003197E61BF70BE737F10514F0CE2F01C0EB
:10245000C7E7EC2EF12CA701C8010E94F02EF8016D
:10246000EE0DFF1D108260E084EF91E00E94621883
:102470008C2FCF911F910F91FF90EF900895CF93E4
:10248000DF93809126128330F1F464EF71E084E1F0
:1024900096E00E94BF0F69E076E087E292E10E9439
:1024A000AB27EC01892B11F48FEF43C060E084EF80
:1024B00091E00E9462188A85803399F18C8581337E
:1024C000F1F483E036C0845064EF71E08230C8F0EC
:1024D00083EE95E00E94BF0F60ED75E087E292E128
:1024E0000E94AB27EC01892BF9F260E084EF91E0C8
:1024F0000E9462188A898535A1F08E34A1F481E0AA
:1025000018C08DEF95E00E94BF0F62EF75E087E283
:1025100092E10E94AB27009739F2FC0182858C3250
:1025200081F680E006C0823319F08333D1F7C9CF3A
:1025300082E0DF91CF910895CF93DF93EC0160E0CB
:1025400080E197E20E946218BE0187E292E10E9458
:10255000992721E0892B09F020E0822FDF91CF918C
:1025600008950F931F93CF93DF93EC0162E20E94D3
:10257000CF088C0164E273E0CE010E94D118800F75
:10258000911FDF91CF911F910F9108950F931F938A
:10259000CF938C01C62F0E94E61862EC75E0809103
:1025A0003113909132130E94D608B80180913113F3
:1025B000909132130E94D60880913113909132137A
:1025C000CC2319F06BEB75E002C06FEB75E0CF9197
:1025D0001F910F910C94D6080F931F93CF93DF9305
:1025E0008B0161E00E94C612C1E3D3E1B80188818A
:1025F00099810E94D608888199810E94B1128091A8
:102600002F1390913013DF91CF911F910F910C9464
:102610009C12CF93DF9360E00E94C612C1E3D3E126
:102620002AE041E050E060E070E0888199810E94FA
:10263000671164E273E0888199810E94D1188091CA
:102640002F1390913013DF91CF910C949C12EF9245
:10265000FF920F931F93CF93DF937C018B01EA01CD
:102660000E94E618B70180913113909132130E94B5
:10267000D60862E280913113909132130E94CF0804
:10268000B80180913113909132130E94D608809145
:102690003113909132130E94B11260E080E197E211
:1026A0000E946218BE0187E292E10E94992721E010
:1026B000892B09F020E0822FDF91CF911F910F919C
:1026C000FF90EF9008958F929F92AF92BF92CF921A
:1026D000DF92EF92FF920F931F93CF93DF931F929E
:1026E0001F92CDB7DEB75C016B0160910A0C70914F
:1026F0000B0C0091080C1091090C0115110521F02B
:10270000C8010E94C20B8C01E0900A0CF0900B0CE7
:102710000115110549F0F801848180788062848375
:102720001182108213821282F50180809180A28032
:10273000B3800115110589F0A70166E473E0C801B3
:102740000E94F50BFC01892B41F0948190789C60EC
:10275000948380829182A282B38201151105F1F0E7
:10276000A70168E473E0C8010E94F50B8C01892B76
:10277000A9F0DA82C982B701CE0101960E943C0C11
:102780009C01F801948190782115310529F095601C
:1027900094833183208302C0F801948381E00F90F9
:1027A0000F90DF91CF911F910F91FF90EF90DF90ED
:1027B000CF90BF90AF909F908F900895FC012081A3
:1027C0003181322723273227318320830895AC01BA
:1027D000FC018FEF9FEF70E09F01241B350B261744
:1027E000370790F42191822728E0DC01B695A79560
:1027F00080FF06C0CD0131E0832730EA932701C076
:10280000CD01215091F7E8CF0895FC01A089B1894D
:102810008C91A689B78982FD0FC09C91818D8F5FB5
:102820008F73228D821749F0218DDF01A20FB11D18
:102830005D969C93818F08958C910895362F90E03A
:10284000FC01EB58FA4F4491FC01EB53F94F2491F2
:10285000FC01E158F94F9491992309F46CC0442389
:1028600009F455C050E0FA013197E231F10508F062
:102870004EC08827EE58FF4F8F4F0C94472D809104
:1028800080008F7707C0809180008F7D03C080918A
:102890008000877F809380003AC084B58F7702C024
:1028A00084B58F7D84BD33C08091B0008F7703C025
:1028B0008091B0008F7D8093B00029C080919000FE
:1028C0008F7707C0809190008F7D03C0809190002A
:1028D000877F809390001BC08091A0008F7707C0F6
:1028E0008091A0008F7D03C08091A000877F80939E
:1028F000A0000DC0809120018F7707C0809120013A
:102900008F7D03C080912001877F80932001E92F74
:10291000F0E0EE0FFF1FE55BF94FA591B4919FB773
:10292000F894311104C08C912095282302C0EC91B9
:102930002E2B2C939FBF0895682F84EF9BE00C945F
:10294000F9058F929F92AF92BF92CF92DF92EF9252
:10295000FF920F931F93CF93DF9310911C0A1132B4
:1029600008F0C2C0082FD0911B0A0E9406196B0103
:102970007C01C091F309CC2311F18091F50990916C
:10298000F609A091F709B091F809892B8A2B8B2BB6
:1029900081F30E9406198090F5099090F609A090A5
:1029A000F709B090F809DC01CB018C199D09AE093B
:1029B000BF0988169906AA06BB06D8F681C082E030
:1029C0008093F3090093F2098FEF8093F10910923D
:1029D000F0091093EF09ABEFB9E0EFECF9E080E01C
:1029E000181721F09D9191938F5FFACF1092CE0925
:1029F0009091CE098D2F880F892B8093CE098091DD
:102A0000CD09813089F51092CD090E9406196B011C
:102A10007C018091CE098093BB008091F509909153
:102A2000F609A091F709B091F809892B8A2B8B2B15
:102A3000A9F00E9406190091F5091091F60920915C
:102A4000F7093091F809DC01CB018C199D09AE0919
:102A5000BF09081719072A073B0790F18091BC00AE
:102A600083FDD7CF85EC01C085EE8093BC000E942A
:102A700006196B017C018091F309823039F5809150
:102A8000F5099091F609A091F709B091F809892B01
:102A90008A2B8B2B81F30E9406190091F509109166
:102AA000F6092091F7093091F809DC01CB018C1966
:102AB0009D09AE09BF09081719072A073B07D8F671
:102AC0008091F4090E94140AC5E013C08091F109B5
:102AD0008F3F79F08091F109803241F08091F109C6
:102AE000803331F0C4E005C0C1E003C0C2E001C0E2
:102AF000C3E01092FA0910921C0A1092F9098C2F67
:102B0000DF91CF911F910F91FF90EF90DF90CF90C9
:102B1000BF90AF909F908F900895CF92DF92EF92E9
:102B2000FF920F931F93CF93DF93D82F813208F03A
:102B3000B9C00E9406196B017C01C091F309CC2336
:102B400031F18091F5099091F609A091F709B091C2
:102B5000F809892B8A2B8B2B81F30E94061900918F
:102B6000F5091091F6092091F7093091F809DC0177
:102B7000CB018C199D09AE09BF09081719072A074F
:102B80003B07D8F68091F4090E94140A8BC081E0BB
:102B90008093F3098093F2099FEF9093F1091092CB
:102BA000F0099D0F9093EF098093CE098091CE0993
:102BB000806D8093CE098091CD09813089F5109286
:102BC000CD090E9406196B017C018091CE0980938A
:102BD000BB008091F5099091F609A091F709B09199
:102BE000F809892B8A2B8B2BA9F00E9406190091DA
:102BF000F5091091F6092091F7093091F809DC01E7
:102C0000CB018C199D09AE09BF09081719072A07BE
:102C10003B0790F18091BC0083FDD7CF85EC01C0CC
:102C200085EE8093BC000E9406196B017C018091A7
:102C3000F309813031F58091F5099091F609A09161
:102C4000F709B091F809892B8A2B8B2B81F30E940D
:102C500006190091F5091091F6092091F7093091B4
:102C6000F809DC01CB018C199D09AE09BF090817D1
:102C700019072A073B07D8F68091F4090E94140A25
:102C800012C08091F0098D1710F4D091F009EFEC8B
:102C9000F9E0ADEAB9E0C0E0CD1729F081918D935C
:102CA000CF5FFACFC0E08C2FDF91CF911F910F91B2
:102CB000FF90EF90DF90CF900895EF92FF920F93E7
:102CC0001F93CF93DF931F92CDB7DEB77C01162FF2
:102CD000BE016F5F7F4F8EE00E949E0F811102C088
:102CE00080E086C0812F8370833009F41E7F81E0ED
:102CF0008093F90988E680931B0A1092FA091092D2
:102D00001C0A10FF18C087E090E00E949C14F70195
:102D100080816AE00E94052D292FF0E18F9FC0017C
:102D20001124822B912F9078892B90E00E949C1483
:102D30008981856006C08BE090E00E949C148981A7
:102D400086608983110FF70181810AE0602F0E945C
:102D5000052D292FF0E18F9FC0011124822B912F87
:102D60009078892B90E00E949C14110FF7018281CA
:102D7000602F0E94052D292FF0E18F9FC0011124A3
:102D8000822B912F9078892B90E00E949C14110F38
:102D9000412F4078F70116FF0CC08381602F0E94FD
:102DA000052DF0E18F9F90011124892F822B8064E3
:102DB0000AC08481602F0E94052D292FF0E18F9F8A
:102DC000C0011124822B842B90E00E949C1481E08E
:102DD0000E94A114811184CF69818EE00E94720F3C
:102DE00081117ECF110F110F812F829586958770EB
:102DF0000F90DF91CF911F910F91FF90EF90089569
:102E0000CF93DF931F921F92CDB7DEB71A8219823C
:102E1000BE016F5F7F4F8FE00E949E0F6981862FFA
:102E2000837021F06C7F8FE00E94720F8A8188236B
:102E300069F0BE016E5F7F4F8EE00E949E0F882377
:102E400029F06A816F778EE00E94720F898183700A
:102E50000F900F90DF91CF910895BF92CF92DF92A4
:102E6000EF92FF920F931F93CF93DF93CDB7DEB70F
:102E700027970FB6F894DEBF0FBECDBF80E00E944B
:102E80008C0F87E00E948D151092AC098093AB09DE
:102E9000873009F046C084EF9BE00E94B0050E9495
:102EA000B30FB82E84EF9BE00E94B0050E94B30FD1
:102EB000C82E84EF9BE00E94B005082F86FF0BC050
:102EC0008F710E94B30F05FD02C09CE001C090E02D
:102ED000182F190F04C08F730E94B30F182F84EF9F
:102EE0009BE00E94B0050E94B30FD82E84EF9BE0B8
:102EF0000E94B0050E94B30FE82E84EF9BE00E9471
:102F0000B00587FD02C000E001C004E68F770E9493
:102F1000B30FF82E84EF9BE00E94B0050E94B30F20
:102F2000080F2B2D3C2D412F5D2DB701802F90E0F8
:102F300027960FB6F894DEBF0FBECDBFDF91CF91BD
:102F40001F910F91FF90EF90DF90CF90BF90089569
:102F5000CF93DF93CDB7DEB727970FB6F894DEBFD8
:102F60000FBECDBF0E942D1729833A834B835C830C
:102F70008F838FE18D8382E08E8362E0CE010196A4
:102F80000E945D1661E0CE0101960E945D160E94CE
:102F9000001781E027960FB6F894DEBF0FBECDBFB5
:102FA000DF91CF910895CF92DF92EF92FF92CF936E
:102FB000DF93EC016A017B01E889F98982E0808373
:102FC0004115514E61057105B1F060E079E08DE386
:102FD00090E0A70196010E94252DDA01C901019711
:102FE000A109B109B695A795979587959C012115DB
:102FF00080E13807A8F0E889F989108260E874E870
:103000008EE190E0A70196010E94252DDA01C90109
:103010000197A109B109B695A795979587959C0148
:10302000EC85FD853083EE85FF852083188EEC8945
:10303000FD8986E08083EA89FB89808180618083C5
:10304000EA89FB89808188608083EA89FB898081A5
:1030500080688083EA89FB8980818F7D8083DF910E
:10306000CF91FF90EF90DF90CF90089560E084E0E3
:103070000E941E1460ED77E080E090E00E942B1922
:1030800061E084E00E941E146CED75E080E090E049
:103090000E942B1960E084E00E941E1468E873E12E
:1030A00080E090E00E942B1961E084E00E941E14F1
:1030B0006CED75E080E090E00E942B1960E084E008
:1030C0000C941E14FF920F931F93CF93DF93EC0188
:1030D000F62E209791F404EF11E0C0E0D0E030C06C
:1030E0008091311390913213DC01ED91FC910284B7
:1030F000F385E02D19958A3071F380913113909109
:103100003213DC01ED91FC910084F185E02D1995DD
:10311000892B31F72197F9F261E070E080E090E0CF
:103120000E942B19D6CF8091311390913213DC017C
:10313000ED91FC910284F385E02D19958D3071F4A9
:103140008091311390913213DC01ED91FC91008458
:10315000F185E02D1995892B31F70CC08A3021F4C7
:10316000209771F3FF2091F0FE01E75EFD4E868708
:103170002196E6CF0150110949F061E070E080E04E
:1031800090E00E942B19CE3FD105D0F2FE01E75E00
:10319000FD4E16868C2FDF91CF911F910F91FF90DE
:1031A00008956115710579F0FB0101900020E9F7A0
:1031B0003197AF01461B570BDC01ED91FC9102806A
:1031C000F381E02D199480E090E00895CF93DF9390
:1031D00080E090E0EC0121968897A8F489E192E1E3
:1031E0000E946A05892B39F089E192E10E9452051B
:1031F000C0E0D0E0F3CF61E070E080E090E00E94BA
:103200002B19CE01E7CFDF91CF9108953FB7F89406
:103210008091381390913913A0913A13B0913B13D8
:1032200026B5A89B05C02F3F19F00196A11DB11D21
:103230003FBFBA2FA92F982F8827820F911DA11D5C
:10324000B11DBC01CD0142E0660F771F881F991F99
:103250004A95D1F708958F929F92AF92BF92CF92E5
:10326000DF92EF92FF926B017C010E9406194B01E5
:103270005C01C114D104E104F104F1F00E940619CB
:10328000DC01CB0188199909AA09BB09883E934042
:10329000A105B10570F321E0C21AD108E108F108D7
:1032A00088EE880E83E0981EA11CB11CC114D104C5
:1032B000E104F10419F7DDCFFF90EF90DF90CF909C
:1032C000BF90AF909F908F9008951F920F920FB66E
:1032D0000F9211242F933F938F939F93AF93BF939C
:1032E0008091331390913413A0913513B09136131C
:1032F0003091371323E0230F2D3720F40196A11DC1
:10330000B11D05C026E8230F0296A11DB11D209313
:1033100037138093331390933413A0933513B093E2
:1033200036138091381390913913A0913A13B091CC
:103330003B130196A11DB11D80933813909339134F
:10334000A0933A13B0933B13BF91AF919F918F918C
:103350003F912F910F900FBE0F901F901895CF9314
:10336000DF93CDB7DEB7CD5BD1090FB6F894DEBFE2
:103370000FBECDBF789484B5826084BD84B5816072
:1033800084BD85B5826085BD85B5816085BD809130
:103390006E00816080936E001092810080918100A8
:1033A00082608093810080918100816080938100A0
:1033B000809180008160809380008091B100846062
:1033C0008093B1008091B00081608093B0008091C3
:1033D0009100826080939100809191008160809340
:1033E0009100809190008160809390008091A10075
:1033F00082608093A1008091A10081608093A100F0
:103400008091A00081608093A00080912101826062
:10341000809321018091210181608093210180911D
:10342000200181608093200180917A0084608093E4
:103430007A0080917A00826080937A0080917A008D
:10344000816080937A0080917A00806880937A000E
:103450001092C10040E052EC61E070E087E59BE033
:103460000E94D31740E855E260E070E08DE19AE0F9
:103470000E94D31784E00E94D61060E084E00E948E
:103480001E141092AC091092AB091092FA09109216
:103490001C0A0E94F6098EE995E090934D038093F3
:1034A0004C038FE995E090934B0380934A0360E0CF
:1034B0008EE00E94720F0E94A8170E94A8170E9417
:1034C0002D1729833A834B835C836D837E838F839F
:1034D00062E7CE0101960E945D1617E7E12E13E028
:1034E000F12E0FE6C02E03E0D02E83E6A82E83E057
:1034F000B82E96E0992E25E0822E34E0732E42E01D
:10350000642E53E0552E0E943618F0922713E09255
:103510002613D0922913C0922813B0922B13A09295
:103520002A1340E05BE460E070E08AEB9AE00E94DE
:10353000D3178AEB9AE090933213809331138091E2
:1035400025120E94D61061E0809125120E941E145F
:103550006AE070E080E090E00E942B1960E08091CA
:1035600025120E941E1464E670E080E090E00E9444
:103570002B1961E0809125120E941E140EE010E0CC
:103580008091311390913213DC01ED91FC91008414
:10359000F185E02D1995892B61F08091311390917F
:1035A0003213DC01ED91FC910284F385E02D199535
:1035B000E7CF60912F137091301344EF51E080E614
:1035C00093E00E94741081115DC08091311390913D
:1035D0003213DC01ED91FC910084F185E02D199509
:1035E000892B61F08091311390913213DC01ED91C0
:1035F000FC910284F385E02D1995E7CF44EF51E06B
:103600006AE573E08DE593E00E94741081113AC081
:1036100064EF71E080E090E00E942B1901501109E5
:1036200009F0AECF60912F137091301344EF51E049
:1036300087E593E00E94741064E670E080E090E01B
:103640000E942B1960912F137091301344EF51E0B9
:1036500084E593E00E94741064E670E080E090E0FE
:103660000E942B1960912F137091301344EF51E099
:1036700081E593E00E94741064E670E080E090E0E1
:103680000E942B1960912F137091301344EF51E079
:103690008CE493E00E94741064E670E080E090E0B7
:1036A0000E942B1960912F137091301344EF51E059
:1036B00087E493E00E947410882309F48AC0609123
:1036C0002F137091301344EF51E08DE393E00E948B
:1036D000741064E670E080E090E00E942B190E9474
:1036E000E61862E972E080913113909132130E94E2
:1036F000C21061E084EF91E00E94621862E373E01F
:1037000087E292E10E94AB27892B19F05092261292
:103710002CC067E273E087E292E10E94AB27892B1D
:1037200019F06092261221C06CE173E087E292E109
:103730000E94AB27892B21F081E08093261215C0CF
:103740006CE073E087E292E10E94AB27892B19F0CD
:10375000709226120AC06CEF72E087E292E10E943A
:10376000AB27892B11F0809226128091261281308E
:10377000B9F466E972E080913113909132130E949E
:10378000C21061E084EF91E00E94621864EF72E081
:1037900087E292E10E94AB27892B11F090922612CA
:1037A00060912F137091301344EF51E08DED92E052
:1037B0000E9474100E945A10CE0101960E94E00FE0
:1037C0000E948910CA54DF4F8883C65BD0408111A4
:1037D00003C00E94361897CEE5EAF0E0EC0FFD1F1B
:1037E0003296CC54DF4FF983E883C45BD04021E9A3
:1037F00030E02C0F3D1F285F3F4FC954DF4F398306
:103800002883C75BD04085E890E08C0F9D1F04960D
:10381000C754DF4F99838883C95BD0400E9400174B
:1038200081FD02C00C94E8250E942D1720935F09AA
:103830003093600940936109509362096093630972
:103840007093640980936509832F6AE00E94052DB7
:1038500091110C94E82580910C0C90910D0C909393
:103860000F0C80930E0C8091120C9091130C90937E
:10387000110C8093100C8091180C80788093180C98
:103880004CE05CE063E775E084E19CE00E94A90CF9
:10389000009781F0DC0114962C9114972078206415
:1038A00014962C93149711961C921E9213961C92A8
:1038B0001E9212979093050C8093040C2CE03CE030
:1038C0003093070C2093060C009719F0B9010E9461
:1038D000C20B4091060C5091070C009749F0FC0177
:1038E0002481207820622483118210821382128224
:1038F0009093010C8093000C5093030C4093020CA6
:10390000009779F06DE972E00E94F50BFC01892BBC
:1039100041F094819078946094838FE992E0918350
:103920008083E090020CF090030C0091000C109149
:10393000010C0115110581F061E775E0D8018D9149
:103940009C910E949F0B009731F4A70161E775E0FD
:10395000C8010E946D0C8C012091020C3091030C67
:103960000115110549F0F801848180788064848311
:1039700011821082138212821093090C0093080C9A
:1039800030930B0C20930A0C909160098E010F5F0D
:103990001F4F809161094091630930916409209122
:1039A00065099A30F0F48A30E0F41F929F931F92D9
:1039B0008F931F924F931F923F931F922F9385EAED
:1039C00092E09F938F931F930F930E94FF2E2DB72A
:1039D0003EB7225F3F4F0FB6F8943EBF0FBE2DBFDC
:1039E00054C08A30D8F41F929F931F928F931F92D6
:1039F0004F931F923F931F922F938BEB92E09F93D5
:103A00008F931F930F930E94FF2E8DB79EB70E9634
:103A10000FB6F8949EBF0FBE8DBF37C09A30D8F452
:103A20001F929F931F928F931F924F931F923F93CA
:103A30001F922F9380ED92E09F938F931F930F938C
:103A40000E94FF2EADB7BEB71E960FB6F894BEBF4C
:103A50000FBEADBF1AC01F929F931F928F931F92EC
:103A60004F931F923F931F922F9385EE92E09F9367
:103A70008F931F930F930E94FF2EEDB7FEB73E96D4
:103A80000FB6F894FEBF0FBEEDBF4CE05CE06FE6F2
:103A900075E084E19CE00E94A90C7C01892B79F1FE
:103AA000F80101900020E9F7AF01401B510BC090D5
:103AB0000E0CD0900F0CC601840F951F2091100C96
:103AC0003091110C2817390710F40C94EC259093C1
:103AD0000F0C80930E0CC114D10411F40C94EC253E
:103AE000B801C6010E94D32ED70114968C91149769
:103AF0008078856014968C931497CD92DC920E9406
:103B000089100E943F128230ACF587E89AECAEEC47
:103B1000B2EC8093530990935409A0935509B09344
:103B2000560985E294E9A4EAB1E480935709909399
:103B30005809A0935909B0935A0980E090EAADEB77
:103B4000B4E480935B0990935C09A0935D09B09302
:103B50005E09B7E8EB2EF0905409009155091091D9
:103B6000560925E2309158094091590950915A0956
:103B700060E066C2B80180E20E94EB11882329F25E
:103B8000809126129CEF980F69EF72E0923008F056
:103B9000CEC0C8010E94C5276C01892B09F4B5CF9E
:103BA00069EF72E080E090E00E94C527C055DF4FCA
:103BB00099838883C05BD040892B09F4A6CF69EF35
:103BC00072E080E090E00E94C5277C01892B09F417
:103BD0009CCF69EF72E080E090E00E94C527CE5450
:103BE000DF4F99838883C25BD040892B09F48DCF46
:103BF00069EF72E080E090E00E94C52769EF72E013
:103C000080E090E00E94C52769EF72E080E090E0DC
:103C10000E94C527009709F478CF0E946E27162FBF
:103C2000772E082F692E69EF72E080E090E00E9405
:103C3000C527009709F469CF0E946E2769EF72E0EB
:103C400080E090E00E94C527009709F45ECF0E94B3
:103C50006E27C6010E946E274B015C01C7010E94BE
:103C60006E271B012C0120E030E048EC52E4C50136
:103C7000B4010E94D02D0E94712E6B017C0120E0C6
:103C800030E048EC52E40E942A2C9B01AC01C501B3
:103C9000B4010E94632D20E030E040E752E40E942E
:103CA000D02DA70196010E94642D6B017C01C055A7
:103CB000DF4FE881F981C05BD0408081833521F4FA
:103CC000F7FAF094F7F8F09420E030E048EC52E492
:103CD000C201B1010E94D02D0E94712E4B015C01E6
:103CE00020E030E048EC52E40E942A2C9B01AC0119
:103CF000C201B1010E94632D20E030E040E752E4B0
:103D00000E94D02DA50194010E94642D4B015C01FD
:103D1000CE54DF4FA881B981C25BD0408C918735EA
:103D200009F05BC1B7FAB094B7F8B09456C18330CC
:103D300009F05CC0C8010E94C527892B09F4E5CEB3
:103D400069EF72E080E090E00E94C527892B09F4BA
:103D5000DCCE69EF72E080E090E00E94C527892BFD
:103D600009F4D3CE69EF72E080E090E00E94C527AD
:103D70007C01892B09F4C9CE69EF72E080E090E004
:103D80000E94C5278C01892B09F4BFCEC7010E9470
:103D90006E276B017C01C8010E946E274B015C01FC
:103DA00069EF72E080E090E00E94C527009709F477
:103DB000ACCE0E946E27162F772E082F692E69EF42
:103DC00072E080E090E00E94C527009709F49DCE44
:103DD0000E946E2769EF72E080E090E00E94C527A4
:103DE000009709F492CE0E946E27F7C0C8010E9486
:103DF000C527892B09F489CE69EF72E080E090E055
:103E00000E94C527892B09F480CE69EF72E080E01B
:103E100090E00E94C527892B09F477CE69EF72E004
:103E200080E090E00E94C5276C01892B09F46DCEDB
:103E300069EF72E080E090E00E94C5271C01892BA9
:103E400009F463CE69EF72E080E090E00E94C5273C
:103E50007C01892B09F459CE69EF72E080E090E093
:103E60000E94C527C055DF4F99838883C05BD0402F
:103E7000892B09F44ACEC6010E946E272B013C0112
:103E8000C7010E946E274B015C0120E030E048EC46
:103E900052E4C301B2010E94D02D0E94712E6B0129
:103EA0007C0120E030E048EC52E40E942A2C9B0187
:103EB000AC01C301B2010E94632D20E030E040E775
:103EC00052E40E94D02DA70196010E94642D6B013F
:103ED0007C01F1018081833521F4F7FAF094F7F841
:103EE000F09420E030E048EC52E4C501B4010E94B7
:103EF000D02D0E94712E2B013C0120E030E048ECD7
:103F000052E40E942A2C9B01AC01C501B4010E941D
:103F1000632D20E030E040E752E40E94D02DA30161
:103F200092010E94642D4B015C01C055DF4FA881B6
:103F3000B981C05BD0408C91873521F4B7FAB09439
:103F4000B7F8B09469EF72E080E090E00E94C52776
:103F5000009709F4DACD0E946E2769EF72E080E0E5
:103F600090E00E94C527009709F4CFCD0E946E27EC
:103F70000E943F1283300CF4C8CDB80180E00E944B
:103F8000EB11882309F4C1CD69EF72E0C8010E94EA
:103F9000C527892B09F4B9CD69EF72E080E090E084
:103FA0000E94C527892B09F4B0CD69EF72E080E04B
:103FB00090E00E94C527892B09F4A7CD69EF72E034
:103FC00080E090E00E94C527009709F49ECD0E94F2
:103FD0006E27162F772E082F692ECA54DF4FB8810F
:103FE000C65BD040BB2309F490CD809253099092D8
:103FF0005409A0925509B09256092C2DC092570928
:10400000D0925809E0925909F0925A09612F812FF4
:10401000972DA02FB62D80935B0990935C09A093F8
:104020005D09B0935E09E82CF090540900915509A0
:1040300010915609309158094091590950915A09E7
:1040400070915C0980915D0990915E090E94F51064
:10405000E0E1F2E0C055DF4FF983E883C05BD04078
:10406000F9E74F2E512C4C0E5D1EF4E04F0E511C03
:10407000ADE92A2E312C2C0E3D1E24E0220E311CDF
:10408000C055DF4FA881B981C05BD0408D91C0552C
:10409000DF4FB983A883C05BD04090EF980F903179
:1040A000D8F090EE980F9032E8F090EC980F9031A5
:1040B00030F190EB980F9031E0F090EA980F903546
:1040C000F0F090E5980F9031D0F4F1E0C155DF4F5A
:1040D000F883CF5AD04013C0C155DF4F1882CF5A52
:1040E000D0400DC0B3E0C155DF4FB883CF5AD040A8
:1040F00006C0E4E0C155DF4FE883CF5AD0408E01BF
:104100000F5F1F4F98E0D8011D929A95E9F78983B8
:1041100083E08A83C155DF4FB881CF5AD040B23097
:1041200009F118F4B13081F009C0C155DF4FE881C1
:10413000CF5AD040E33021F1E43041F1809152096F
:104140008F5F809352092BC0809151098F5F8093BC
:10415000510980E092E09C838B839E838D83E4E011
:10416000FE2E23C0809150098F5F8093500980E01C
:1041700091E09C838B839E838D8372E0F72E15C024
:1041800080914F098F5F80934F0909C080914E093C
:104190008F5F80934E0980E09EE19C838B8380E05B
:1041A00093E09E838D8366E0F62E66E0C8010E9450
:1041B000E71398878F83F5E0CE54DF4FF883C25B17
:1041C000D040CF2CD12C25E0C20ED11C85E08F0D24
:1041D000A82FB0E0C554DF4FB983A883CB5BD04094
:1041E000B3E0BF0DC354DF4FB883CD5BD0406DB695
:1041F0007EB6EDB7FEB7EC19FD090FB6F894FEBF19
:104200000FBEEDBF2DB73EB72F5F3F4F790148E09E
:1042100050E0B8018DE19AE00E94F30388EE93E04C
:10422000A0E0B0E08093210A9093220AA093230A91
:10423000B093240A5701812C912C2FB7F8948091C8
:10424000331390913413A0913513B09136132FBFCF
:104250008093250A9093260AA093270AB093280AF0
:104260008DE19AE00E942C0497FFBFC42FB7F89409
:104270008091331390913413A0913513B09136137C
:104280002FBF4091250A5091260A6091270A70910C
:10429000280A841B950BA60BB70B4091210A50915D
:1042A000220A6091230A7091240A84179507A607B1
:1042B000B707B0F28C149D0409F095C2C354DF4FC8
:1042C0006881CD5BD040C7010E94E713C554DF4F22
:1042D00048815981CB5BD0404E0D5F1DFA0131976B
:1042E000208130E0322F222731974081242B28175C
:1042F000390709F078C2C155DF4F9881CF5AD040B5
:10430000923009F418C120F4913009F4A4C00BC014
:10431000C155DF4FA881CF5AD040A33009F443C123
:10432000A43009F4E1C186E0F7013396DE01AB5514
:10433000BF4F01900D928A95E1F7CC54DF4F8881F1
:104340009981C45BD0400E94DE13CE018B559F4FF4
:104350000E94DE1385EA90E08C0F9D1F04960E9458
:10436000DE13C955DF4F68817981C75AD04080E09C
:1043700090E00E94C92B20E030E048EC52E40E941B
:10438000D02D4B015C01CB55DF4F68817981C55A37
:10439000D04080E090E00E94C92B20E030E048EC63
:1043A00052E40E94D02D6B017C01C755DF4F68811C
:1043B0007981C95AD04080E090E00E94C92B2091B9
:1043C0005209CF56DF4F88829982AA82BB82C15997
:1043D000D040CB56DF4FC882D982EA82FB82C559D2
:1043E000D040C756DF4F688379838A839B83C9593E
:1043F000D0402130B9F0223009F008C26CE575E0F8
:10440000C954DF4F88819981C75BD0400E946313F4
:1044100068E575E0CE018F569F4F0E94631363E5F8
:1044200075E013C06AE675E0C954DF4F8881998151
:10443000C75BD0400E94631366E675E0CE018F56DD
:104440009F4F0E94631361E675E081E990E08C0F55
:104450009D1F04966DC0F70183819481A581B6816B
:10446000CB55DF4F88839983AA83BB83C55AD0403D
:10447000CE018B559F4F0E94DE13CC54DF4F8881B5
:104480009981C45BD0400E94DE13CB55DF4F688119
:104490007981C55AD04080E090E00E94C92B20E08D
:1044A00030E040E251E40E94D02D6B017C01C955FF
:1044B000DF4F68817981C75AD04080E090E00E9448
:1044C000C92B20E030E048EC52E40E94D02D20E0DF
:1044D00030E040EA51E40E94632D20915109C35617
:1044E000DF4FC882D982EA82FB82CD59D040CF55B6
:1044F000DF4F688379838A839B83C15AD040213000
:1045000069F0223009F082C167E475E0CE0183567C
:104510009F4F0E94631363E475E009C06FE475E088
:10452000CE0183569F4F0E9463136BE475E0C10177
:104530000E9463136BC1D70113968D919C911497C0
:10454000CB55DF4F99838883C55AD040CE018B5518
:104550009F4F0E94DE13CB55DF4F68817981C55A8A
:10456000D04080E090E00E94C92B20E030E048EC91
:1045700052E40E94D02D20915009C555DF4F688329
:1045800079838A839B83CB5AD040213031F022300B
:1045900009F03CC16BE375E002C06FE375E0CE014A
:1045A00085559F4FC5CF86E0F7013396DE01AB55A9
:1045B000BF4F01900D928A95E1F7CE018B559F4F29
:1045C0000E94DE13CC54DF4F88819981C45BD040B8
:1045D0000E94DE1385EA90E08C0F9D1F04960E94D6
:1045E000DE13CB55DF4F68817981C55AD04080E01A
:1045F00090E00E94C92B20E030E048EC52E40E9499
:10460000D02D20E030E040E252E40E94632D4B01C7
:104610005C01C955DF4F68817981C75AD04080E07D
:1046200090E00E94C92B20E030E048EC52E40E9468
:10463000D02D6B017C01C755DF4F68817981C95A44
:10464000D04080E090E00E94C92B20E030E040E2C2
:1046500051E40E94D02D20914F09CB57DF4F888223
:104660009982AA82BB82C558D040C757DF4FC88203
:10467000D982EA82FB82C958D040C357DF4F688392
:1046800079838A839B83CD58D0402130B9F0223082
:1046900009F0BCC06AE275E0CE018B579F4F0E94C3
:1046A000631367E275E0C754DF4F88819981C95B66
:1046B000D0400E94631363E275E013C067E375E0C6
:1046C000CE018B579F4F0E94631362E375E0C7547E
:1046D000DF4F88819981C95BD0400E9463136DE2EE
:1046E00075E085E890E07BC086E0F7013396DE0157
:1046F000AB55BF4F01900D928A95E1F7CE018B55D6
:104700009F4F0E94DE13CC54DF4F88819981C45B98
:10471000D0400E94DE1385EA90E08C0F9D1F049626
:104720000E94DE13CB55DF4F68817981C55AD04096
:1047300080E090E00E94C92B4B015C01C955DF4F1E
:1047400068817981C75AD04080E090E00E94C92BEF
:104750006B017C01C755DF4F68817981C95AD04010
:1047600080E090E00E94C92B20914E09ED968CAE1E
:104770009DAEAEAEBFAEED97C358DF4FC882D982B3
:10478000EA82FB82CD57D040CF57DF4F68837983D1
:104790008A839B83C158D040213089F02230B1F503
:1047A0006FE075E0CE0187589F4F0E9463136AE067
:1047B00075E0C2010E94631365E075E00EC06EE112
:1047C00075E0CE0187589F4F0E94631369E175E041
:1047D000C2010E94631364E175E089E790E08C0FE9
:1047E0009D1F0896A5CE0FB6F8947EBE0FBE6DBE77
:1047F000CE54DF4FB881C25BD040B150CE54DF4FB2
:10480000B883C25BD040B111F2CC05C00FB6F894AA
:104810007EBE0FBE6DBEC055DF4FE881F981C05B23
:10482000D040E451F24009F02BCC10925209109282
:1048300051091092500910924F0910924E0983E0CD
:10484000982E9CED292E94E0392E2EE4A22E23E002
:10485000B22E3DE4432E39E0532E44E1642E4CE069
:10486000742ECB55DF4F19821882C55AD04080EF85
:1048700094E09093271380932613A8EEB4E0B093AE
:104880002913A093281330922B1320922A131092ED
:104890004E035A824982BC82AB821E821D82611401
:1048A000710431F0B80184E19CE00E94EF0C05C076
:1048B0006BEF72E0C8010E94D90C0E945A10C80127
:1048C0000E94E00F40E25EE468EB74E080EC94E06C
:1048D0000E94741060912F137091301340E157E2E1
:1048E0008DEA94E00E947410882309F4AFC06091AF
:1048F0002F137091301340E157E28FE894E00E944B
:104900007410882309F4A2C06091261370912713B4
:1049100061157105C1F460912F137091301340E35C
:1049200055E78BE394E00E947410882309F48EC04D
:1049300060912F137091301340E157E282E394E0CD
:104940000E94741083C040912F13509130138BE755
:1049500094E00E942713882309F478C00E94E61887
:1049600061E774E080913113909132130E94D60870
:104970006091261370912713809131139091321317
:104980000E94D6088091281390912913892B91F0C9
:1049900060E073E080913113909132130E94D1183E
:1049A00060912813709129138091311390913213E3
:1049B0000E94D60880912A1390912B13892B91F095
:1049C00060E073E080913113909132130E94D1180E
:1049D00060912A1370912B138091311390913213AF
:1049E0000E94D60862E073E08091311390913213F7
:1049F0000E94C21080912F13909130130E949C123C
:104A0000882321F160912813709129136115710594
:104A100041F460912A1370912B136115710561F4B3
:104A20007ACF40912F13509130138CE594E00E947F
:104A300027138111EECF0AC040912F1350913013EC
:104A400088E494E00E942713811165CF20E0A8013B
:104A50006FE174E088E294E00E943A10F501019061
:104A60000020E9F731979F012E543340790160917E
:104A70002F137091301344EF51E080E094E00E94D6
:104A8000741060912F137091301344EF51E084EF54
:104A900093E00E947410882309F487C083E194E0B6
:104AA0000E940913882309F480C060912D1370912E
:104AB0002E1380E194E00E94EC12882309F475C063
:104AC00061E08CE094E00E94C61264E073E08091A3
:104AD0003113909132130E94D1188091311390912B
:104AE00032130E94B11280912F13909130130E94C3
:104AF0009C12882309F459C080912C138823D1F08B
:104B00008EEE93E00E940913882309F44EC0C090F2
:104B10002F13D090301341E050E060E070E082EE5F
:104B200093E00E94B011B60187E292E10E949927BA
:104B3000892BD9F56BEC74E087E194E00E94EC12CC
:104B4000882399F10E94E61865ED73E08091311396
:104B5000909132130E94D608A70160E070E02AE02D
:104B600080913113909132130E94671169EF72E0C6
:104B700080913113909132130E94D118C09031135B
:104B8000D09032132AE040E157E260E070E0C601C5
:104B90000E94671164E273E0C6010E94D1188CEC98
:104BA00093E00E949C1281114FC0F12C60912F1351
:104BB0007091301344EF51E080E094E00E94741053
:104BC00089819A818039B1E09B07D1F4FF2099F166
:104BD0000E9409050C940E1CD70114968C91149711
:104BE000807814968C930C947F1DF50181935F015E
:104BF000FFEF8F1A9F0A8C149D0408F41ECB5ACB2A
:104C00008139E1E09E0748F4883C9105F9F28C3C3B
:104C10009105E1F2892B61F4D9CF8935F2E09F0744
:104C2000A9F28B3522E0920789F28439914071F222
:104C30000E943618CBCF89819A81883C910541F238
:104C40009A9491100ECEC4CF80913113909132136B
:104C5000DC01ED91FC910280F381E02DA7016EE46F
:104C600073E0199580912F13909130130E949C123C
:104C7000882309F49ACFE0902F13F090301341E08D
:104C800050E060E070E086EA93E00E94B011B70166
:104C900087E292E10E949927892B09F086CF60E094
:104CA00080E197E20E94621841E0B80189E993E04F
:104CB0000E940710882309F478CF42E0BE016B55AB
:104CC0007F4F8CE893E00E940710882309F46DCF92
:104CD00064EF71E080EC93E00E94BF0F40E0BE0102
:104CE0006B557F4F85EB93E00E940710F82E5ECF47
:104CF000EDE1FAE01382128288EE93E0A0E0B0E0EA
:104D000084839583A683B78320E632E031832083B2
:104D100045ED50E05587448744ED50E0578746877E
:104D200040ED50E0518B408B41ED50E0538B428B76
:104D300042ED50E0558B448B46ED50E0578B468B4F
:104D4000118E128E138E148EEAEBFAE01382128209
:104D500084839583A683B783318320834DEC50E011
:104D6000558744874CEC50E05787468748EC50E025
:104D7000518B408B49EC50E0538B428B4AEC50E016
:104D8000558B448B4EEC50E0578B468B118E128E18
:104D9000138E148EE7E5FBE01382128284839583E1
:104DA000A683B7833183208325EC30E035872487C1
:104DB00024EC30E03787268720EC30E0318B208BE5
:104DC00021EC30E0338B228B22EC30E0358B248BCE
:104DD00026EC30E0378B268B118E128E138E148EBC
:104DE000E4EFFBE01382128284839583A683B7836A
:104DF00022E732E031832083ECE0FCE029E13CE073
:104E0000318320833383228329E132E13583248374
:104E100037832683248520782487E8E0FCE011820C
:104E2000108213821282E4E0FCE01182108213826D
:104E30001282E0E0FCE01182108213821282E9E12A
:104E4000F2E11382128284839583A683B78384E878
:104E500092E09183808384E0848784E797E0909355
:104E6000271380932613109229131092281310925F
:104E70002B1310922A1310923213109231131092A6
:104E80002C138FE697E090932E1380932D138CE6CE
:104E900097E09093301380932F130895EF920F9320
:104EA0001F93CF93DF93E80147FD02C034E001C0B8
:104EB00034E1042E000C550B57FF03C0519541956A
:104EC0005109E32E022F242FAE010E94F827CE01B4
:104ED000DF91CF911F910F91EF900895662777276B
:104EE0000C946F29FC0188279927E894219120329E
:104EF000E9F3293010F02E30C8F32B3241F02D3277
:104F000039F4689404C00E94F027820F911D21910A
:104F100020532A30C0F31EF4909581959F4F089539
:104F2000FB01DC0102C005900D9241505040D8F7C2
:104F30000895FB01DC018D91059080190110D9F3D2
:104F4000990B0895FC0105900020E9F78095909554
:104F50008E0F9F1F0895FB0155915523A9F0BF01A6
:104F6000DC014D9145174111E1F759F4CD01059050
:104F7000002049F04D9140154111C9F3FB01411149
:104F8000EFCF81E090E0019708954CE353E10C945A
:104F9000C927FA01A191B081009719F41097E1F0A7
:104FA000CD01DC01CD010D90002011F4C00113C032
:104FB000FB012191222319F02015D9F7F3CFFB0132
:104FC0002191201519F41E92119606C02223C1F7D3
:104FD0000D900020A1F7D001FA01A193B0830895AC
:104FE0007AE0979F902D879F802D910D1124089531
:104FF0008F929F92AF92BF92CF92DF92EF92FF92E9
:105000000F931F93CF93DF93CDB7DEB729970FB6DA
:10501000F894DEBF0FBECDBF6A01122FB02E2BE376
:10502000201720F0FF24F394F00E02C02CE3F22EA0
:105030000F2D27E0AE014F5F5F4F0E94CB2ABC01CE
:105040004981842F8970813031F0E1FC06C0E0FE97
:1050500006C090E205C09DE203C09BE201C090E063
:105060005E2D507143FF3CC0911102C083E001C02E
:1050700084E0811718F4212F281B01C020E0511172
:105080000BC0F601822F30E2882319F03193815052
:10509000FBCFC20ED11C20E0992329F0D6019C93AE
:1050A000F60131966F01C6010396E2FE0AC03EE4A6
:1050B000D6013C9341E411964C93119712963C9380
:1050C00006C03EE6F601308341E641833283FC01AF
:1050D000322F40E2332309F442C041933150FACFDA
:1050E00042FF44C0911102C083E001C084E08117F7
:1050F00018F4212F281B01C020E051110BC0F6012C
:10510000822F30E2882319F031938150FBCFC20EF9
:10511000D11C20E0992329F0D6019C93F601319609
:105120006F01C6010396E2FE0BC039E4D6013C9341
:105130003EE411963C93119736E412963C9307C0D7
:1051400039E6F60130833EE6318336E63283FC01F0
:10515000322F40E2332319F041933150FBCFFC0151
:10516000E20FF11D10828EEF9FEFA6C021E030E02C
:10517000911102C020E030E0161617061CF4FB0166
:10518000319602C0E1E0F0E02E0F3F1FBB2021F07E
:10519000EB2DF0E0319602C0E0E0F0E02E0F3F1F73
:1051A000E12FF0E02E173F071CF4121B212F01C046
:1051B00020E08E2D887159F4F601822F30E2882389
:1051C00019F031938150FBCFC20ED11C20E09923FE
:1051D00029F0D6019C93F60131966F0151110BC055
:1051E000F601822F90E3882319F091938150FBCF31
:1051F000C20ED11C20E00F2D060F9A81342F307182
:1052000044FF03C0913309F40150101624F409300F
:1052100018F008E001C001E0AB0177FF02C040E0F8
:1052200050E0FB01E41BF50BA1E0B0E0AC0FBD1FAB
:10523000EA0FFB1F8EE2A82E4B01801A91080B2D5E
:1052400010E01195019511094F3FBFEF5B0721F465
:10525000D601AC9211966D01641775072CF0841677
:10526000950614F4818101C080E3415051093196C3
:10527000D60111967D014017510724F0D6018C9379
:105280006701E2CF6417750739F4963320F495333C
:1052900019F4311101C081E3F6018083F701822FF7
:1052A00090E2882319F091938150FBCFF701E20F30
:1052B000F11D108280E090E029960FB6F894DEBFD1
:1052C0000FBECDBFDF91CF911F910F91FF90EF9057
:1052D000DF90CF90BF90AF909F908F9008958F9266
:1052E0009F92AF92BF92CF92DF92EF92FF920F9375
:1052F0001F93CF93DF93EC016B016115710519F0DA
:10530000FB01918380837E01FFEFEF1AFF0A088182
:10531000802F90E00E94A32B892B11F0E701F3CF9F
:105320000D3239F47E0182E0E80EF11C098111E0B2
:1053300008C00B3229F47E0192E0E90EF11C0981CC
:1053400010E0E701219743E050E060EB71E0CE010F
:105350000E94AC2B892BC1F4239645E050E06BEA08
:1053600071E0CE010E94AC2B892B09F42596C11463
:10537000D10419F0F601D183C0831111F6C060E0A9
:1053800070E080E89FE7FAC043E050E068EA71E02F
:10539000CE010E94AC2B892B59F4C114D10409F41D
:1053A000E9C0F2E0EF0EF11CF601F182E082E2C00A
:1053B00020E030E0A901C0E0D0E0F70160EDA62ECA
:1053C000A00E89E08A1530F1912F9260B92E812FBD
:1053D000887012FF04C0811124C0219622C081115F
:1053E0002197A5E0B0E00E94EB2CDC01CB01880FF7
:1053F000991FAA1FBB1F9C01AD012A0D311D411D24
:10540000511D283989E93807480789E1580748F0CC
:10541000166006C09EEFA9120AC013FD40C01860B6
:10542000B12E8FEFE81AF80A00811B2DC6CF802F0E
:105430008F7D8534A1F580818D3211F4106106C015
:105440008B3221F0319661E070E004C081813296A8
:1054500062E070E080538A3018F0E61BF70B1FC043
:1054600060E070E060389CE079075CF4DB01AA0F33
:10547000BB1FAA0FBB1F6A0F7B1F660F771F680F2A
:10548000711D3196DF0111978C9180538A3050F352
:1054900014FF03C0719561957109C60FD71F11FFE5
:1054A00008C0C114D10429F0CF010197F6019183FE
:1054B0008083CA01B9010E94C92B212F2370233098
:1054C00019F04B015C0106C04B015C01B7FAB094C6
:1054D000B7F8B09420E030E0A901C501B4010E9402
:1054E000C42B882309F43EC0D7FF06C0D195C195CF
:1054F000D10907EC11E002C00FED11E06801F8E1FD
:10550000CF1AD10890E2E92EF12CCE15DF0574F008
:10551000F8012591359145915491C501B4010E943E
:105520002A2C4B015C01CE19DF09EFCF0450110981
:10553000F594E7940C151D0541F78A2D880F8B2DE6
:10554000881F8F3F49F020E030E0A901C501B40178
:105550000E94C42B811106C082E290E090933F1319
:1055600080933E13C501B40109C060E070E080E89B
:105570009FEF04C060E070E080EC9FE7DF91CF9187
:105580001F910F91FF90EF90DF90CF90BF90AF9061
:105590009F908F900895283008F027E03327DA0194
:1055A000990F311D87FD916000966105710539F4F1
:1055B00032602E5F3D9330E32A95E1F708959F3FD7
:1055C00030F080387105610509F03C5F3C5F3D9328
:1055D000913008F08068911DDF93CF931F930F9354
:1055E000FF92EF92192F987F9695E92F96959695B1
:1055F000E90FFF27E35CFD4F99273327EE24FF24B3
:10560000A701E70105900894079428F4360FE71ED8
:10561000F81E491F511D660F771F881F991F06949A
:10562000A1F70590079428F4E70EF81E491F561FAE
:10563000C11D770F881F991F661F0694A1F705905B
:10564000079428F4F80E491F561FC71FD11D880F55
:10565000991F661F771F0694A1F70590079420F401
:10566000490F561FC71FD81F990F661F771F881F26
:105670000694A9F784911095177041F0D695C795B7
:1056800057954795F794E7941A95C1F7E3EEF1E043
:1056900068941590159135916591959105907FE2EB
:1056A0007395E118F10A430B560BC90BD009C0F7EB
:1056B000E10CF11E431F561FC91FD01D7EF470332D
:1056C00011F48A95E6CFE894015030F0080F0AF4FF
:1056D0000027021708F4202F2395022F7A3328F091
:1056E00079E37D932A95E9F710C07D932A9589F691
:1056F000069497956795379517951794E118F10AD1
:10570000430B560BC90BD00998F023957E917395E6
:105710007A3308F070E37C932013B8F77E917061C0
:105720007D9330F0839571E37D9370E32A95E1F7E3
:105730001124EF90FF900F911F91CF91DF91992746
:1057400087FD9095089591110C94972C803219F053
:1057500089508550C8F70895FB01DC014150504045
:1057600088F08D9181341CF08B350CF4805E65914E
:1057700061341CF06B350CF4605E861B611171F3B3
:10578000990B0895881BFCCF0E94062C08F481E039
:105790000895E89409C097FB3EF490958095709524
:1057A00061957F4F8F4F9F4F9923A9F0F92F96E96D
:1057B000BB279395F695879577956795B795F111E2
:1057C000F8CFFAF4BB0F11F460FF1BC06F5F7F4F7F
:1057D0008F4F9F4F16C0882311F096E911C0772391
:1057E00021F09EE8872F762F05C0662371F096E89A
:1057F000862F70E060E02AF09A95660F771F881F69
:10580000DAF7880F9695879597F90895990F00080C
:10581000550FAA0BE0E8FEEF16161706E807F90782
:10582000C0F012161306E407F50798F0621B730B1D
:10583000840B950B39F40A2661F0232B242B252B9E
:1058400021F408950A2609F4A140A6958FEF811D41
:10585000811D08950E943D2C0C94B12C0E94A32C14
:1058600038F00E94AA2C20F0952311F00C949A2C69
:105870000C94A02C11240C94E52C0E94C22C70F3E3
:10588000959FC1F3950F50E0551F629FF001729FE5
:10589000BB27F00DB11D639FAA27F00DB11DAA1FF4
:1058A000649F6627B00DA11D661F829F2227B00D41
:1058B000A11D621F739FB00DA11D621F839FA00DCC
:1058C000611D221F749F3327A00D611D231F849F1C
:1058D000600D211D822F762F6A2F11249F57504073
:1058E0009AF0F1F088234AF0EE0FFF1FBB1F661FEE
:1058F000771F881F91505040A9F79E3F510580F0B7
:105900000C949A2C0C94E52C5F3FE4F3983ED4F36E
:10591000869577956795B795F795E7959F5FC1F75A
:10592000FE2B880F911D9695879597F908959927D5
:105930008827089597F99F6780E870E060E00895F0
:105940009FEF80EC089500240A9416161706180697
:105950000906089500240A94121613061406050673
:105960000895092E0394000C11F4882352F0BB0F04
:1059700040F4BF2B11F460FF04C06F5F7F4F8F4F67
:105980009F4F089557FD9058440F551F59F05F3FA2
:1059900071F04795880F97FB991F61F09F3F79F051
:1059A00087950895121613061406551FF2CF4695D3
:1059B000F1DF08C0161617061806991FF1CF869555
:1059C0007105610508940895E894BB276627772739
:1059D000CB0197F908950E94F62CA59F900DB49FD6
:1059E000900DA49F800D911D11240895A29FB001D8
:1059F000B39FC001A39F700D811D1124911DB29F03
:105A0000700D811D1124911D0895991B79E004C02A
:105A1000991F961708F0961B881F7A95C9F78095ED
:105A2000089597FB072E16F4009407D077FD09D050
:105A30000E944F2D07FC05D03EF4909581959F4F15
:105A40000895709561957F4F0895A1E21A2EAA1BC3
:105A5000BB1BFD010DC0AA1FBB1FEE1FFF1FA2171E
:105A6000B307E407F50720F0A21BB30BE40BF50B1B
:105A7000661F771F881F991F1A9469F760957095A4
:105A8000809590959B01AC01BD01CF010895EE0F6B
:105A9000FF1F881F8BBF0790F691E02D1994AA1B5A
:105AA000BB1B51E107C0AA1FBB1FA617B70710F009
:105AB000A61BB70B881F991F5A95A9F7809590953B
:105AC000BC01CD0108955058BB27AA270E947B2D09
:105AD0000C94B12C0E94A32C38F00E94AA2C20F028
