:100000000C944F040C9451190C9426190C94FB1861
:100010000C94D0180C94A5180C947A180C944F18C2
:100020000C9424180C9480040C9480040C94800488
:100030000C9480040C9480040C9480040C94800430
:100040000C9480040C9480040C9480040C94800420
:100050000C9480040C9480040C9480040C94301E46
:100060000C9480040C94EC1A0C94C21A0C94800426
:100070000C9480040C9480040C9480040C948004F0
:100080000C9480040C9480040C9480040C948004E0
:100090000C94981A0C946E1A0C9480040C948D1B7A
:1000A0000C9480040C9480040C9480040C948004C0
:1000B0000C9480040C9480040C9480040C948004B0
:1000C0000C9480040C9480040C9480040C94441AC6
:1000D0000C941A1A0C9480040C9480040C948004E0
:1000E0000C948004821D851D741D781D7C1DBC1D13
:1000F000891D8D1D931D971D9B1DA11DA51DA91D4E
:10010000BC1DAF1DB31DB71D0C94BC1D0C949B1DD5
:100110000C94A5170C9482170C94741D0C943F1723
:100120000C94AF1D0C94B31D0C9421160C94A91DB6
:100130000C94851D0C9427170C94B71D0C94AD17C7
:100140000C941B170C94971D0C9480170C94931D02
:100150000C944B170C94821D0C940A180C947F1766
:100160000C947B160C94A11D0C94A51D0C94D41515
:100170000C948D1D0C940D160C94891D0C949117E4
:100180000C94FE150C947C1D0C94DA170C948117BA
:100190000C9433170C94781D0C94AA2B0C94D31543
:1001A0000C942F160C94C8164E414E494E49545982
:1001B000494E46CDCCCC3D0AD7233C17B7D1387732
:1001C000CC2B329595E6241FB14F0A000020410048
:1001D00000C84200401C4620BCBE4CCA1B0E5AAE92
:1001E000C59D7400407A10F35A00A0724E180900A1
:1001F00010A5D4E80000E87648170000E40B54028C
:100200000000CA9A3B000000E1F5050000809698C6
:1002100000000040420F000000A086010000001016
:100220002700000000E80300000000640000000058
:10023000000A00000000000100000000002C76D839
:1002400088DC674F0823DFC1DFAE59E1B1B796E51F
:10025000E3E453C63AE651997696E8E6C28426EB83
:10026000898C9B62ED407C6FFCEFBC9C9F40F2BA96
:10027000A56FA5F490055A2AF75C936B6CF9676D2E
:10028000C11BFCE0E40D47FEF520E6B500D0ED9083
:100290002E0300943577050080841E080000204E50
:1002A0000A000000C80C333333330F986E128311E9
:1002B00041EF8D2114893BE65516CFFEE6DB18D1C0
:1002C000844B381BF77C1D901DA4BBE42420328492
:1002D000725E228100C9F124ECA1E53D274154263C
:1002E000570041542B434C54533D0041542B435031
:1002F0004D533D22534D222C22534D222C22534D3F
:10030000220053494D3830304800093C2D2D2D2016
:1003100000092D2D2D3E200053494D434F4D5F5375
:10032000494D35333230450053494D434F4D5F53AE
:10033000494D35333230410053494D383030205229
:1003400031330053494D383038205231330053494E
:100350004D3830382052313400093C2D2D2D2000ED
:10036000092D2D2D3E200041542B435648553D303C
:10037000004154453000415445300041540041543F
:100380000041540054696D656F75743A204E6F20BA
:10039000726573706F6E736520746F2041542E2EDA
:1003A0002E206C61737420646974636820617474B6
:1003B000656D70742E004154004154004154004159
:1003C0007474656D7074696E6720746F206F7065EA
:1003D0006E20636F6D6D20776974682041547300DF
:1003E00077656267707273323030320077656267AA
:1003F00070727300696E7465726E65742E697465CF
:100400006C63656C2E636F6D002B485454504143F0
:1004100054494F4E3A002B48545450414354494F8D
:100420004E3A0041542B48545450414354494F4E86
:100430003D002B48545450524541443A0041542BFE
:100440004854545052454144004C656E3A20005384
:1004500074617475733A2000444F574E4C4F4144B9
:100460000041542B48545450444154413D004154A0
:100470002B48545450444154413D00092D2D2D3EEC
:10048000200041542B4854545053534C3D00524586
:100490004449520041542B48545450494E49540049
:1004A00041542B485454505445524D0055524C0021
:1004B00055410043494400434F4E54454E54002B90
:1004C00043474154543A200041542B43474154542C
:1004D0003F002B4353513A200041542B43535100CA
:1004E0006170706C69636174696F6E2F6A736F6E8F
:1004F0000077656267707273323030320077656200
:100500006770727300696E7465726E65742E6974BB
:10051000656C63656C2E636F6D00706F7432007074
:10052000686F32006E69743200706F7431007068E9
:100530006F31006E6974310041503200483200540E
:10054000320061707031006168683100617431009F
:1005500070483200704831004C5432004C48320030
:100560004C5431004C48310073745F320073683270
:1005700000736563320073745F3100736831007318
:1005800065633100670074004572726F7220757088
:10059000646174696E672047505320737461747589
:1005A000730073006D006400222C2200222C004195
:1005B000542B48545450504152413D220041542B39
:1005C00048545450504152413D2200092D2D2D3E9A
:1005D0002000535354415455533A204C6F63617477
:1005E000696F6E200041542B43475053535441547C
:1005F00055533F002B43475053494E464F3A004115
:10060000542B43475053494E464F002B43474E53BC
:10061000494E463A200041542B43474E53494E46DB
:100620000053494E460041542B43474E53494E46D2
:100630000041542B43475053494E463D0041542BF3
:1006400043475053494E464F0000002200250028E2
:10065000002B002E003100340002010000050108CB
:10066000010B0100002100240027002A002D00308A
:1006700000330001010000040107010A010505051E
:1006800005070508080808020202020A0A08080409
:100690000404040101010101010101030303030337
:1006A000030303040707070C0C0C0C0C0C0C0C02C6
:1006B00002020206060606060606060B0B0B0B0BCD
:1006C0000B0B0B01021020200808102040102040C6
:1006D0008002010201080402010102040810204006
:1006E0008080402010080402018004020180402024
:1006F000100804020108040201010204081020404D
:10070000800102040810204080093C2D2D2D20007E
:10071000092D2D2D3E200041542B434949435200C1
:1007200041542B53415042523D312C310041542B06
:1007300053415042523D332C312C22505744222CED
:100740000041542B53415042523D332C312C225501
:10075000534552222C0041542B435354543D220004
:10076000092D2D2D3E200041542B435354543D223E
:100770000041542B53415042523D332C312C2241E5
:10078000504E222C0041542B53415042523D332CA9
:10079000312C22434F4E54595045222C224750525F
:1007A00053220041542B43474154543D3100534898
:1007B0005554204F4B0041542B43495053485554F6
:1007C00000093C2D2D2D2000093C2D2D2D20000948
:1007D0002D2D2D3E200041542B434750535057524E
:1007E0003D310041542B43474E535057523D310049
:1007F0002B434750535057523A200041542B434704
:1008000050535057523F002B43474E535057523A84
:10081000200041542B43474E535057523F00415400
:100820002B43434944002B435245473A200041544F
:100830002B435245473F00093C2D2D2D2000092D0B
:100840002D2D3E20004F4B00464F4E4100464F4E4F
:10085000416E65740000000A0B02090C0D0E0807BA
:100860000304010000000000000000000000000080
:100870000000000000000000000000000000000078
:100880000012111000000000000000000000000035
:10089000000000000000000000000000AA2B11244E
:1008A0001FBECFEFD1E2DEBFCDBF00E00CBF25E120
:1008B000AEE8B5E001C01D92A538B207E1F715E03A
:1008C000A0E0B2E0E8E3FEE600E00BBF02C0079064
:1008D0000D92AE38B107D9F714E0CFE4D4E000E0D0
:1008E00006C021970109802FFE010E947932CE3483
:1008F000D10780E00807A9F70E947A1E0C941A37E6
:100900000C9400002F923F924F925F926F927F92D1
:100910008F929F92AF92BF92CF92DF92EF92FF920F
:100920000F931F93CF93DF9300D01F92CDB7DEB705
:100930001C016A017B0186E0D1011A968C9320E8A4
:1009400036E948E15BE4C701B6010E94FB3387FD4D
:100950003AC05CE5852E52E0952E6CE2A62E62E050
:10096000B62EE0E2F0E0FA83E98300E010E0A701B0
:100970009601D4019E918E917E916E914D010E94BF
:10098000F63018167CF0F501248935894689578997
:10099000C701B6010E945C316B017C0189819A819B
:1009A000080F191FA981BA81B595A795BA83A983A4
:1009B000B4E0AB1AB108E4E48E16E2E09E06B9F6A4
:1009C000BB24BA9408C080E290E09A83898335E022
:1009D000B32E00E010E020E030E0A901C701B6012D
:1009E0000E94FB331816C4F52CEA35EC47E257E3B6
:1009F000C701B6010E94F630181674F19FEFB916C0
:100A000059F1AB2DB4E0AB0240011124F401EC5ECE
:100A1000FD4FA701960160817181828193810E94BF
:100A2000FB3318168CF4F401EC5BFD4F208131810F
:100A300042815381C701B6010E945C316B017C0188
:100A4000E981FA810E1B1F0B89819A819595879503
:100A50009A838983BA94D2CFD10119961C930E93AD
:100A60001897C701B6010E94743369837A838B8318
:100A70009C83F10160837183828393832B013C010A
:100A800090E4892E92E4992E9FE0A92EB12CFAE0F1
:100A90004F16510461047104E0F0C501B4012AE06D
:100AA00030E040E050E00E94573249015A01D10144
:100AB0001A968C911A9781501A968C93C301B201A1
:100AC0002AE030E040E050E00E94573229013A012C
:100AD000DECF69817A818B819C810E94FB309B01F2
:100AE000AC01C701B6010E9495326B017C01C501C2
:100AF000B4010E94FB309B01AC01C701B6010E940A
:100B00005C312B013C010E9474336B017C010E941B
:100B1000FB309B01AC01C301B2010E9495329B01E5
:100B2000AC010E9496320E947433C60ED71EE81E96
:100B3000F91EC814D904EA04FB0430F4F101C4829C
:100B4000D582E682F78226C0D10114961D921D92AD
:100B50001D921C92179789819A81AB81BC81019665
:100B6000A11DB11DF10180839183A283B38301157F
:100B7000110581F00A97A105B10560F0C801019641
:100B80009187808781E090E0A0E0B0E0808391834E
:100B9000A283B3838AE0C82ED12CE12CF12CD101A1
:100BA00014966D917D918D919C911797A701960157
:100BB0000E945732672B682B692B59F4F10182850B
:100BC00018163CF4248335834683578381508287EB
:100BD000E6CF0F900F900F900F90DF91CF911F9164
:100BE0000F91FF90EF90DF90CF90BF90AF909F90CC
:100BF0008F907F906F905F904F903F902F900895CF
:100C0000FC01A281B38180819181A817B90758F4B2
:100C1000CD010196938382836C93A281B3811C9250
:100C200081E090E002C080E090E024813581820F75
:100C3000931F958384830895EF92FF920F931F93E0
:100C4000CF93DF93EC017B0162E20E9400068701F3
:100C5000F80161918F01662379F0EFEDF4E0F28005
:100C6000FF20A1F0329681816813F9CF6CE5CE01A7
:100C70000E9400066F2D0AC062E2CE01DF91CF9183
:100C80001F910F91FF90EF900C940006CE010E94EF
:100C90000006DECFCF93DF93DC0112962D913C91BD
:100CA0001397FB01460F571F1296CD91DC911397B6
:100CB0008D919C911197C817D90760F4E417F50737
:100CC00049F0CE01019613969C938E9312978191D1
:100CD0008883EACF188212968D919C911397821B7C
:100CE000930BDF91CF910895EF92FF920F931F9393
:100CF000CF93DF93CDB7DEB766970FB6F894DEBF1C
:100D00000FBECDBF8C01CB01FE0177969F014AE05B
:100D1000E42EF12CB7010E944332805D8293CB0117
:100D20000097C1F7A9014E1B5F0BBF01C8010E94CC
:100D30004A06F80124813581820F931F95838483AD
:100D400066960FB6F894DEBF0FBECDBFDF91CF9190
:100D50001F910F91FF90EF9008958F929F92AF9205
:100D6000BF92CF92DF92EF92FF920F931F93CF9398
:100D7000DF93CDB7DEB766970FB6F894DEBF0FBE30
:100D8000CDBF7C018E01095E1F4F68018AE0882E6D
:100D9000912CA12CB12CCB01BA01A50194010E9488
:100DA0005732942F852F605DF80162938F01A9015E
:100DB000692F782F411551056105710561F7A6016D
:100DC0004E1B5F0BBF01C7010E944A06F701248139
:100DD0003581820F931F9583848366960FB6F894AE
:100DE000DEBF0FBECDBFDF91CF911F910F91FF905E
:100DF000EF90DF90CF90BF90AF909F908F9008952D
:100E00008F929F92AF92BF92CF92DF92EF92FF921A
:100E10000F931F93CF93DF93CDB7DEB766970FB6CF
:100E2000F894DEBF0FBECDBF7C018E01095E1F4F5F
:100E300068018AE0882E912CA12CB12CCB01BA013B
:100E4000A50194010E945732942F852F605DF8010F
:100E500062938F01A901692F782F41155105610512
:100E6000710561F7A6014E1B5F0BBF01C7010E9410
:100E7000F71CF70122813381820F931F93838283B2
:100E800066960FB6F894DEBF0FBECDBFDF91CF914F
:100E90001F910F91FF90EF90DF90CF90BF90AF9098
:100EA0009F908F900895EF92FF920F931F93CF938F
:100EB000DF93EC017B0162E20E94E21C8701F801F2
:100EC00061918F01662379F0EFEDF4E0F280FF206D
:100ED000A1F0329681816813F9CF6CE5CE010E94B2
:100EE000E21C6F2D0AC062E2CE01DF91CF911F910B
:100EF0000F91FF90EF900C94E21CCE010E94E21C37
:100F0000DECFCF93DF93EC01FB0101900020E9F7E6
:100F10003197AF01461B570B0E94F71C2A813B817A
:100F2000820F931F9B838A83DF91CF910895CF9384
:100F3000DF93DC01EB01EC81FD818A819B810896C6
:100F4000E817F90718F480E090E021C03897FD8396
:100F5000EC833097C1F31296CD91DC9113972097D3
:100F600051F0CF018C1B9D0B23E0959587952A9519
:100F7000E1F78D8303C01196FC93EE931396FC93D7
:100F8000EE9312971582148217821682CF01DF9199
:100F9000CF910895EF92FF920F931F93CF93DF931A
:100FA000FC01E080F180E114F104D9F08B01C7016C
:100FB0000E94D42CAC014F5F5F4FF801C281D381F6
:100FC000CE01840F951F248135812817390748F0F9
:100FD00093838283209739F0B701CE010E94C22CFF
:100FE00002C0C0E0D0E0CE01DF91CF911F910F9100
:100FF000FF90EF900895CF93DF93EC01FB010190F8
:101000000020E9F73197AF01461B570B0E944A06B3
:101010002C813D81820F931F9D838C83DF91CF9123
:101020000895FC012581222331F0F8E02F02800D84
:10103000911D1124089580E090E008954F925F92F1
:101040006F927F92AF92BF92CF92DF92EF92FF9218
:101050000F931F93CF93DF93CDB7DEB76B970FB688
:10106000F894DEBF0FBECDBF7C018B01FC018481F3
:101070008F77863009F4ABC068F4823008F4B6C0CC
:10108000843008F48BC0F70160817181C8010E942F
:10109000530723C18C3009F190F4883009F48EC0D5
:1010A0008A3009F0A3C0F701C080D180E280F380CC
:1010B0006DE2C8010E94E21CB701A60184C0803223
:1010C00009F444C0803409F091C06BE5C8010E9466
:1010D000E21CF701E080F18034C0F701C080D180CC
:1010E000E280F380A7019601C701B6010E94F630A5
:1010F00081117CC020E030E0A901C701B6010E9447
:10110000F630882309F478C0A7019601C701B6011B
:101110000E9496329B01AC01C701B6010E94F630D5
:1011200081116AC063C0B801C7010E941E08C701CF
:101130000E9411087C01892B39F06CE2C8010E94E1
:10114000E21CE114F10479F76DE524C06BE7C801F6
:101150000E94E21CF701E080F180E114F104C9F083
:10116000F70166817781C8010E9453076AE3C801CD
:101170000E94E21CB801C7010E941E08C7010E941C
:1011800011087C01892B29F06CE2C8010E94E21C45
:10119000E4CF6DE7C8010E94E21C9FC0F7014281C5
:1011A000538160817181C8010E94F71CF80122817E
:1011B0003381820F931F938382838FC0F701408115
:1011C000518162817381C8010E94000786C0F701C6
:1011D00080819181A281B381892B8A2B8B2B19F07D
:1011E00063EF74E005C068EF74E002C060E673E08E
:1011F000C8010E94810771C020E030E0A901C70149
:10120000B6010E94F63087FF08C06DE2C8010E9457
:10121000E21CF7FAF094F7F8F0945E01F1E1AF0EFA
:10122000B11CB701A601C5010E94820449895A89EF
:101230006B897C89C8010E940007DB8CDD2071F17D
:101240006D897E898F89988DCD2C75012AE0422E7B
:10125000512C612C712CCA942FEFC21659F0A301A6
:1012600092010E945732605DF70162937F01B901DC
:10127000CA01F1CFB5016D1971098EE2FB018293AC
:10128000BF01A5014E1B5F0BC8010E94F71CF801AE
:1012900022813381820F931F93838283898D9A8D5C
:1012A00097FF0DC060EF74E0C8010E948107698D4F
:1012B0007A8D719561957109C8010E94011D898D12
:1012C0009A8D181619064CF465E6C8010E94E21CB6
:1012D000698D7A8DC8010E94011D6B960FB6F89436
:1012E000DEBF0FBECDBFDF91CF911F910F91FF9059
:1012F000EF90DF90CF90BF90AF907F906F905F9016
:101300004F900895EF92FF920F931F93CF93DF9327
:101310006115710561F17B018C01FC01C081D181F6
:10132000209741F0CE010E941108E816F90621F03D
:10133000EC01F6CFC0E0D0E0C7010E941108209771
:1013400071F0009749F09C012C1B3D0B43E0359553
:1013500027954A95E1F701C020E02D8303C0F801ED
:1013600091838083892B19F4F801D383C283DF91A1
:10137000CF911F910F91FF90EF900895CF92DF9240
:10138000EF92FF920F931F93CF93DF936115710537
:1013900089F16A01EB017C01FC01008111810115D9
:1013A0001105A9F0F80166817781C617D70769F0A2
:1013B0006115710529F0CE010E941934892B29F09D
:1013C000C8010E9411088C01EACFC80115C0B601FE
:1013D000C7010E949707FC01892B39F084818F7720
:1013E0008483D783C683CF0107C060E070E0C70164
:1013F0000E94820980E090E0DF91CF911F910F91D0
:10140000FF90EF90DF90CF900895AF92BF92CF9270
:10141000DF92EF92FF920F931F93CF93DF931F9270
:101420001F92CDB7DEB77C015B016A01BA010E9451
:1014300097078C01892B91F0BA82A982B601CE015F
:1014400001960E94CA079C01892B41F0F801948102
:101450009068948337832683C80106C0B801C7010A
:101460000E94820980E090E00F900F90DF91CF9171
:101470001F910F91FF90EF90DF90CF90BF90AF90B2
:101480000895EF92FF920F931F93CF93DF93FC0188
:101490008481982F9F7739F48078806284831182C9
:1014A000108213821282848185FF12C0611571053A
:1014B00079F07A018B01EF01808191810E94BF1C3C
:1014C000009741F4A701B801CE010E94050A02C0AD
:1014D00080E090E0DF91CF911F910F91FF90EF900E
:1014E00008954F925F926F927F92AF92BF92CF9288
:1014F000DF92EF92FF920F931F93CF93DF93CDB7BD
:10150000DEB76B970FB6F894DEBF0FBECDBF7C0180
:101510008B01FC0184818F77863009F4ABC068F4BD
:10152000823008F4B6C0843008F48BC0F7016081C3
:101530007181C8010E941C0623C18C3009F190F40E
:10154000883009F48EC08A3009F0A3C0F701C0804A
:10155000D180E280F3806DE2C8010E940006B701ED
:10156000A60184C0803209F444C0803409F091C0DF
:101570006BE5C8010E940006F701E080F18034C0ED
:10158000F701C080D180E280F380A7019601C701F6
:10159000B6010E94F63081117CC020E030E0A90144
:1015A000C701B6010E94F630882309F478C0A7016C
:1015B0009601C701B6010E9496329B01AC01C7019A
:1015C000B6010E94F63081116AC063C0B801C7013C
:1015D0000E94710AC7010E9411087C01892B39F011
:1015E0006CE2C8010E940006E114F10479F76DE590
:1015F00024C06BE7C8010E940006F701E080F1807B
:10160000E114F104C9F0F70166817781C8010E94F5
:101610001C066AE3C8010E940006B801C7010E94C7
:10162000710AC7010E9411087C01892B29F06CE224
:10163000C8010E940006E4CF6DE7C8010E940006C1
:101640009FC0F7014281538160817181C8010E946E
:101650004A06F80124813581820F931F9583848384
:101660008FC0F7014081518162817381C8010E945E
:10167000AD0686C0F70180819181A281B381892B5B
:101680008A2B8B2B19F063EF74E005C068EF74E0D0
:1016900002C060E673E0C8010E94FB0771C020E051
:1016A00030E0A901C701B6010E94F63087FF08C0EB
:1016B0006DE2C8010E940006F7FAF094F7F8F09482
:1016C0005E01F1E1AF0EB11CB701A601C5010E9498
:1016D000820449895A896B897C89C8010E94AD06B8
:1016E000DB8CDD2071F16D897E898F89988DCD2C01
:1016F00075012AE0422E512C612C712CCA942FEFD7
:10170000C21659F0A30192010E945732605DF701A1
:1017100062937F01B901CA01F1CFB5016D19710959
:101720008EE2FB018293BF01A5014E1B5F0BC80136
:101730000E944A06F80124813581820F931F958308
:101740008483898D9A8D97FF0DC060EF74E0C80186
:101750000E94FB07698D7A8D719561957109C801A9
:101760000E947406898D9A8D181619064CF465E648
:10177000C8010E940006698D7A8DC8010E94740616
:101780006B960FB6F894DEBF0FBECDBFDF91CF9141
:101790001F910F91FF90EF90DF90CF90BF90AF908F
:1017A0007F906F905F904F900895CF93C62F91E0F8
:1017B0009093FA0B98E690931C0C1092FB0B1092EE
:1017C0001D0C682F85EF9DE00E94DA176C2F85EFC6
:1017D0009DE00E94DA1781E0CF910C94831191E093
:1017E0009093FA0B98E690931C0C1092FB0B1092BE
:1017F0001D0C682F85EF9DE00E94DA1781E00C94A4
:101800008311CF93DF93EB010E94EF0B81E00E94E5
:101810006F121092AD0B8093AC0B85EF9DE00E9490
:101820009117888381E0DF91CF910895982F969545
:10183000969596959E71292F220F220F920F8F70E9
:10184000890F0895CF92DF92EF92FF920F931F932B
:10185000CF93DF938C016A017B0177FF12C06DE2A9
:101860000E94DB19EC0144275527BA014C195D0988
:101870006E097F092AE0C8010E947C19C80FD91F90
:1018800004C02AE00E947C19EC01C8010E94C5191D
:101890008C0F9D1FDF91CF911F910F91FF90EF90C3
:1018A000DF90CF9008950F931F93CF93DF93EC01B8
:1018B0008B010E94B3156EE378E088E59DE00E94FD
:1018C000E419BE0188E59DE00E94081ABE018091DE
:1018D0003215909133150E94081A60E0C8010E94E9
:1018E0004415C82F67E378E088E59DE00E94E4197D
:1018F00068E274E188E59DE00E94C9198C2FDF91B0
:10190000CF911F910F910895DF92EF92FF920F9365
:101910001F93CF93DF938C017B01D42EBC0188E20F
:1019200094E10E94DD2CEC01892BC1F0C8010E94DA
:10193000D42C8C0F9D1FC0E0CD1549F06CE270E0F7
:101940000E940E34009751F00196CF5FF5CF0E94B0
:10195000A42CF7019183808381E001C080E0DF91B6
:10196000CF911F910F91FF90EF90DF900895FF921C
:101970000F931F93CF93DF93EB018A01F22E64EF55
:1019800071E00E94530C4F2DB801CE010E94840CCF
:10199000C82F882329F060E084EF91E00E9444156D
:1019A0008C2FDF91CF911F910F91FF9008951F937E
:1019B000CF93DF93CDB7DEB766970FB6F894DEBF4F
:1019C0000FBECDBF21E0AE014F5F5F4F66E278E012
:1019D0008EE298E00E94B70C882311F0198101C0B3
:1019E00010E06EEF74E088E59DE00E94C9191111C6
:1019F00003C064E175E018C0113019F463E275E0CA
:101A000013C0123019F465E375E00EC0133019F4F9
:101A100060E575E009C0143019F467E575E004C0AD
:101A2000153031F46FE575E088E59DE00E94C91935
:101A300064EF71E08EE198E00E94530C80912814CD
:101A400044E150E08B3219F460E374E102C068E2D3
:101A500074E1CE0101960E9422341D8A60E084EF79
:101A600091E00E94441562E775E088E59DE00E94E0
:101A7000E219BE016F5F7F4F88E59DE00E94C919A2
:101A800066960FB6F894DEBF0FBECDBFDF91CF9143
:101A90001F910895CF93DF93EB01BA010E94530C7D
:101AA000882341F0BE0188E294E10E94CB2C21E022
:101AB000892B09F020E0822FDF91CF910895CF93F9
:101AC000DF931F921F92CDB7DEB78091271420E0DD
:101AD000AE014F5F5F4F833081F467E078E082E1D1
:101AE00098E00E94B70C882331F089819A81892B74
:101AF00049F081E018C080E016C060EF77E08BEF1E
:101B000097E0EFCF809127146091301570913115D7
:101B100044EF51E0833019F483EE97E002C086ED84
:101B200097E00E944A0D0F900F90DF91CF9108959A
:101B30000F931F93CF93DF93EC0162E20E94DB19B6
:101B40008C01CE010E94C519800F911FDF91CF91AA
:101B50001F910F910895EF92FF920F931F93CF93D0
:101B6000DF938C01EB017A010E94B3156FEC77E0F3
:101B700088E59DE00E94E419B80188E59DE00E9497
:101B8000E41962E288E59DE00E94DB19BE0188E568
:101B90009DE00E94E41988E59DE00E94980DB8013F
:101BA00080913215909133150E94E41962E2809180
:101BB0003215909133150E94DB19BE0180913215C8
:101BC000909133150E94E41980913215909133154C
:101BD0000E94980D60E080E197E20E94441568EC55
:101BE00077E088E59DE00E94E41968E274E188E509
:101BF0009DE00E94C919B70188E294E10E94CB2CB4
:101C000021E0892B09F020E0822FDF91CF911F91F5
:101C10000F91FF90EF900895CF93DF93EC0160E078
:101C200080E197E20E94441561EC77E088E59DE051
:101C30000E94E41968E274E188E59DE00E94C919F8
:101C4000BE0188E294E10E94CB2C21E0892B09F0AF
:101C500020E0822FDF91CF91089540E25EE46EEAAA
:101C600077E086EB97E00E944A0D60913015709105
:101C7000311540E157E283EA97E00E944A0D88233C
:101C800009F4F0C0609130157091311540E157E2D0
:101C900085E897E00E944A0D882309F4E3C060912B
:101CA00027157091281561157105B9F460913015EB
:101CB0007091311540E355E780E297E00E944A0DAC
:101CC000882309F4CFC0609130157091311540E13F
:101CD00057E287E197E00C944A0D409130155091FE
:101CE000311581E797E00E94AB0D882309F4BAC053
:101CF0000E94B31567E677E0809132159091331515
:101D00000E94E41960912715709128158091321571
:101D1000909133150E94E4198091291590912A150C
:101D2000892B91F062E875E080913215909133151E
:101D30000E94E2196091291570912A15809132153F
:101D4000909133150E94E41980912B1590912C15D8
:101D5000892B91F062E875E08091321590913315EE
:101D60000E94E21960912B1570912C15809132150B
:101D7000909133150E94E41964E875E08091321562
:101D8000909133150E94C91960E677E088E59DE0DF
:101D90000E94E41966E577E088E59DE00E94E41979
:101DA000609127157091281588E59DE00E94E4193F
:101DB0008091291590912A15892B71F062E875E0C0
:101DC00088E59DE00E94E2196091291570912A151D
:101DD00088E59DE00E94E41980912B1590912C15C7
:101DE000892B71F062E875E088E59DE00E94E219B8
:101DF00060912B1570912C1588E59DE00E94E419E7
:101E000064E875E088E59DE00E94C919809130156D
:101E1000909131150E940C0E882321F160912915B3
:101E200070912A156115710541F460912B1570911F
:101E30002C156115710561F439CF40913015509121
:101E4000311581E497E00E94AB0D8111EECF0AC0FD
:101E500040913015509131158DE297E00E94AB0D05
:101E6000811124CF80E00895CF92DF92EF92FF920C
:101E70000F931F93CF93DF938C016A017B010E9424
:101E8000B31560E177E088E59DE00E94E419B801B0
:101E900088E59DE00E94E419B701A60188E59DE070
:101EA0000E94220CC2E3D5E1B801888199810E9489
:101EB000E419B701A601888199810E94220C60E093
:101EC00084EF91E00E944415C82F69E077E088E52F
:101ED0009DE00E94E41968E274E188E59DE00E94BB
:101EE000C9198C2FDF91CF911F910F91FF90EF9027
:101EF000DF90CF90089590E0FC01ED53F94F2491CD
:101F0000FC01E358F94F8491882399F090E0880F01
:101F1000991FFC01ED59F94FA591B491FC01E75BC4
:101F2000F94F859194918FB7F894EC91E22BEC9353
:101F30008FBF0895EF92FF920F931F93CF938B0162
:101F4000909127142CEF290F223028F464EF71E0D0
:101F50008DE396E00FC0923049F4482F50E060E0E6
:101F600070E081E396E00E94340F06C064EF71E0F8
:101F700086E296E00E94530C61E276E088E294E10A
:101F80000E94DD2C009721F4F801108280E020C02F
:101F9000BC016A5F7F4FFB0101900020E9F7319798
:101FA000E61BF70BE737F10514F0CE2F01C0C7E7AA
:101FB000EC2EF12CA701C8010E942234F801EE0D8D
:101FC000FF1D108260E084EF91E00E9444158C2F89
:101FD000CF911F910F91FF90EF900895CF93DF93D2
:101FE000809127148330F1F464EF71E086E196E08C
:101FF0000E94530C6BE076E088E294E10E94DD2CB5
:10200000EC01892B11F48FEF43C060E084EF91E085
:102010000E9444158A85803399F18C858133F1F4CF
:1020200083E036C0845064EF71E08230C8F085EE02
:1020300095E00E94530C62ED75E088E294E10E9405
:10204000DD2CEC01892BF9F260E084EF91E00E9435
:1020500044158A898535A1F08E34A1F481E018C039
:102060008FEF95E00E94530C64EF75E088E294E1F5
:102070000E94DD2C009739F2FC0182858C3281F6BA
:1020800080E006C0823319F08333D1F7C9CF82E0F4
:10209000DF91CF9108951F93CF93DF93EC01162F1B
:1020A0000E94B3156BEC75E088E59DE00E94E41991
:1020B0006DEB75E088E59DE00E94E419BE0188E5BE
:1020C0009DE00E94E41988E59DE00E94980D6FEA6A
:1020D00075E080913215909133150E94E419BE018C
:1020E00080913215909133150E94E4198091321538
:1020F00090913315112319F068EA75E002C06CEA7B
:1021000075E0DF91CF911F910C94E4190F931F9309
:10211000CF93DF938B0161E00E944B10C2E3D5E1C6
:10212000B801888199810E94E419888199810E946F
:10213000980D8091301590913115DF91CF911F91BD
:102140000F910C940C0ECF93DF9360E00E944B1024
:10215000C2E3D5E12AE041E050E060E070E0888130
:1021600099810E947C19888199810E94C51980916A
:10217000301590913115DF91CF910C940C0ECF93C7
:10218000DF939B01672B31F4682F88E59DE00E9467
:102190007B1608C0482F50E060E070E088E59DE0C5
:1021A0000E947C19EC0188E59DE00E94C5198C0F06
:1021B0009D1FDF91CF9108958F929F92AF92BF9212
:1021C000CF92DF92EF92FF920F931F93CF93DF9303
:1021D0001F921F92CDB7DEB75C016B0160910B0EB1
:1021E00070910C0E0091090E10910A0E0115110547
:1021F00021F0C8010E9497078C01E0900B0EF0902F
:102200000C0E0115110549F0F80184818078806277
:1022100084831182108213821282F5018080918062
:10222000A280B3800115110589F0A70166E875E069
:10223000C8010E94BE09FC01892B41F0948190786D
:102240009C60948380829182A282B38201151105E1
:10225000F1F0A70168E875E0C8010E94BE098C0191
:10226000892BA9F0DA82C982B701CE0101960E94BA
:10227000CA079C01F801948190782115310529F055
:10228000956094833183208302C0F801948381E0B8
:102290000F900F90DF91CF911F910F91FF90EF90D2
:1022A000DF90CF90BF90AF909F908F900895FC01EA
:1022B00020813181322723273227318320830895DB
:1022C000AC01FC018FEF9FEF70E09F01241B350BE9
:1022D0002617370790F42191822728E0DC01B69574
:1022E000A79580FF06C0CD0131E0832730EA932710
:1022F00001C0CD01215091F7E8CF0895682F85EFF7
:102300009DE00C94DA178F929F92AF92BF92CF927A
:10231000DF92EF92FF920F931F93CF93DF93109171
:102320001D0C113208F0C2C0082FD0911C0C0E9465
:10233000D11D6B017C01C091F40BCC2311F1809174
:10234000F60B9091F70BA091F80BB091F90B892B3C
:102350008A2B8B2B81F30E94D11D8090F60B9090DD
:10236000F70BA090F80BB090F90BDC01CB018C19A6
:102370009D09AE09BF0988169906AA06BB06D8F6BC
:1023800081C082E08093F40B0093F30B8FEF809376
:10239000F20B1092F10B1093F00BACEFBBE0E0ED01
:1023A000FBE080E0181721F09D9191938F5FFACFA9
:1023B0001092CF0B9091CF0B8D2F880F892B80938C
:1023C000CF0B8091CE0B813089F51092CE0B0E94FD
:1023D000D11D6B017C018091CF0B8093BB0080915C
:1023E000F60B9091F70BA091F80BB091F90B892B9C
:1023F0008A2B8B2BA9F00E94D11D0091F60B109116
:10240000F70B2091F80B3091F90BDC01CB018C1903
:102410009D09AE09BF09081719072A073B0790F164
:102420008091BC0083FDD7CF85EC01C085EE809301
:10243000BC000E94D11D6B017C018091F40B8230A5
:1024400039F58091F60B9091F70BA091F80BB091B4
:10245000F90B892B8A2B8B2B81F30E94D11D0091C4
:10246000F60B1091F70B2091F80B3091F90BDC0172
:10247000CB018C199D09AE09BF09081719072A0756
:102480003B07D8F68091F50B0E94341BC5E013C0C2
:102490008091F20B8F3F79F08091F20B803241F006
:1024A0008091F20B803331F0C4E005C0C1E003C07D
:1024B000C2E001C0C3E01092FB0B10921D0C109201
:1024C000FA0B8C2FDF91CF911F910F91FF90EF901E
:1024D000DF90CF90BF90AF909F908F900895CF9254
:1024E000DF92EF92FF920F931F93CF93DF93D82F3A
:1024F000813208F0B9C00E94D11D6B017C01C091EE
:10250000F40BCC2331F18091F60B9091F70BA09155
:10251000F80BB091F90B892B8A2B8B2B81F30E943E
:10252000D11D0091F60B1091F70B2091F80B309113
:10253000F90BDC01CB018C199D09AE09BF09081705
:1025400019072A073B07D8F68091F50B0E94341B28
:102550008BC081E08093F40B8093F30B9FEF9093FB
:10256000F20B1092F10B9D0F9093F00B8093CF0B19
:102570008091CF0B806D8093CF0B8091CE0B8130FB
:1025800089F51092CE0B0E94D11D6B017C018091C8
:10259000CF0B8093BB008091F60B9091F70BA0912D
:1025A000F80BB091F90B892B8A2B8B2BA9F00E9489
:1025B000D11D0091F60B1091F70B2091F80B309183
:1025C000F90BDC01CB018C199D09AE09BF09081775
:1025D00019072A073B0790F18091BC0083FDD7CFF4
:1025E00085EC01C085EE8093BC000E94D11D6B017B
:1025F0007C018091F40B813031F58091F60B909144
:10260000F70BA091F80BB091F90B892B8A2B8B2B30
:1026100081F30E94D11D0091F60B1091F70B2091D0
:10262000F80B3091F90BDC01CB018C199D09AE0937
:10263000BF09081719072A073B07D8F68091F50B41
:102640000E94341B12C08091F10B8D1710F4D091B1
:10265000F10BE0EDFBE0AEEABBE0C0E0CD1729F006
:1026600081918D93CF5FFACFC0E08C2FDF91CF9116
:102670001F910F91FF90EF90DF90CF900895EF9210
:10268000FF920F931F93CF93DF931F92CDB7DEB7C7
:102690007C01162FBE016F5F7F4F8EE00E94010C00
:1026A000811102C080E086C0812F8370833009F4DD
:1026B0001E7F81E08093FA0B88E680931C0C1092B9
:1026C000FB0B10921D0C10FF18C087E090E00E94D9
:1026D0007E11F70180816AE00E943732292FF0E1F4
:1026E0008F9FC0011124822B912F9078892B90E02D
:1026F0000E947E118981856006C08BE090E00E9477
:102700007E11898186608983110FF70181810AE03A
:10271000602F0E943732292FF0E18F9FC0011124D2
:10272000822B912F9078892B90E00E947E11110FBF
:10273000F7018281602F0E943732292FF0E18F9FAD
:10274000C0011124822B912F9078892B90E00E9458
:102750007E11110F412F4078F70116FF0CC08381C5
:10276000602F0E943732F0E18F9F90011124892F52
:10277000822B80640AC08481602F0E943732292F07
:10278000F0E18F9FC0011124822B842B90E00E94E6
:102790007E1181E00E948311811184CF69818EE0D6
:1027A0000E94D50B81117ECF110F110F812F8295C1
:1027B000869587700F90DF91CF911F910F91FF90B9
:1027C000EF900895CF93DF931F921F92CDB7DEB79E
:1027D0001A821982BE016F5F7F4F8FE00E94010C49
:1027E0006981862F837021F06C7F8FE00E94D50B6A
:1027F0008A81882369F0BE016E5F7F4F8EE00E9460
:10280000010C882329F06A816F778EE00E94D50B36
:10281000898183700F900F90DF91CF910895BF92BF
:10282000CF92DF92EF92FF920F931F93CF93DF939C
:10283000CDB7DEB727970FB6F894DEBF0FBECDBF7A
:1028400080E00E94EF0B87E00E946F121092AD0BA8
:102850008093AC0B873009F046C085EF9DE00E9465
:1028600091170E94160CB82E85EF9DE00E949117DB
:102870000E94160CC82E85EF9DE00E949117082F2C
:1028800086FF0BC08F710E94160C05FD02C09CE0F4
:1028900001C090E0182F190F04C08F730E94160C0E
:1028A000182F85EF9DE00E9491170E94160CD82EDC
:1028B00085EF9DE00E9491170E94160CE82E85EF8F
:1028C0009DE00E94911787FD02C000E001C004E670
:1028D0008F770E94160CF82E85EF9DE00E949117CD
:1028E0000E94160C080F2B2D3C2D412F5D2DB7019A
:1028F000802F90E027960FB6F894DEBF0FBECDBFB5
:10290000DF91CF911F910F91FF90EF90DF90CF90CB
:10291000BF900895CF93DF93CDB7DEB727970FB65B
:10292000F894DEBF0FBECDBF0E940F1429833A83F7
:102930004B835C838F838FE18D8382E08E8362E0A3
:10294000CE0101960E943F1361E0CE0101960E94E4
:102950003F130E94E21381E027960FB6F894DEBF82
:102960000FBECDBFDF91CF910895CF92DF92EF924E
:10297000FF92CF93DF93EC016A017B01E889F9892B
:1029800082E080834115514E61057105B1F060E030
:1029900079E08DE390E0A70196010E945732DA01B9
:1029A000C9010197A109B109B695A7959795879592
:1029B0009C01211580E13807A8F0E889F989108287
:1029C00060E874E88EE190E0A70196010E9457321A
:1029D000DA01C9010197A109B109B695A7959795A3
:1029E00087959C01EC85FD853083EE85FF852083EE
:1029F000188EEC89FD8986E08083EA89FB898081D5
:102A000080618083EA89FB89808188608083EA898C
:102A1000FB89808180688083EA89FB8980818F7D42
:102A20008083DF91CF91FF90EF90DF90CF9008955A
:102A300060E084E00E94531D60ED77E080E090E06C
:102A40000E94F61D61E084E00E94531D6CED75E06C
:102A500080E090E00E94F61D60E084E00E94531D3B
:102A600068E873E180E090E00E94F61D61E084E098
:102A70000E94531D6CED75E080E090E00E94F61D11
:102A800060E084E00C94531DFF920F931F93CF934B
:102A9000DF93EC01F62E209791F404EF11E0C0E0F3
:102AA000D0E030C08091321590913315DC01ED916A
:102AB000FC910284F385E02D19958A3071F38091A1
:102AC000321590913315DC01ED91FC910084F18574
:102AD000E02D1995892B31F72197F9F261E070E02B
:102AE00080E090E00E94F61DD6CF80913215909143
:102AF0003315DC01ED91FC910284F385E02D1995ED
:102B00008D3071F48091321590913315DC01ED9187
:102B1000FC910084F185E02D1995892B31F70CC0CB
:102B20008A3021F4209771F3FF2091F0FE01E65ED8
:102B3000FB4E86872196E6CF0150110949F061E0EE
:102B400070E080E090E00E94F61DCE3FD105D0F20B
:102B5000FE01E65EFB4E16868C2FDF91CF911F9112
:102B60000F91FF900895CF93DF9380E090E0EC0108
:102B700021968897A8F48AE194E10E944B17892B4B
:102B800039F08AE194E10E943317C0E0D0E0F3CF3E
:102B900061E070E080E090E00E94F61DCE01E7CF9A
:102BA000DF91CF9108950895CF92DF92EF92FF9237
:102BB0000F931F93CF93DF936C017A018B01C0E0D9
:102BC000D0E0CE15DF0581F0D8016D918D01D601E1
:102BD000ED91FC910190F081E02DC6011995892BB2
:102BE00011F02196EECF7E01C701DF91CF911F91A9
:102BF0000F91FF90EF90DF90CF900895FC01538DDF
:102C0000448D252F30E0842F90E0821B930B5417C6
:102C100010F0CF96089501970895FC01918D828D53
:102C2000981761F0828DDF01A80FB11D5D968C9120
:102C3000928D9F5F9F73928F90E008958FEF9FEF2B
:102C40000895FC01918D828D981731F0828DE80FE7
:102C5000F11D858D90E008958FEF9FEF0895FC01A1
:102C6000918D228D892F90E0805C9F4F821B91096E
:102C70008F73992708958EE19CE00E942F1621E022
:102C8000892B09F420E0822F08958BEB9CE00E94B1
:102C90002F1621E0892B09F420E0822F089588E582
:102CA0009DE00E942F1621E0892B09F420E0822F5D
:102CB0000895FC01848DDF01A80FB11DA35ABF4FF9
:102CC0002C91848D90E001968F739927848FA6892B
:102CD000B7892C93A089B1898C91837080648C937F
:102CE000938D848D981306C00288F389E02D80812E
:102CF0008F7D80830895EF92FF920F931F93CF9360
:102D0000DF93EC0181E0888F9B8D8C8D981305C03B
:102D1000E889F989808185FD26C0F62E0B8D10E0AB
:102D20000F5F1F4F0F731127E02E8C8DE8120CC020
:102D30000FB607FCFACFE889F989808185FFF5CFC6
:102D4000CE010E945916F1CF8B8DFE01E80FF11DC7
:102D5000E35AFF4FF0829FB7F8940B8FEA89FB8903
:102D6000808180620AC09FB7F894EE89FF896083F2
:102D7000E889F98980818370806480839FBF81E0C6
:102D800090E0DF91CF911F910F91FF90EF90089508
:102D9000CF93DF93EC01888D8823C9F0EA89FB8902
:102DA000808185FD05C0A889B9898C9186FD0FC0F9
:102DB0000FB607FCF5CF808185FFF2CFA889B989CE
:102DC0008C9185FFEDCFCE010E945916E7CFDF91A0
:102DD000CF91089580E090E0892B21F00E944F165A
:102DE00081111DC080E090E0892B21F00E944516E2
:102DF000811118C080E090E0892B21F00E943B16E1
:102E0000811113C080E090E0892BA1F080E090E078
:102E1000892B81F00E94000081110AC008950E9450
:102E20000000E0CF0E940000E5CF0E940000EACF42
:102E30000C9400000895885E9E4FDC018D919C915A
:102E4000DC01ED91FC910680F781E02D1994885EFC
:102E50009E4FDC018D919C91DC01ED91FC910484ED
:102E6000F585E02D1994885E9E4FDC018D919C9133
:102E7000DC01ED91FC910284F385E02D1994885ECC
:102E80009E4FDC018D919C91DC01ED91FC910190B4
:102E9000F081E02D1994885E9E4FDC018D919C910C
:102EA000DC01ED91FC910084F185E02D19944091B5
:102EB0005515262F30E0240F311D21323105DCF469
:102EC0002091F40B2430C9F4FC0180E090E08617D7
:102ED00058F4309155152191DC01AB5CBA4EA30F2B
:102EE000B11D2C930196F3CF80915515680F609317
:102EF000551580E0089581E0089582E008950895D1
:102F000008950895E091AD0B8091AC0BE81730F473
:102F1000F0E0E255F44F808190E008958FEF9FEF4D
:102F200008959091AD0B8091AC0B981750F4E92F58
:102F3000F0E0E255F44F208130E09F5F9093AD0BBD
:102F400002C02FEF3FEFC90108958091AC0B90E0D4
:102F50002091AD0B821B91090895CF92DF92EF92E1
:102F6000FF920F931F93CF93DF937C01CB018A01D4
:102F70002091FA0B222389F0EB016B01C40ED51EC0
:102F8000CC15DD0569F06991D701ED91FC910190B7
:102F9000F081E02DC7011995F3CF642F0E945717D8
:102FA000C801DF91CF911F910F91FF90EF90DF90BB
:102FB000CF900895CF93DF931F92CDB7DEB769838B
:102FC0002091FA0B2223D1F020911D0C203240F0E9
:102FD00021E030E0FC013383228380E090E015C0E3
:102FE0008091FB0BE82FF0E0E450F44F998190833F
:102FF0008F5F8093FB0B80931D0C05C061E0CE01B9
:1030000001960E94571781E090E00F90DF91CF91D9
:103010000895089580E090E008950E9400346115BD
:10302000710579F0FB0101900020E9F73197AF01BC
:10303000461B570BDC01ED91FC910280F381E02DE2
:10304000199480E090E008951F920F920FB60F92AE
:1030500011240BB60F922F933F934F935F936F936F
:103060007F938F939F93AF93BF93EF93FF93E091E1
:103070000E02F0910F021995FF91EF91BF91AF9160
:103080009F918F917F916F915F914F913F912F9180
:103090000F900BBE0F900FBE0F901F9018951F92B0
:1030A0000F920FB60F9211240BB60F922F933F93EE
:1030B0004F935F936F937F938F939F93AF93BF9340
:1030C000EF93FF93E0910C02F0910D021995FF919F
:1030D000EF91BF91AF919F918F917F916F915F9190
:1030E0004F913F912F910F900BBE0F900FBE0F90FD
:1030F0001F9018951F920F920FB60F9211240BB6C6
:103100000F922F933F934F935F936F937F938F9380
:103110009F93AF93BF93EF93FF93E0910202F091DF
:1031200003021995FF91EF91BF91AF919F918F91FC
:103130007F916F915F914F913F912F910F900BBEB7
:103140000F900FBE0F901F9018951F920F920FB601
:103150000F9211240BB60F922F933F934F935F93CF
:103160006F937F938F939F93AF93BF93EF93FF934F
:10317000E0910002F09101021995FF91EF91BF914A
:10318000AF919F918F917F916F915F914F913F91FF
:103190002F910F900BBE0F900FBE0F901F901895A0
:1031A0001F920F920FB60F9211240BB60F922F930E
:1031B0003F934F935F936F937F938F939F93AF93BF
:1031C000BF93EF93FF93E0910A02F0910B021995E0
:1031D000FF91EF91BF91AF919F918F917F916F91EF
:1031E0005F914F913F912F910F900BBE0F900FBEAB
:1031F0000F901F9018951F920F920FB60F921124E7
:103200000BB60F922F933F934F935F936F937F93E0
:103210008F939F93AF93BF93EF93FF93E091080237
:10322000F09109021995FF91EF91BF91AF919F9194
:103230008F917F916F915F914F913F912F910F905F
:103240000BBE0F900FBE0F901F9018951F920F92FC
:103250000FB60F9211240BB60F922F933F934F93FB
:103260005F936F937F938F939F93AF93BF93EF93EE
:10327000FF93E0910602F09107021995FF91EF91FB
:10328000BF91AF919F918F917F916F915F914F917E
:103290003F912F910F900BBE0F900FBE0F901F907C
:1032A00018951F920F920FB60F9211240BB60F9222
:1032B0002F933F934F935F936F937F938F939F933E
:1032C000AF93BF93EF93FF93E0910402F091050257
:1032D0001995FF91EF91BF91AF919F918F917F9140
:1032E0006F915F914F913F912F910F900BBE0F9077
:1032F0000FBE0F901F9018958F929F92AF92BF9222
:10330000EF92FF920F931F93CF93DF93CDB7DEB76A
:10331000A1970FB6F894DEBF0FBECDBF7C01FA01B6
:10332000CB0119A2223008F42AE08E010F5D1F4F55
:10333000822E912CA12CB12CBF01A50194010E94D9
:103340005732F901CA01015011096A3014F4605D65
:1033500001C0695CD8016C93232B242B252B61F7CA
:10336000B801C7010E940F18A1960FB6F894DEBFEE
:103370000FBECDBFDF91CF911F910F91FF90EF90C6
:10338000BF90AF909F908F9008956AE875E00C947D
:103390000F180F931F93CF93DF93EC010E940F1828
:1033A0008C01CE010E94C519800F911FDF91CF9132
:1033B0001F910F910895DC01ED91FC910190F08136
:1033C000E02D19940C940F18EF92FF920F931F9316
:1033D000CF93DF938C017B01C0E0D0E0F701EC0FCD
:1033E000FD1F6491662361F0D801ED91FC9101907D
:1033F000F081E02DC8011995892B11F02196EECFAF
:10340000CE01DF91CF911F910F91FF90EF90089522
:103410000F931F93CF93DF93EC010E94E4198C016B
:10342000CE010E94C519800F911FDF91CF911F918E
:103430000F9108951F920F920FB60F9211240BB6A1
:103440000F922F933F934F935F936F937F938F933D
:103450009F93AF93BF93EF93FF938EE19CE00E9405
:103460005916FF91EF91BF91AF919F918F917F91ED
:103470006F915F914F913F912F910F900BBE0F90E5
:103480000FBE0F901F9018951F920F920FB60F92BC
:1034900011240BB60F922F933F934F935F936F932B
:1034A0007F938F939F93AF93BF93EF93FF938EE19F
:1034B0009CE00E943A1DFF91EF91BF91AF919F91C7
:1034C0008F917F916F915F914F913F912F910F90CD
:1034D0000BBE0F900FBE0F901F9018951F920F926A
:1034E0000FB60F9211240BB60F922F933F934F9369
:1034F0005F936F937F938F939F93AF93BF93EF935C
:10350000FF938BEB9CE00E945916FF91EF91BF91C6
:10351000AF919F918F917F916F915F914F913F916B
:103520002F910F900BBE0F900FBE0F901F9018950C
:103530001F920F920FB60F9211240BB60F922F937A
:103540003F934F935F936F937F938F939F93AF932B
:10355000BF93EF93FF938BEB9CE00E943A1DFF918A
:10356000EF91BF91AF919F918F917F916F915F91FB
:103570004F913F912F910F900BBE0F900FBE0F9068
:103580001F9018951F920F920FB60F9211240BB631
:103590000F922F933F934F935F936F937F938F93EC
:1035A0009F93AF93BF93EF93FF9388E59DE00E94B5
:1035B0005916FF91EF91BF91AF919F918F917F919C
:1035C0006F915F914F913F912F910F900BBE0F9094
:1035D0000FBE0F901F9018951F920F920FB60F926B
:1035E00011240BB60F922F933F934F935F936F93DA
:1035F0007F938F939F93AF93BF93EF93FF9388E550
:103600009DE00E943A1DFF91EF91BF91AF919F9174
:103610008F917F916F915F914F913F912F910F907B
:103620000BBE0F900FBE0F901F9018951092F40BC9
:1036300081E08093F30B1092CE0B61E084E10E9455
:10364000531D61E085E10E94531DE9EBF0E08081AC
:103650008E7F808380818D7F808388E48093B80013
:1036600085E48093BC000895CF93DF9391E090931D
:1036700034158823B9F0C091B800D091BA00809178
:10368000BC008A7B8093BC0060E084E10E94531DF3
:1036900060E085E10E94531D0E94161BD093BA0082
:1036A000C093B800DF91CF91089585ED8093BC0061
:1036B0008091F60B9091F70BA091F80BB091F90B5C
:1036C0000796A11DB11D23E0B695A79597958795FF
:1036D0002A95D1F72091BC0024FF1CC04091F60B25
:1036E0005091F70B6091F80B7091F90B452B462B1D
:1036F000472B81F30097A105B10541F025E32A95F9
:10370000F1F700000197A109B109E4CF8091F50B11
:103710000C94341B1092F40B08951F920F920FB665
:103720000F9211240BB60F922F933F934F935F93F9
:103730006F937F938F939F93AF93BF93EF93FF9379
:103740008091B900887F803609F49CC068F5883282
:1037500009F45BC090F4803109F454C038F4882334
:1037600009F4F6C0883009F44DC0F6C0883109F478
:103770004CC0803209F45DC0EFC0803409F468C0E9
:1037800048F4803309F455C0883309F0E5C08093CC
:10379000F20BD8C0803509F44FC0883509F45DC0FC
:1037A000883409F0D9C0D6C0883909F4C7C0A8F454
:1037B000883709F467C038F4883609F463C0803765
:1037C00009F460C0C9C0883809F4B8C0803909F468
:1037D0005FC0803809F0C0C05BC0803B09F486C080
:1037E00038F4803A09F466C0883A09F47FC0B4C05E
:1037F000803C09F4A7C0883C09F4A4C0883B09F4C4
:103800008AC0AAC08091CF0B10C09091F10B80911B
:10381000F00B981770F5E091F10B81E08E0F80931B
:10382000F10BF0E0E053F44F80818093BB0085EC16
:1038300086C08093F20B8EC0E091F10B81E08E0F79
:103840008093F10B8091BB00F0E0E053F44F808354
:103850009091F10B8091F00B6EC0E091F10B81E043
:103860008E0F8093F10B8091BB00F0E0E053F44F9A
:1038700080838091F30B81116DC081E08093CE0B2A
:1038800084EA61C083E08093F40B10927715CFCF68
:1038900080917715803208F051C0E091771581E072
:1038A0008E0F809377158091BB00F0E0E95AFA4EB5
:1038B0008083BDCF85EC8093BC001092F40B809187
:1038C0007715803230F4E0917715F0E0E95AFA4E3E
:1038D00010826091771570E0E0918E05F0918F0570
:1038E00087E595E119951092771536C084E08093AD
:1038F000F40B1092561510925515E0919005F09129
:103900009105199580915515811105C081E080932D
:10391000551510923515E091561581E08E0F809364
:103920005615F0E0EB5CFA4E80818093BB009091DD
:10393000561580915515981708F479CF85E880932E
:10394000BC000AC085EC8093BC001092F40B04C04C
:103950001092F20B0E94551BFF91EF91BF91AF9116
:103960009F918F917F916F915F914F913F912F9197
:103970000F900BBE0F900FBE0F901F9018950F93D6
:103980001F93CF93DF93EC018B012097A9F08E81D9
:103990009F81009721F40115110549F40DC001150F
:1039A000110529F0B8010E94CB2C892B29F0CE01FA
:1039B0000E941108EC01E9CFCE01DF91CF911F9158
:1039C0000F910895CF93DF93EC0188819981DC01F9
:1039D000ED91FC910190F081E02D19952A813B81B8
:1039E000820F931F9B838A83DF91CF910895DC011F
:1039F0008D919C91DC01ED91FC910280F381E02D91
:103A00001994EF92FF920F931F93CF93DF93CDB74B
:103A1000DEB766970FB6F894DEBF0FBECDBF8C0140
:103A2000CB01FE0177969F014AE0E42EF12CB7010D
:103A30000E944332805D8293CB010097C1F7A901B8
:103A40004E1B5F0BBF01C8010E94F71CF8012281C9
:103A50003381820F931F9383828366960FB6F89407
:103A6000DEBF0FBECDBFDF91CF911F910F91FF90B1
:103A7000EF900895FC01A089B1898C91A689B7893E
:103A800082FD0FC09C91818D8F5F8F73228D821775
:103A900049F0218DDF01A20FB11D5D969C93818FAE
:103AA00008958C910895362F90E0FC01EB5AF74F62
:103AB0004491FC01ED53F94F2491FC01E358F94F77
:103AC0009491992309F46CC0442309F455C050E043
:103AD000FA013197E231F10508F04EC08827EE581F
:103AE000FF4F8F4F0C947932809180008F7707C001
:103AF000809180008F7D03C080918000877F8093BC
:103B000080003AC084B58F7702C084B58F7D84BDB4
:103B100033C08091B0008F7703C08091B0008F7D5B
:103B20008093B00029C0809190008F7707C080916A
:103B300090008F7D03C080919000877F80939000DC
:103B40001BC08091A0008F7707C08091A0008F7D5F
:103B500003C08091A000877F8093A0000DC080915A
:103B600020018F7707C0809120018F7D03C0809155
:103B70002001877F80932001E92FF0E0EE0FFF1FE7
:103B8000E75BF94FA591B4919FB7F894311104C048
:103B90008C912095282302C0EC912E2B2C939FBF53
:103BA00008953FB7F89480917D1590917E15A0916E
:103BB0007F15B091801526B5A89B05C02F3F19F041
:103BC0000196A11DB11D3FBFBA2FA92F982F88279D
:103BD000820F911DA11DB11DBC01CD0142E0660FF8
:103BE000771F881F991F4A95D1F708958F929F924A
:103BF000AF92BF92CF92DF92EF92FF926B017C0166
:103C00000E94D11D4B015C01C114D104E104F104F7
:103C1000F1F00E94D11DDC01CB0188199909AA0994
:103C2000BB09883E9340A105B10570F321E0C21A9B
:103C3000D108E108F10888EE880E83E0981EA11CE7
:103C4000B11CC114D104E104F10419F7DDCFFF90D8
:103C5000EF90DF90CF90BF90AF909F908F9008959E
:103C60001F920F920FB60F9211242F933F938F93B1
:103C70009F93AF93BF938091781590917915A09100
:103C80007A15B0917B1530917C1523E0230F2D37E9
:103C900020F40196A11DB11D05C026E8230F029650
:103CA000A11DB11D20937C158093781590937915F3
:103CB000A0937A15B0937B1580917D1590917E1518
:103CC000A0917F15B09180150196A11DB11D809323
:103CD0007D1590937E15A0937F15B0938015BF91AD
:103CE000AF919F918F913F912F910F900FBE0F90A9
:103CF0001F901895CF93DF93CDB7DEB7C65CD1097F
:103D00000FB6F894DEBF0FBECDBF789484B5826045
:103D100084BD84B5816084BD85B5826085BD85B56F
:103D2000816085BD80916E00816080936E001092ED
:103D30008100809181008260809381008091810068
:103D400081608093810080918000816080938000F9
:103D50008091B10084608093B1008091B000816057
:103D60008093B00080919100826080939100809157
:103D70009100816080939100809190008160809398
:103D800090008091A10082608093A1008091A100A9
:103D900081608093A1008091A00081608093A00049
:103DA00080912101826080932101809121018160B5
:103DB0008093210180912001816080932001809176
:103DC0007A00846080937A0080917A008260809388
:103DD0007A0080917A00816080937A0080917A00E5
:103DE000806880937A001092C10040E052EC61E05C
:103DF00070E088E59DE00E94B51440E855E260E07F
:103E000070E08EE19CE00E94B51484E00E947B0F7C
:103E100060E084E00E94531D1092AD0B1092AC0B39
:103E20001092FB0B10921D0C0E94161B8FE797E15E
:103E3000909391058093900580E897E190938F058A
:103E400080938E0560E08EE00E94D50B0E948A145C
:103E50000E948A140E940F1429833A834B835C8347
:103E60006D837E838F8362E7CE0101961C010E94E1
:103E70003F130E94181584EF93E0909328158093C8
:103E800027158CEE93E090932A158093291580EEE8
:103E900093E090932C1580932B1540E05BE460E059
:103EA00070E08BEB9CE00E94B5148BEB9CE0909350
:103EB000331580933215809126140E947B0F61E0A8
:103EC000809126140E94531D6AE070E080E090E02B
:103ED0000E94F61D60E0809126140E94531D64E646
:103EE00070E080E090E00E94F61D61E08091261471
:103EF0000E94531D6FEB73E088E59DE00E94081A55
:103F00000EE010E08091321590913315DC01ED91B7
:103F1000FC910084F185E02D1995892B61F0809149
:103F2000321590913315DC01ED91FC910284F385FB
:103F3000E02D1995E7CF609130157091311544EF60
:103F400051E08CEB93E00E944A0D811163C0809197
:103F5000321590913315DC01ED91FC910084F185CF
:103F6000E02D1995892B61F08091321590913315D0
:103F7000DC01ED91FC910284F385E02D1995E7CFEA
:103F800044EF51E066EB73E089EB93E00E944A0D49
:103F9000811140C064EF71E080E090E00E94F61D66
:103FA0000150110909F0AECF64E873E088E59DE0A7
:103FB0000E94081A609130157091311544EF51E05C
:103FC00081E893E00E944A0D64E670E080E090E0B2
:103FD0000E94F61D609130157091311544EF51E04B
:103FE0008EE793E00E944A0D64E670E080E090E086
:103FF0000E94F61D609130157091311544EF51E02B
:104000008BE793E00E944A0D64E670E080E090E068
:104010000E94F61D609130157091311544EF51E00A
:1040200086E793E00E944A0D64E670E080E090E04D
:104030000E94F61D609130157091311544EF51E0EA
:1040400081E793E00E944A0D882311F40C94C42A5E
:10405000609130157091311544EF51E087E693E09F
:104060000E944A0D64E670E080E090E00E94F61D38
:104070000E94B31560E673E088E59DE00E94E419B4
:1040800062E972E088E59DE00E94C91962E972E088
:1040900080913215909133150E94C91961E084EF27
:1040A00091E00E94441569E573E088E59DE00E9477
:1040B000E41968E274E188E59DE00E94C9196EE4A4
:1040C00073E088E294E10E94DD2C892B11F083E0FB
:1040D00027C063E473E088E294E10E94DD2C892B21
:1040E00011F082E01DC068E373E088E294E10E9471
:1040F000DD2C892B11F081E013C068E273E088E2C7
:1041000094E10E94DD2C892B11F084E009C068E164
:1041100073E088E294E10E94DD2C892B19F085E0A0
:104120008093271480912714813081F561E173E039
:1041300088E59DE00E94E41966E972E088E59DE06B
:104140000E94C91966E972E0809132159091331589
:104150000E94C91961E084EF91E00E9444156AE071
:1041600073E088E59DE00E94E41968E274E188E567
:104170009DE00E94C91962E073E088E294E10E9428
:10418000DD2C892B19F086E080932714609130157F
:104190007091311544EF51E08BEE92E00E944A0D90
:1041A0006DE972E088E59DE00E94C9190091301523
:1041B0001091311541E050E060E070E082EE92E055
:1041C0000E94340FB80188E294E10E94CB2C892B25
:1041D00051F4609130157091311544EF51E08DED3F
:1041E00092E00E944A0D0E942D0E811106C06CEAD9
:1041F00072E088E59DE00E94C9190E94D70C0E94D8
:104200005F0D811103C06DEB72E002C06DEC72E0D6
:1042100088E59DE00E94C919E9E7F0E0EC0FFD1F79
:104220003296C154DF4FF983E883CF5BD04080EAF8
:1042300090E08C0F9D1F0896CD53DF4F99838883A4
:10424000C35CD040A4E9B0E0AC0FBD1F1496CB53C3
:10425000DF4FB983A883C55CD0400E94E21381FD83
:1042600002C00C94C02A8091AA0B8F5F8093AA0B86
:10427000853011F00C94C02A80910D0E90910E0E95
:104280009093100E80930F0E8091130E9091140E48
:104290009093120E8093110E8091190E8078809366
:1042A000190E4DE05EE066EA75E085E19EE00E9451
:1042B000410A009749F0FC0124812078206424837E
:1042C00011821082138212829093060E8093050E43
:1042D0002DE03EE03093080E2093070E009719F072
:1042E000B9010E9497074091070E5091080E009760
:1042F00081F0DC0114962C9114972078206214969A
:104300002C93149711961C921E9213961C921E9237
:1043100012979093020E8093010E5093040E4093D7
:10432000030E009779F069ED72E00E94BE09FC016E
:10433000892B41F094819078946094838BED92E086
:1043400091838083E090030EF090040E0091010EA3
:104350001091020E0115110581F064EA75E0F80173
:10436000808191810E94BF1C009731F4A70164EA0B
:1043700075E0C8010E94050A8C012091030E30915E
:10438000040E0115110581F0D80114968C91149733
:104390008078806414968C93149711961C921E92C8
:1043A00013961C921E92129710930A0E0093090EF8
:1043B00030930C0E20930B0E0E940F142093A30B2E
:1043C0003093A40B4093A50B5093A60B6093A70BBF
:1043D0007093A80B8093A90B3A3078F44A3068F4B4
:1043E0001F923F931F924F931F926F931F927F9341
:1043F0001F928F9381EE92E046C04A30D8F41F920C
:104400003F931F924F931F926F931F927F931F9220
:104410008F9387EF92E09F938F933F922F920E940A
:1044200031348DB79EB70E960FB6F8949EBF0FBE6F
:104430008DBF37C03A30D8F41F923F931F924F93ED
:104440001F926F931F927F931F928F9381EE92E042
:104450009F938F933F922F920E943134ADB7BEB796
:104460001E960FB6F894BEBF0FBEADBF1AC01F9206
:104470003F931F924F931F926F931F927F931F92B0
:104480008F938CE093E09F938F933F922F920E94A3
:104490003134EDB7FEB73E960FB6F894FEBF0FBEAF
:1044A000EDBF4DE05EE062EA75E085E19EE00E94CE
:1044B000410A8C01892B79F1F10101900020E9F783
:1044C000AF0142195309E0900F0EF090100EC70192
:1044D000840F951F2091110E3091120E2817390765
:1044E00010F40C94CC2A9093100E80930F0EE114CC
:1044F000F10411F40C94CC2AB101C7010E940534D7
:10450000D80114968C9114978078856014968C93BA
:104510001497ED92FC920E945F0D0E94EE0F823084
:104520003CF468E875E088E59DE00E94081A94C2B2
:10453000B10180E20E949A0F882399F38091271499
:104540009CEF980F60E273E0923008F0C4C0C101A4
:104550000E94F72C6C01892B21F360E273E080E06C
:1045600090E00E94F72C8C01892BD9F260E273E075
:1045700080E090E00E94F72C7C01892B91F260E2B0
:1045800073E080E090E00E94F72CC354DF4F9983E2
:104590008883CD5BD040892B21F260E273E080E01C
:1045A00090E00E94F72C60E273E080E090E00E94CF
:1045B000F72C60E273E080E090E00E94F72C009717
:1045C00009F4AFCF0E94A02CC754DF4F68837983D2
:1045D0008A839B83C95BD04060E273E080E090E017
:1045E0000E94F72C009709F49CCF0E94A02C60E257
:1045F00073E080E090E00E94F72C009709F491CFDF
:104600000E94A02CC6010E94A02C4B015C01C70196
:104610000E94A02C2B013C0120E030E048EC52E449
:10462000C501B4010E9402330E94A3336B017C01D7
:1046300020E030E048EC52E40E945C319B01AC0188
:10464000C501B4010E94953220E030E040E752E419
:104650000E940233A70196010E9496326B017C01F1
:10466000F8018081833521F4F7FAF094F7F8F0949B
:1046700020E030E048EC52E4C301B2010E94023372
:104680000E94A3334B015C0120E030E048EC52E48F
:104690000E945C319B01AC01C301B2010E949532C2
:1046A00020E030E040E752E40E940233A50194018B
:1046B0000E9496322B013C01C354DF4FA881B9817F
:1046C000CD5BD0408C91873509F070C177FA70943A
:1046D00077F870946BC1833009F060C0C1010E940B
:1046E000F72C892B09F41DCF60E273E080E090E0A5
:1046F0000E94F72C892B09F414CF60E273E080E06C
:1047000090E00E94F72C892B09F40BCF60E273E054
:1047100080E090E00E94F72C7C01892B09F401CF06
:1047200060E273E080E090E00E94F72C8C01892B1E
:1047300009F4F7CEC7010E94A02C6B017C01C801CF
:104740000E94A02C2B013C0160E273E080E090E02D
:104750000E94F72C009709F4E4CE0E94A02CC754C5
:10476000DF4F688379838A839B83C95BD04060E293
:1047700073E080E090E00E94F72C009709F4D1CE1E
:104780000E94A02C60E273E080E090E00E94F72C91
:10479000009709F4C6CE0E94A02C08C1C1010E9456
:1047A000F72C892B09F4BDCE60E273E080E090E045
:1047B0000E94F72C892B09F4B4CE60E273E080E00C
:1047C00090E00E94F72C892B09F4ABCE60E273E0F5
:1047D00080E090E00E94F72C8C01892B09F4A1CE97
:1047E00060E273E080E090E00E94F72CC754DF4F56
:1047F00099838883C95BD040892B09F492CE60E20B
:1048000073E080E090E00E94F72C7C01892B09F492
:1048100088CE60E273E080E090E00E94F72CC35401
:10482000DF4F99838883CD5BD040892B09F479CE03
:10483000C8010E94A02C4B015C01C7010E94A02C62
:104840002B013C0120E030E048EC52E4C501B4010A
:104850000E9402330E94A3336B017C0120E030E010
:1048600048EC52E40E945C319B01AC01C501B401EB
:104870000E94953220E030E040E752E40E9402338B
:10488000A70196010E9496326B017C01C754DF4F4D
:10489000E881F981C95BD0408081833521F4F7FA42
:1048A000F094F7F8F09420E030E048EC52E4C301D3
:1048B000B2010E9402330E94A3334B015C0120E04D
:1048C00030E048EC52E40E945C319B01AC01C30132
:1048D000B2010E94953220E030E040E752E40E94AD
:1048E0000233A50194010E9496322B013C01C3546E
:1048F000DF4FA881B981CD5BD0408C91873521F401
:1049000077FA709477F8709460E273E080E090E05A
:104910000E94F72C009709F404CE0E94A02C60E2BC
:1049200073E080E090E00E94F72C009709F4F9CD45
:104930000E94A02C0E94EE0F83300CF4F2CDBE0139
:104940006F5F7F4F80E00E949A0F882309F4E9CDC2
:1049500060E273E0CE0101960E94F72C892B09F4E6
:10496000E0CD60E273E080E090E00E94F72C892BBC
:1049700009F4D7CD60E273E080E090E00E94F72C6C
:10498000892B09F4CECD60E273E080E090E00E94D4
:10499000F72C009709F4C5CD0E94A02CC754DF4F17
:1049A000688379838A839B83C95BD0404092970B4D
:1049B0005092980B6092990B70929A0BC0929B0B3D
:1049C000D0929C0BE0929D0BF0929E0BC754DF4F50
:1049D00088819981AA81BB81C95BD04080939F0B5C
:1049E0009093A00BA093A10BB093A20B8E0107583C
:1049F0001F4F24E043E0C301B2010E94802C8101DB
:104A000024E043E0C701B6010E94802C4DE05EE047
:104A100066E875E085E19EE00E94410AFC01892B71
:104A200041F0948190789C609483408251826282AC
:104A300073824DE05EE064E875E085E19EE00E94EF
:104A4000410AFC01892B41F0948190789C60948309
:104A5000C082D182E282F38270E1872E72E0972ECB
:104A6000E8E8F0E0EC0FFD1F3496C354DF4FF98304
:104A7000E883CD5BD0408CEA90E08C0F9D1F0496BC
:104A8000CF53DF4F99838883C15CD04062C190EEE1
:104A9000980F903208F480C190EC980F903108F094
:104AA00060C198E0D1011D929A95E9F7898383E06E
:104AB0008A83C854DF4FB881C85BD040B23009F454
:104AC00088C108F077C1B13009F07DC18091950BA4
:104AD0008F5F8093950B80E092E09C838B839E8315
:104AE0008D8314E066E0C1010E94601198878F8376
:104AF00055E0452EE12EF12CF5E0EF0EF11C85E09E
:104B0000810F682E712C63E0562E510EADB6BEB6E5
:104B10008DB79EB78E199F090FB6F8949EBF0FBE32
:104B20008DBF0DB71EB70F5F1F4F48E050E0B101BA
:104B30008EE19CE00E94D41588EE93E0A0E0B0E006
:104B40008093220C9093230CA093240CB093250CFB
:104B5000C754DF4F19830883C95BD040C12CD12CC7
:104B60002FB7F8948091781590917915A0917A15C6
:104B7000B0917B152FBF8093260C9093270CA093A8
:104B8000280CB093290C8EE19CE00E940D1697FF33
:104B900009C52FB7F8948091781590917915A09157
:104BA0007A15B0917B152FBF4091260C5091270CA0
:104BB0006091280C7091290C841B950BA60BB70BE8
:104BC0004091220C5091230C6091240C7091250C83
:104BD00084179507A607B707B0F2CE14DF0409F0D3
:104BE00002C3652DC8010E946011A801460D571D22
:104BF000FA013197208130E0322F2227319740810E
:104C0000242B2817390709F0EBC2C854DF4F9881CD
:104C1000C85BD040923009F48EC108F0FCC09130DE
:104C200009F41CC186E0F8013396DE01A758BF4F96
:104C300001900D928A95E1F7C154DF4F88819981E7
:104C4000CF5BD0400E945711CE0187589F4F0E94E2
:104C5000571189E790E08C0F9D1F04960E94571111
:104C6000ED966EAD7FADED9780E090E00E94FB3059
:104C700020E030E048EC52E40E9402332B013C017A
:104C8000EB966EAD7FADEB9780E090E00E94FB303D
:104C900020E030E048EC52E40E9402336B017C01DA
:104CA000EF966EAD7FADEF9780E090E00E94FB3015
:104CB0002091960BC056DF4F488259826A827B82D0
:104CC000C05AD040CC55DF4FC882D982EA82FB82DD
:104CD000C45AD040C855DF4F688379838A839B8349
:104CE000C85AD040213009F0A2C06FE775E0CD531B
:104CF000DF4F88819981C35CD0400E94DC106BE754
:104D000075E0CE0180569F4F0E94DC1066E775E08B
:104D100080EA90E08C0F9D1F04960E94DC100FB675
:104D2000F894BEBE0FBEADBE60E473E088E59DE0C2
:104D30000E94E21960E170E0F40180810E94BF10DE
:104D4000BFEF8B1A9B0AE4E1F2E0E815F90509F4DC
:104D500063C2D4018C9190EF980F903108F097CEF8
:104D600015C090EB980F9031F0F090EA980F9035C5
:104D700008F497CE90E5980F903108F092CEF1E0CC
:104D8000C854DF4FF883C85BD0408BCEC854DF4F88
:104D90001882C85BD04085CEB3E0C854DF4FB883DB
:104DA000C85BD0407ECEE4E0C854DF4FE883C85BE8
:104DB000D04077CEC854DF4FE881C85BD040E330A5
:104DC000A9F0E430C9F08091960B8F5F8093960B29
:104DD0001CC08091940B8F5F8093940B80E091E0D6
:104DE0009C838B839E838D8312E07CCE8091930B7A
:104DF0008F5F8093930B09C08091920B8F5F80939C
:104E0000920B80E09EE19C838B8380E093E09E8305
:104E10008D8316E067CEC854DF4FA881C85BD040B1
:104E2000A33009F4BCC0A43009F454C1FBCE223035
:104E300009F075CF61E775E0CD53DF4F8881998127
:104E4000C35CD0400E94DC106DE675E0CE01805658
:104E50009F4F0E94DC1068E675E05ACFF80183810D
:104E60009481A581B681ED968CAF9DAFAEAFBFAFFB
:104E7000ED97CE0187589F4F0E945711C154DF4FC5
:104E800088819981CF5BD0400E945711EB966EAD1F
:104E90007FADEB9780E090E00E94FB3020E030E0B7
:104EA00040E251E40E9402336B017C01ED966EAD4D
:104EB0007FADED9780E090E00E94FB3020E030E095
:104EC00048EC52E40E94023320E030E040EA51E432
:104ED0000E9495322091950BC455DF4FC882D9822C
:104EE000EA82FB82CC5AD040C055DF4F6883798379
:104EF0008A839B83C05BD040213069F0223009F067
:104F00000ECF6CE575E0CE0184559F4F0E94DC10FA
:104F100068E575E009C064E675E0CE0184559F4FF1
:104F20000E94DC1060E675E0CF53DF4F88819981E5
:104F3000C15CD040F2CED80113968D919C9114970C
:104F4000EB969FAF8EAFEB97CE0187589F4F0E9495
:104F50005711EB966EAD7FADEB9780E090E00E942D
:104F6000FB3020E030E048EC52E40E940233209114
:104F7000940BCC54DF4F688379838A839B83C45B13
:104F8000D040213031F0223009F0C9CE60E575E023
:104F900002C064E575E0CE018C549F4FBECE86E022
:104FA000F8013396DE01A758BF4F01900D928A9504
:104FB000E1F7CE0187589F4F0E945711C154DF4F30
:104FC00088819981CF5BD0400E94571189E790E09A
:104FD0008C0F9D1F04960E945711EB966EAD7FAD0E
:104FE000EB9780E090E00E94FB3020E030E048EC5E
:104FF00052E40E94023320E030E040E252E40E949A
:1050000095322B013C01ED966EAD7FADED9780E0C2
:1050100090E00E94FB3020E030E048EC52E40E9437
:1050200002336B017C01EF966EAD7FADEF9780E0B0
:1050300090E00E94FB3020E030E040E251E40E942A
:1050400002332091930BCC56DF4F488259826A82FB
:105050007B82C459D040C856DF4FC882D982EA82C9
:10506000FB82C859D040C456DF4F688379838A8356
:105070009B83CC59D0402130B9F0223009F04FCE7B
:105080006FE375E0CE018C569F4F0E94DC106CE3FD
:1050900075E0CB53DF4F88819981C55CD0400E9479
:1050A000DC1068E375E013C06CE475E0CE018C564B
:1050B0009F4F0E94DC1067E475E0CB53DF4F88817F
:1050C0009981C55CD0400E94DC1062E475E084E9FF
:1050D00090E082C086E0F8013396DE01A758BF4F0A
:1050E00001900D928A95E1F7CE0187589F4F0E945B
:1050F0005711C154DF4F88819981CF5BD0400E9406
:10510000571189E790E08C0F9D1F04960E9457115C
:10511000EB966EAD7FADEB9780E090E00E94FB30A8
:105120002B013C01ED966EAD7FADED9780E090E0F8
:105130000E94FB306B017C01EF966EAD7FADEF9767
:1051400080E090E00E94FB302091920BC857DF4F27
:10515000488259826A827B82C858D040C457DF4F48
:10516000C882D982EA82FB82CC58D040C057DF4F38
:10517000688379838A839B83C059D0402130B9F0FA
:10518000223009F0CCCD64E275E0CE0188579F4F04
:105190000E94DC106FE175E0C354DF4F8881998174
:1051A000CD5BD0400E94DC106AE175E013C063E380
:1051B00075E0CE0188579F4F0E94DC106EE275E0CB
:1051C000C354DF4F88819981CD5BD0400E94DC10B1
:1051D00069E275E088E890E08C0F9D1F08969DCDF0
:1051E00062E273E002C06AE273E088E59DE00E943B
:1051F000C9190FB6F894BEBE0FBEADBE4A94411099
:1052000085CC60E573E088E59DE00E94E21960E1ED
:1052100070E0D4018C9192CD1092960B1092950B68
:105220001092940B1092930B1092920B88E59DE0D4
:105230009A8389831C821B8285E19EE0009721F07E
:10524000B1010E941E0805C060E673E0C1010E9422
:10525000810783E0F82E95E0492E95E0592E22E94A
:10526000C22E25E0D22E31E9632E3BE0732EEB9661
:105270001FAE1EAEEB9750922815409227158DEF6A
:1052800094E090932A1580932915A1EFB4E0B09390
:105290002C15A0932B15109292057A826982DC82DC
:1052A000CB821E821D82E5E1FEE0309729F0B1013C
:1052B000CF010E94710A05C060E673E0C1010E943F
:1052C000FB070E94D70C0E942D0E20E0A10162ED89
:1052D00074E089ED94E00E94B70C882311F01981E5
:1052E00001C010E020E0AE014F5F5F4F6FEB74E054
:1052F00088EC94E00E94B70C882311F0098101C06A
:105300000FEF65E673E088E59DE00E94C9196EE73E
:1053100073E088E59DE00E94C9196BE873E088E5B9
:105320009DE00E94C9196BEA73E088E59DE00E9448
:10533000C91962E975E088E59DE00E94C91968EB2A
:1053400073E088E59DE00E94C9196AE070E0802F53
:105350000E94BF1065EC73E088E59DE00E94C919CA
:105360006AE070E0812F0E94BF10F60101900020DA
:10537000E9F731978F01025915406091301570910E
:10538000311544EF51E080EA94E00E944A0D6091AB
:1053900030157091311544EF51E084E994E00E949A
:1053A0004A0D882309F4AEC083EB94E00E94A31059
:1053B000882309F4A7C060912E1570912F1580EBFA
:1053C00094E00E948610882309F49CC061E08CEA76
:1053D00094E00E944B106BE873E08091321590913D
:1053E00033150E94E21980913215909133150E9475
:1053F000980D80913015909131150E940C0E8823E4
:1054000009F480C080912D158823D9F08EE894E0AE
:105410000E94A310882309F475C0A0903015B090A5
:10542000311541E050E060E070E082E894E00E94D5
:10543000340FB50188E294E10E94CB2C892B09F04E
:1054400061C060EE74E087EB94E00E9486108823D0
:1054500009F458C04801A12CB12C0E94B3156BE788
:1054600074E088E59DE00E94E4196EE674E088E54A
:105470009DE00E94E4192AE0B501A40188E59DE0C1
:105480000E947C196CE288E59DE00E94DB192AE00D
:1054900040E157E260E070E088E59DE00E947C1901
:1054A00088E59DE00E94C51961E674E0809132159F
:1054B000909133150E94E4192AE0B501A40180916E
:1054C0003215909133150E947C1960E273E080914F
:1054D0003215909133150E94E219A0903215B090C8
:1054E00033152AE040E157E260E070E0C5010E9418
:1054F0007C19C5010E94C51988E594E00E940C0E34
:105500008111AAC010E068EC70E080E090E00E9499
:10551000F61D609130157091311544EF51E080EA2D
:1055200094E00E944A0D111106C062ED73E088E517
:105530009DE00E94C91989819A818039B1E09B0759
:1055400009F459C008F043C0883C910509F44DC0E6
:105550008C3C910509F44CC0892B09F055C064EED0
:1055600073E088E59DE00E94C919112309F464C025
:1055700061EB74E088E59DE00E94C9191092AA0BC6
:105580000E94EA160C942D2169EC74E088E59DE0F8
:105590000E94C9190C94FF20F801848180788483CB
:1055A0000C948B22C754DF4FA881B981C95BD040CE
:1055B0008D93C754DF4FB983A883C95BD040BFEF39
:1055C000CB1ADB0ACE14DF0408F4CACA06CB89352D
:1055D000F2E09F0799F08B3522E0920791F0843931
:1055E000914091F465E474E0BCCF63E074E0B9CF1E
:1055F00062E174E0B6CF6DE274E0B3CF6FE574E0C2
:10560000B0CF69E774E0ADCF60E974E088E59DE074
:105610000E94E21949815A8160E070E02AE088E541
:105620009DE00E947C1963E375E088E59DE00E949F
:10563000C9190E94181599CF89819A81883C9105D2
:1056400009F496CF6EEB74E088E59DE00E94C919DD
:10565000FA94F1100CCE92CF8091321590913315BF
:10566000DC01ED91FC910280F381E02DA80162E95B
:1056700075E0199580913015909131150E940C0EAE
:10568000882309F43FCF009130151091311541E086
:1056900050E060E070E083E294E00E94340FB801D3
:1056A00088E294E10E94CB2C892B09F02BCF60E09B
:1056B00080E197E20E94441541E0BE016F5F7F4F99
:1056C00086E194E00E94840C882309F41BCF42E019
:1056D000BE0167587F4F89E094E00E94840C8823C4
:1056E00009F410CF6FE474E088E59DE00E94E419AE
:1056F00049815A8160E070E02AE088E59DE00E94DF
:105700007C1988E59DE00E94C51969E474E088E58C
:105710009DE00E94E419EB964EAD5FADEB9760E023
:1057200070E02AE088E59DE00E947C1988E59DE014
:105730000E94C51964EF71E08DE394E00E94530C60
:1057400040E0BE0167587F4F82E394E00E94840CE2
:10575000182FD9CEEEE1FCE01382128288EE93E09E
:10576000A0E0B0E084839583A683B78320E632E08F
:105770003183208345ED50E05587448744ED50E068
:105780005787468740ED50E0518B408B41ED50E00C
:10579000538B428B42ED50E0558B448B46ED50E0ED
:1057A000578B468B118E128E138E148EEBEBFCE012
:1057B0001382128284839583A683B78331832083E7
:1057C0004DEC50E0558744874CEC50E057874687B6
:1057D00048EC50E0518B408B49EC50E0538B428BAE
:1057E0004AEC50E0558B448B4EEC50E0578B468B87
:1057F000118E128E138E148EE8E5FDE01382128254
:1058000084839583A683B7833183208325EC30E09E
:105810003587248724EC30E03787268720EC30E07A
:10582000318B208B21EC30E0338B228B22EC30E06B
:10583000358B248B26EC30E0378B268B118E128E25
:10584000138E148EE5EFFDE013821282848395831C
:10585000A683B78322E732E031832083EDE0FEE0C8
:105860002AE13EE031832083338322832AE134E13D
:105870003583248337832683248520782487E9E0B1
:10588000FEE01182108213821282E5E0FEE01182B6
:10589000108213821282E1E0FEE0118210821382F4
:1058A0001282EAE1F4E11382128284839583A68353
:1058B000B78384E892E09183808384E084878DE4D9
:1058C00098E0909328158093271510922A1510922E
:1058D000291510922C1510922B1510923315109239
:1058E000321510922D1588E498E090932F1580932F
:1058F0002E1585E498E09093311580933015089526
:10590000EF920F931F93CF93DF93E80147FD02C0FF
:1059100034E001C034E1042E000C550B57FF03C0E6
:10592000519541955109E32E022F242FAE010E947B
:105930002A2DCE01DF91CF911F910F91EF90089505
:10594000662777270C94A12EFC0188279927E894D5
:1059500021912032E9F3293010F02E30C8F32B3298
:1059600041F02D3239F4689404C00E94222D820F38
:10597000911D219120532A30C0F31EF490958195FA
:105980009F4F0895FB01DC0102C005900D9241502C
:105990005040D8F70895FB01DC018D9105908019E6
:1059A0000110D9F3990B0895FC0105900020E9F747
:1059B000809590958E0F9F1F0895FB01559155235B
:1059C000A9F0BF01DC014D9145174111E1F759F4F0
:1059D000CD010590002049F04D9140154111C9F3CA
:1059E000FB014111EFCF81E090E00197089541E87C
:1059F00055E10C94FB2CFA01A191B081009719F4A8
:105A00001097E1F0CD01DC01CD010D90002011F4E3
:105A1000C00113C0FB012191222319F02015D9F7F1
:105A2000F3CFFB012191201519F41E92119606C0A7
:105A30002223C1F70D900020A1F7D001FA01A19314
:105A4000B08308957AE0979F902D879F802D910DC8
:105A5000112408958F929F92AF92BF92CF92DF92BE
:105A6000EF92FF920F931F93CF93DF93CDB7DEB7E3
:105A700029970FB6F894DEBF0FBECDBF6A01122F73
:105A8000B02E2BE3201720F0FF24F394F00E02C079
:105A90002CE3F22E0F2D27E0AE014F5F5F4F0E94E7
:105AA000FD2FBC014981842F8970813031F0E1FCE8
:105AB00006C0E0FE06C090E205C09DE203C09BE286
:105AC00001C090E05E2D507143FF3CC0911102C0B7
:105AD00083E001C084E0811718F4212F281B01C046
